{
  "contractName": "Producer",
  "abi": [
    {
      "inputs": [
        {
          "internalType": "string",
          "name": "_prodName",
          "type": "string"
        },
        {
          "internalType": "address payable",
          "name": "_owner",
          "type": "address"
        }
      ],
      "stateMutability": "nonpayable",
      "type": "constructor"
    },
    {
      "anonymous": false,
      "inputs": [],
      "name": "LicenseBought",
      "type": "event"
    },
    {
      "anonymous": false,
      "inputs": [
        {
          "indexed": true,
          "internalType": "address",
          "name": "previousOwner",
          "type": "address"
        },
        {
          "indexed": true,
          "internalType": "address",
          "name": "newOwner",
          "type": "address"
        }
      ],
      "name": "OwnershipTransferred",
      "type": "event"
    },
    {
      "stateMutability": "payable",
      "type": "fallback"
    },
    {
      "inputs": [
        {
          "internalType": "uint256",
          "name": "",
          "type": "uint256"
        }
      ],
      "name": "licensedTracks",
      "outputs": [
        {
          "internalType": "address",
          "name": "owner",
          "type": "address"
        },
        {
          "internalType": "address",
          "name": "owningContract",
          "type": "address"
        },
        {
          "internalType": "uint256",
          "name": "trackID",
          "type": "uint256"
        },
        {
          "internalType": "enum Producer.LicenseType",
          "name": "license",
          "type": "uint8"
        }
      ],
      "stateMutability": "view",
      "type": "function"
    },
    {
      "inputs": [],
      "name": "owner",
      "outputs": [
        {
          "internalType": "address",
          "name": "",
          "type": "address"
        }
      ],
      "stateMutability": "view",
      "type": "function"
    },
    {
      "inputs": [],
      "name": "renounceOwnership",
      "outputs": [],
      "stateMutability": "nonpayable",
      "type": "function"
    },
    {
      "inputs": [
        {
          "internalType": "uint256",
          "name": "",
          "type": "uint256"
        }
      ],
      "name": "tracks",
      "outputs": [
        {
          "internalType": "string",
          "name": "name",
          "type": "string"
        },
        {
          "internalType": "string",
          "name": "CID",
          "type": "string"
        },
        {
          "internalType": "uint256",
          "name": "trackID",
          "type": "uint256"
        },
        {
          "internalType": "address",
          "name": "trackOwner",
          "type": "address"
        }
      ],
      "stateMutability": "view",
      "type": "function"
    },
    {
      "inputs": [
        {
          "internalType": "address",
          "name": "newOwner",
          "type": "address"
        }
      ],
      "name": "transferOwnership",
      "outputs": [],
      "stateMutability": "nonpayable",
      "type": "function"
    },
    {
      "stateMutability": "payable",
      "type": "receive"
    },
    {
      "inputs": [],
      "name": "getName",
      "outputs": [
        {
          "internalType": "string",
          "name": "",
          "type": "string"
        }
      ],
      "stateMutability": "view",
      "type": "function"
    },
    {
      "inputs": [
        {
          "internalType": "uint256",
          "name": "_trackID",
          "type": "uint256"
        },
        {
          "internalType": "uint256",
          "name": "_price",
          "type": "uint256"
        }
      ],
      "name": "setExclusivePrice",
      "outputs": [],
      "stateMutability": "nonpayable",
      "type": "function"
    },
    {
      "inputs": [
        {
          "internalType": "uint256",
          "name": "_trackID",
          "type": "uint256"
        },
        {
          "internalType": "uint256",
          "name": "_price",
          "type": "uint256"
        }
      ],
      "name": "setNonExclusivePrice",
      "outputs": [],
      "stateMutability": "nonpayable",
      "type": "function"
    },
    {
      "inputs": [
        {
          "internalType": "uint256",
          "name": "_trackID",
          "type": "uint256"
        }
      ],
      "name": "getExclusivePrice",
      "outputs": [
        {
          "internalType": "uint256",
          "name": "",
          "type": "uint256"
        }
      ],
      "stateMutability": "view",
      "type": "function"
    },
    {
      "inputs": [
        {
          "internalType": "uint256",
          "name": "_trackID",
          "type": "uint256"
        }
      ],
      "name": "getNonExclusivePrice",
      "outputs": [
        {
          "internalType": "uint256",
          "name": "",
          "type": "uint256"
        }
      ],
      "stateMutability": "view",
      "type": "function"
    },
    {
      "inputs": [
        {
          "internalType": "string",
          "name": "_name",
          "type": "string"
        },
        {
          "internalType": "string",
          "name": "_CID",
          "type": "string"
        },
        {
          "internalType": "uint256",
          "name": "_excluPrice",
          "type": "uint256"
        },
        {
          "internalType": "uint256",
          "name": "_nonExcluPrice",
          "type": "uint256"
        }
      ],
      "name": "createTrack",
      "outputs": [],
      "stateMutability": "nonpayable",
      "type": "function"
    },
    {
      "inputs": [
        {
          "internalType": "address payable",
          "name": "_owner",
          "type": "address"
        },
        {
          "internalType": "address payable",
          "name": "_contract",
          "type": "address"
        },
        {
          "internalType": "uint256",
          "name": "_trackID",
          "type": "uint256"
        },
        {
          "internalType": "enum Producer.LicenseType",
          "name": "_licenseType",
          "type": "uint8"
        }
      ],
      "name": "buyLicense",
      "outputs": [],
      "stateMutability": "payable",
      "type": "function"
    },
    {
      "inputs": [
        {
          "internalType": "uint256",
          "name": "_trackID",
          "type": "uint256"
        }
      ],
      "name": "getTrack",
      "outputs": [
        {
          "components": [
            {
              "internalType": "string",
              "name": "name",
              "type": "string"
            },
            {
              "internalType": "string",
              "name": "CID",
              "type": "string"
            },
            {
              "internalType": "uint256",
              "name": "trackID",
              "type": "uint256"
            },
            {
              "internalType": "address",
              "name": "trackOwner",
              "type": "address"
            }
          ],
          "internalType": "struct Producer.Track",
          "name": "",
          "type": "tuple"
        }
      ],
      "stateMutability": "view",
      "type": "function"
    },
    {
      "inputs": [],
      "name": "getTracks",
      "outputs": [
        {
          "components": [
            {
              "internalType": "string",
              "name": "name",
              "type": "string"
            },
            {
              "internalType": "string",
              "name": "CID",
              "type": "string"
            },
            {
              "internalType": "uint256",
              "name": "trackID",
              "type": "uint256"
            },
            {
              "internalType": "address",
              "name": "trackOwner",
              "type": "address"
            }
          ],
          "internalType": "struct Producer.Track[]",
          "name": "",
          "type": "tuple[]"
        }
      ],
      "stateMutability": "view",
      "type": "function"
    },
    {
      "inputs": [],
      "name": "getLicensedTracks",
      "outputs": [
        {
          "components": [
            {
              "internalType": "address",
              "name": "owner",
              "type": "address"
            },
            {
              "internalType": "address",
              "name": "owningContract",
              "type": "address"
            },
            {
              "internalType": "uint256",
              "name": "trackID",
              "type": "uint256"
            },
            {
              "internalType": "enum Producer.LicenseType",
              "name": "license",
              "type": "uint8"
            }
          ],
          "internalType": "struct Producer.LicensedTrack[]",
          "name": "",
          "type": "tuple[]"
        }
      ],
      "stateMutability": "view",
      "type": "function"
    }
  ],
  "bytecode": "0x60806040523480156200001157600080fd5b5060405162002cd838038062002cd8833981810160405281019062000037919062000450565b620000576200004b620000d260201b60201c565b620000da60201b60201c565b60006003819055508160019080519060200190620000779291906200019e565b5080600260006101000a81548173ffffffffffffffffffffffffffffffffffffffff021916908373ffffffffffffffffffffffffffffffffffffffff160217905550620000ca81620000da60201b60201c565b50506200051b565b600033905090565b60008060009054906101000a900473ffffffffffffffffffffffffffffffffffffffff169050816000806101000a81548173ffffffffffffffffffffffffffffffffffffffff021916908373ffffffffffffffffffffffffffffffffffffffff1602179055508173ffffffffffffffffffffffffffffffffffffffff168173ffffffffffffffffffffffffffffffffffffffff167f8be0079c531659141344cd1fd0a4f28419497f9722a3daafe3b4186f6b6457e060405160405180910390a35050565b828054620001ac90620004e5565b90600052602060002090601f016020900481019282620001d057600085556200021c565b82601f10620001eb57805160ff19168380011785556200021c565b828001600101855582156200021c579182015b828111156200021b578251825591602001919060010190620001fe565b5b5090506200022b91906200022f565b5090565b5b808211156200024a57600081600090555060010162000230565b5090565b6000604051905090565b600080fd5b600080fd5b600080fd5b600080fd5b6000601f19601f8301169050919050565b7f4e487b7100000000000000000000000000000000000000000000000000000000600052604160045260246000fd5b620002b7826200026c565b810181811067ffffffffffffffff82111715620002d957620002d86200027d565b5b80604052505050565b6000620002ee6200024e565b9050620002fc8282620002ac565b919050565b600067ffffffffffffffff8211156200031f576200031e6200027d565b5b6200032a826200026c565b9050602081019050919050565b60005b83811015620003575780820151818401526020810190506200033a565b8381111562000367576000848401525b50505050565b6000620003846200037e8462000301565b620002e2565b905082815260208101848484011115620003a357620003a262000267565b5b620003b084828562000337565b509392505050565b600082601f830112620003d057620003cf62000262565b5b8151620003e28482602086016200036d565b91505092915050565b600073ffffffffffffffffffffffffffffffffffffffff82169050919050565b60006200041882620003eb565b9050919050565b6200042a816200040b565b81146200043657600080fd5b50565b6000815190506200044a816200041f565b92915050565b600080604083850312156200046a576200046962000258565b5b600083015167ffffffffffffffff8111156200048b576200048a6200025d565b5b6200049985828601620003b8565b9250506020620004ac8582860162000439565b9150509250929050565b7f4e487b7100000000000000000000000000000000000000000000000000000000600052602260045260246000fd5b60006002820490506001821680620004fe57607f821691505b60208210811415620005155762000514620004b6565b5b50919050565b6127ad806200052b6000396000f3fe6080604052600436106100ec5760003560e01c80638a38a8ee1161008a578063a87b509011610059578063a87b5090146102fd578063add485641461033a578063c5b4c26a14610363578063f2fde38b1461038c576100f6565b80638a38a8ee146102365780638da5cb5b146102525780638eedc9411461027d578063a2e34586146102bd576100f6565b8063711a5902116100c6578063711a59021461018c578063715018a6146101c957806384e7b1ab146101e057806387548fcf1461020b576100f6565b806317d7de7c146100fb578063629058ca146101265780636ad6dac214610163576100f6565b366100f657600080fd5b600080fd5b34801561010757600080fd5b506101106103b5565b60405161011d9190611b6e565b60405180910390f35b34801561013257600080fd5b5061014d60048036038101906101489190611bda565b610447565b60405161015a9190611d0b565b60405180910390f35b34801561016f57600080fd5b5061018a60048036038101906101859190611e62565b6105f8565b005b34801561019857600080fd5b506101b360048036038101906101ae9190611bda565b610847565b6040516101c09190611f10565b60405180910390f35b3480156101d557600080fd5b506101de610864565b005b3480156101ec57600080fd5b506101f56108ec565b60405161020291906120a6565b60405180910390f35b34801561021757600080fd5b50610220610a3c565b60405161022d91906121f4565b60405180910390f35b610250600480360381019061024b9190612279565b610c1f565b005b34801561025e57600080fd5b506102676114bd565b60405161027491906122ef565b60405180910390f35b34801561028957600080fd5b506102a4600480360381019061029f9190611bda565b6114e6565b6040516102b49493929190612319565b60405180910390f35b3480156102c957600080fd5b506102e460048036038101906102df9190611bda565b611573565b6040516102f4949392919061235e565b60405180910390f35b34801561030957600080fd5b50610324600480360381019061031f9190611bda565b6116e3565b6040516103319190611f10565b60405180910390f35b34801561034657600080fd5b50610361600480360381019061035c91906123b1565b611700565b005b34801561036f57600080fd5b5061038a600480360381019061038591906123b1565b611798565b005b34801561039857600080fd5b506103b360048036038101906103ae919061241d565b611830565b005b6060600180546103c490612479565b80601f01602080910402602001604051908101604052809291908181526020018280546103f090612479565b801561043d5780601f106104125761010080835404028352916020019161043d565b820191906000526020600020905b81548152906001019060200180831161042057829003601f168201915b5050505050905090565b61044f6119f4565b6006600083815260200190815260200160002060405180608001604052908160008201805461047d90612479565b80601f01602080910402602001604051908101604052809291908181526020018280546104a990612479565b80156104f65780601f106104cb576101008083540402835291602001916104f6565b820191906000526020600020905b8154815290600101906020018083116104d957829003601f168201915b5050505050815260200160018201805461050f90612479565b80601f016020809104026020016040519081016040528092919081815260200182805461053b90612479565b80156105885780601f1061055d57610100808354040283529160200191610588565b820191906000526020600020905b81548152906001019060200180831161056b57829003601f168201915b50505050508152602001600282015481526020016003820160009054906101000a900473ffffffffffffffffffffffffffffffffffffffff1673ffffffffffffffffffffffffffffffffffffffff1673ffffffffffffffffffffffffffffffffffffffff16815250509050919050565b610600611928565b73ffffffffffffffffffffffffffffffffffffffff1661061e6114bd565b73ffffffffffffffffffffffffffffffffffffffff1614610674576040517f08c379a000000000000000000000000000000000000000000000000000000000815260040161066b906124f7565b60405180910390fd5b6000604051806080016040528086815260200185815260200160035481526020013373ffffffffffffffffffffffffffffffffffffffff1681525090506106bd60035484611700565b6106c960035483611798565b8060066000600354815260200190815260200160002060008201518160000190805190602001906106fb929190611a32565b506020820151816001019080519060200190610718929190611a32565b506040820151816002015560608201518160030160006101000a81548173ffffffffffffffffffffffffffffffffffffffff021916908373ffffffffffffffffffffffffffffffffffffffff160217905550905050600481908060018154018082558091505060019003906000526020600020906004020160009091909190915060008201518160000190805190602001906107b5929190611a32565b5060208201518160010190805190602001906107d2929190611a32565b506040820151816002015560608201518160030160006101000a81548173ffffffffffffffffffffffffffffffffffffffff021916908373ffffffffffffffffffffffffffffffffffffffff16021790555050506001600360008282546108399190612546565b925050819055505050505050565b600060086000838152602001908152602001600020549050919050565b61086c611928565b73ffffffffffffffffffffffffffffffffffffffff1661088a6114bd565b73ffffffffffffffffffffffffffffffffffffffff16146108e0576040517f08c379a00000000000000000000000000000000000000000000000000000000081526004016108d7906124f7565b60405180910390fd5b6108ea6000611930565b565b60606005805480602002602001604051908101604052809291908181526020016000905b82821015610a3357838290600052602060002090600402016040518060800160405290816000820160009054906101000a900473ffffffffffffffffffffffffffffffffffffffff1673ffffffffffffffffffffffffffffffffffffffff1673ffffffffffffffffffffffffffffffffffffffff1681526020016001820160009054906101000a900473ffffffffffffffffffffffffffffffffffffffff1673ffffffffffffffffffffffffffffffffffffffff1673ffffffffffffffffffffffffffffffffffffffff168152602001600282015481526020016003820160009054906101000a900460ff166001811115610a0e57610a0d611f57565b5b6001811115610a2057610a1f611f57565b5b8152505081526020019060010190610910565b50505050905090565b60606004805480602002602001604051908101604052809291908181526020016000905b82821015610c165783829060005260206000209060040201604051806080016040529081600082018054610a9390612479565b80601f0160208091040260200160405190810160405280929190818152602001828054610abf90612479565b8015610b0c5780601f10610ae157610100808354040283529160200191610b0c565b820191906000526020600020905b815481529060010190602001808311610aef57829003601f168201915b50505050508152602001600182018054610b2590612479565b80601f0160208091040260200160405190810160405280929190818152602001828054610b5190612479565b8015610b9e5780601f10610b7357610100808354040283529160200191610b9e565b820191906000526020600020905b815481529060010190602001808311610b8157829003601f168201915b50505050508152602001600282015481526020016003820160009054906101000a900473ffffffffffffffffffffffffffffffffffffffff1673ffffffffffffffffffffffffffffffffffffffff1673ffffffffffffffffffffffffffffffffffffffff168152505081526020019060010190610a60565b50505050905090565b8373ffffffffffffffffffffffffffffffffffffffff163373ffffffffffffffffffffffffffffffffffffffff161415610c5857600080fd5b600260009054906101000a900473ffffffffffffffffffffffffffffffffffffffff1673ffffffffffffffffffffffffffffffffffffffff168473ffffffffffffffffffffffffffffffffffffffff161415610cb357600080fd5b60006001811115610cc757610cc6611f57565b5b816001811115610cda57610cd9611f57565b5b1480610d095750600180811115610cf457610cf3611f57565b5b816001811115610d0757610d06611f57565b5b145b610d48576040517f08c379a0000000000000000000000000000000000000000000000000000000008152600401610d3f9061260e565b60405180910390fd5b6000839050600080806001811115610d6357610d62611f57565b5b846001811115610d7657610d75611f57565b5b14156111055760001515600960008973ffffffffffffffffffffffffffffffffffffffff1673ffffffffffffffffffffffffffffffffffffffff1681526020019081526020016000206000878152602001908152602001600020600080815260200190815260200160002060009054906101000a900460ff16151514610dfb57600080fd5b6001600960008973ffffffffffffffffffffffffffffffffffffffff1673ffffffffffffffffffffffffffffffffffffffff1681526020019081526020016000206000878152602001908152602001600020600080815260200190815260200160002060006101000a81548160ff0219169083151502179055508273ffffffffffffffffffffffffffffffffffffffff1663a87b5090866040518263ffffffff1660e01b8152600401610eae9190611f10565b602060405180830381865afa158015610ecb573d6000803e3d6000fd5b505050506040513d601f19601f82011682018060405250810190610eef9190612643565b905080341015610efe57600080fd5b8673ffffffffffffffffffffffffffffffffffffffff1681604051610f22906126a1565b60006040518083038185875af1925050503d8060008114610f5f576040519150601f19603f3d011682016040523d82523d6000602084013e610f64565b606091505b5050809250506001151582151514610f7f57610f7e6126b6565b5b600560405180608001604052808973ffffffffffffffffffffffffffffffffffffffff1681526020018873ffffffffffffffffffffffffffffffffffffffff16815260200187815260200160006001811115610fde57610fdd611f57565b5b815250908060018154018082558091505060019003906000526020600020906004020160009091909190915060008201518160000160006101000a81548173ffffffffffffffffffffffffffffffffffffffff021916908373ffffffffffffffffffffffffffffffffffffffff16021790555060208201518160010160006101000a81548173ffffffffffffffffffffffffffffffffffffffff021916908373ffffffffffffffffffffffffffffffffffffffff1602179055506040820151816002015560608201518160030160006101000a81548160ff021916908360018111156110cd576110cc611f57565b5b021790555050507f6a07c98445bb3cfb4efcf8f19262792acb7626d174697316978caafa1b742d5a60405160405180910390a16114b4565b60018081111561111857611117611f57565b5b84600181111561112b5761112a611f57565b5b14156114b35760001515600960008973ffffffffffffffffffffffffffffffffffffffff1673ffffffffffffffffffffffffffffffffffffffff168152602001908152602001600020600087815260200190815260200160002060006001815260200190815260200160002060009054906101000a900460ff161515146111b157600080fd5b6001600960008973ffffffffffffffffffffffffffffffffffffffff1673ffffffffffffffffffffffffffffffffffffffff168152602001908152602001600020600087815260200190815260200160002060006001815260200190815260200160002060006101000a81548160ff0219169083151502179055508273ffffffffffffffffffffffffffffffffffffffff1663711a5902866040518263ffffffff1660e01b81526004016112659190611f10565b602060405180830381865afa158015611282573d6000803e3d6000fd5b505050506040513d601f19601f820116820180604052508101906112a69190612643565b9050803410156112b557600080fd5b8673ffffffffffffffffffffffffffffffffffffffff16816040516112d9906126a1565b60006040518083038185875af1925050503d8060008114611316576040519150601f19603f3d011682016040523d82523d6000602084013e61131b565b606091505b505080925050600115158215151461133257600080fd5b600560405180608001604052808973ffffffffffffffffffffffffffffffffffffffff1681526020018873ffffffffffffffffffffffffffffffffffffffff1681526020018781526020016001808111156113905761138f611f57565b5b815250908060018154018082558091505060019003906000526020600020906004020160009091909190915060008201518160000160006101000a81548173ffffffffffffffffffffffffffffffffffffffff021916908373ffffffffffffffffffffffffffffffffffffffff16021790555060208201518160010160006101000a81548173ffffffffffffffffffffffffffffffffffffffff021916908373ffffffffffffffffffffffffffffffffffffffff1602179055506040820151816002015560608201518160030160006101000a81548160ff0219169083600181111561147f5761147e611f57565b5b021790555050507f6a07c98445bb3cfb4efcf8f19262792acb7626d174697316978caafa1b742d5a60405160405180910390a15b5b50505050505050565b60008060009054906101000a900473ffffffffffffffffffffffffffffffffffffffff16905090565b600581815481106114f657600080fd5b90600052602060002090600402016000915090508060000160009054906101000a900473ffffffffffffffffffffffffffffffffffffffff16908060010160009054906101000a900473ffffffffffffffffffffffffffffffffffffffff16908060020154908060030160009054906101000a900460ff16905084565b6004818154811061158357600080fd5b90600052602060002090600402016000915090508060000180546115a690612479565b80601f01602080910402602001604051908101604052809291908181526020018280546115d290612479565b801561161f5780601f106115f45761010080835404028352916020019161161f565b820191906000526020600020905b81548152906001019060200180831161160257829003601f168201915b50505050509080600101805461163490612479565b80601f016020809104026020016040519081016040528092919081815260200182805461166090612479565b80156116ad5780601f10611682576101008083540402835291602001916116ad565b820191906000526020600020905b81548152906001019060200180831161169057829003601f168201915b5050505050908060020154908060030160009054906101000a900473ffffffffffffffffffffffffffffffffffffffff16905084565b600060076000838152602001908152602001600020549050919050565b611708611928565b73ffffffffffffffffffffffffffffffffffffffff166117266114bd565b73ffffffffffffffffffffffffffffffffffffffff161461177c576040517f08c379a0000000000000000000000000000000000000000000000000000000008152600401611773906124f7565b60405180910390fd5b8060076000848152602001908152602001600020819055505050565b6117a0611928565b73ffffffffffffffffffffffffffffffffffffffff166117be6114bd565b73ffffffffffffffffffffffffffffffffffffffff1614611814576040517f08c379a000000000000000000000000000000000000000000000000000000000815260040161180b906124f7565b60405180910390fd5b8060086000848152602001908152602001600020819055505050565b611838611928565b73ffffffffffffffffffffffffffffffffffffffff166118566114bd565b73ffffffffffffffffffffffffffffffffffffffff16146118ac576040517f08c379a00000000000000000000000000000000000000000000000000000000081526004016118a3906124f7565b60405180910390fd5b600073ffffffffffffffffffffffffffffffffffffffff168173ffffffffffffffffffffffffffffffffffffffff16141561191c576040517f08c379a000000000000000000000000000000000000000000000000000000000815260040161191390612757565b60405180910390fd5b61192581611930565b50565b600033905090565b60008060009054906101000a900473ffffffffffffffffffffffffffffffffffffffff169050816000806101000a81548173ffffffffffffffffffffffffffffffffffffffff021916908373ffffffffffffffffffffffffffffffffffffffff1602179055508173ffffffffffffffffffffffffffffffffffffffff168173ffffffffffffffffffffffffffffffffffffffff167f8be0079c531659141344cd1fd0a4f28419497f9722a3daafe3b4186f6b6457e060405160405180910390a35050565b6040518060800160405280606081526020016060815260200160008152602001600073ffffffffffffffffffffffffffffffffffffffff1681525090565b828054611a3e90612479565b90600052602060002090601f016020900481019282611a605760008555611aa7565b82601f10611a7957805160ff1916838001178555611aa7565b82800160010185558215611aa7579182015b82811115611aa6578251825591602001919060010190611a8b565b5b509050611ab49190611ab8565b5090565b5b80821115611ad1576000816000905550600101611ab9565b5090565b600081519050919050565b600082825260208201905092915050565b60005b83811015611b0f578082015181840152602081019050611af4565b83811115611b1e576000848401525b50505050565b6000601f19601f8301169050919050565b6000611b4082611ad5565b611b4a8185611ae0565b9350611b5a818560208601611af1565b611b6381611b24565b840191505092915050565b60006020820190508181036000830152611b888184611b35565b905092915050565b6000604051905090565b600080fd5b600080fd5b6000819050919050565b611bb781611ba4565b8114611bc257600080fd5b50565b600081359050611bd481611bae565b92915050565b600060208284031215611bf057611bef611b9a565b5b6000611bfe84828501611bc5565b91505092915050565b600082825260208201905092915050565b6000611c2382611ad5565b611c2d8185611c07565b9350611c3d818560208601611af1565b611c4681611b24565b840191505092915050565b611c5a81611ba4565b82525050565b600073ffffffffffffffffffffffffffffffffffffffff82169050919050565b6000611c8b82611c60565b9050919050565b611c9b81611c80565b82525050565b60006080830160008301518482036000860152611cbe8282611c18565b91505060208301518482036020860152611cd88282611c18565b9150506040830151611ced6040860182611c51565b506060830151611d006060860182611c92565b508091505092915050565b60006020820190508181036000830152611d258184611ca1565b905092915050565b600080fd5b600080fd5b7f4e487b7100000000000000000000000000000000000000000000000000000000600052604160045260246000fd5b611d6f82611b24565b810181811067ffffffffffffffff82111715611d8e57611d8d611d37565b5b80604052505050565b6000611da1611b90565b9050611dad8282611d66565b919050565b600067ffffffffffffffff821115611dcd57611dcc611d37565b5b611dd682611b24565b9050602081019050919050565b82818337600083830152505050565b6000611e05611e0084611db2565b611d97565b905082815260208101848484011115611e2157611e20611d32565b5b611e2c848285611de3565b509392505050565b600082601f830112611e4957611e48611d2d565b5b8135611e59848260208601611df2565b91505092915050565b60008060008060808587031215611e7c57611e7b611b9a565b5b600085013567ffffffffffffffff811115611e9a57611e99611b9f565b5b611ea687828801611e34565b945050602085013567ffffffffffffffff811115611ec757611ec6611b9f565b5b611ed387828801611e34565b9350506040611ee487828801611bc5565b9250506060611ef587828801611bc5565b91505092959194509250565b611f0a81611ba4565b82525050565b6000602082019050611f256000830184611f01565b92915050565b600081519050919050565b600082825260208201905092915050565b6000819050602082019050919050565b7f4e487b7100000000000000000000000000000000000000000000000000000000600052602160045260246000fd5b60028110611f9757611f96611f57565b5b50565b6000819050611fa882611f86565b919050565b6000611fb882611f9a565b9050919050565b611fc881611fad565b82525050565b608082016000820151611fe46000850182611c92565b506020820151611ff76020850182611c92565b50604082015161200a6040850182611c51565b50606082015161201d6060850182611fbf565b50505050565b600061202f8383611fce565b60808301905092915050565b6000602082019050919050565b600061205382611f2b565b61205d8185611f36565b935061206883611f47565b8060005b838110156120995781516120808882612023565b975061208b8361203b565b92505060018101905061206c565b5085935050505092915050565b600060208201905081810360008301526120c08184612048565b905092915050565b600081519050919050565b600082825260208201905092915050565b6000819050602082019050919050565b600060808301600083015184820360008601526121118282611c18565b9150506020830151848203602086015261212b8282611c18565b91505060408301516121406040860182611c51565b5060608301516121536060860182611c92565b508091505092915050565b600061216a83836120f4565b905092915050565b6000602082019050919050565b600061218a826120c8565b61219481856120d3565b9350836020820285016121a6856120e4565b8060005b858110156121e257848403895281516121c3858261215e565b94506121ce83612172565b925060208a019950506001810190506121aa565b50829750879550505050505092915050565b6000602082019050818103600083015261220e818461217f565b905092915050565b600061222182611c60565b9050919050565b61223181612216565b811461223c57600080fd5b50565b60008135905061224e81612228565b92915050565b6002811061226157600080fd5b50565b60008135905061227381612254565b92915050565b6000806000806080858703121561229357612292611b9a565b5b60006122a18782880161223f565b94505060206122b28782880161223f565b93505060406122c387828801611bc5565b92505060606122d487828801612264565b91505092959194509250565b6122e981611c80565b82525050565b600060208201905061230460008301846122e0565b92915050565b61231381611fad565b82525050565b600060808201905061232e60008301876122e0565b61233b60208301866122e0565b6123486040830185611f01565b612355606083018461230a565b95945050505050565b600060808201905081810360008301526123788187611b35565b9050818103602083015261238c8186611b35565b905061239b6040830185611f01565b6123a860608301846122e0565b95945050505050565b600080604083850312156123c8576123c7611b9a565b5b60006123d685828601611bc5565b92505060206123e785828601611bc5565b9150509250929050565b6123fa81611c80565b811461240557600080fd5b50565b600081359050612417816123f1565b92915050565b60006020828403121561243357612432611b9a565b5b600061244184828501612408565b91505092915050565b7f4e487b7100000000000000000000000000000000000000000000000000000000600052602260045260246000fd5b6000600282049050600182168061249157607f821691505b602082108114156124a5576124a461244a565b5b50919050565b7f4f776e61626c653a2063616c6c6572206973206e6f7420746865206f776e6572600082015250565b60006124e1602083611ae0565b91506124ec826124ab565b602082019050919050565b60006020820190508181036000830152612510816124d4565b9050919050565b7f4e487b7100000000000000000000000000000000000000000000000000000000600052601160045260246000fd5b600061255182611ba4565b915061255c83611ba4565b9250827fffffffffffffffffffffffffffffffffffffffffffffffffffffffffffffffff0382111561259157612590612517565b5b828201905092915050565b7f456e74657220612076616c6964204c6963656e736554797065202830206f722060008201527f3129000000000000000000000000000000000000000000000000000000000000602082015250565b60006125f8602283611ae0565b91506126038261259c565b604082019050919050565b60006020820190508181036000830152612627816125eb565b9050919050565b60008151905061263d81611bae565b92915050565b60006020828403121561265957612658611b9a565b5b60006126678482850161262e565b91505092915050565b600081905092915050565b50565b600061268b600083612670565b91506126968261267b565b600082019050919050565b60006126ac8261267e565b9150819050919050565b7f4e487b7100000000000000000000000000000000000000000000000000000000600052600160045260246000fd5b7f4f776e61626c653a206e6577206f776e657220697320746865207a65726f206160008201527f6464726573730000000000000000000000000000000000000000000000000000602082015250565b6000612741602683611ae0565b915061274c826126e5565b604082019050919050565b6000602082019050818103600083015261277081612734565b905091905056fea26469706673582212200956881eda59fa272a508ef2c5ee860c35b068835a0e8c6b1d6cb2598577dd4d64736f6c634300080a0033",
  "immutableReferences": {},
  "source": "// SPDX-License-Identifier: MIT\npragma solidity 0.8.10;\n\nimport \"@openzeppelin/contracts/access/Ownable.sol\";\n\n/// @title A contract that stores all data about the Producer\n/// @author Anthony Khoshrozeh\n/// @notice This contract can be updated to represent a Producer's own tracks and licensed tracks\ncontract Producer is Ownable {\n    string prodName;\n    address payable c_owner;\n    uint idCounter; \n\n    /// @notice An array that contains all the Producer's tracks\n    Track[] public tracks;\n\n    /// @notice An array that contains all track licenses purchased by the Producer\n    LicensedTrack[] public licensedTracks;\n\n    mapping (uint => Track) idToTrack;\n\n    // maps track id to exclusive license price\n    mapping (uint => uint) excluPrice; \n    // maps track id to nonExclusive license price\n    mapping (uint => uint) nonExcluPrice;\n\n    // checks if Producer already has a license to a certain track\n    mapping (address => mapping (uint => mapping (uint => bool))) private alreadyBought;\n    \n    enum LicenseType {Exclusive, NonExclusive}\n\n\n    /// @notice An event for when a license is purchased by a Producer \n    event LicenseBought();\n\n    struct Track {\n        string name;\n        string CID;\n        uint trackID;\n        address trackOwner;\n    }\n\n    /// @custom This trackID refers to the trackID from the 'owner'\n    struct LicensedTrack {\n        address owner;\n        address owningContract;\n        uint trackID;\n        LicenseType license;\n    }\n\n    /// @notice Fallback function that reverts the txn\n    fallback() external payable {\n        revert();\n    }\n\n    /// @notice Receive function that reverts the txn; used as a fallback function\n    receive() external payable {\n        revert();\n    }\n    \n    // modifier isOwner() {\n    //     require(msg.sender == owner);\n    //     _;\n    // }\n    \n    /// @notice The _owner parameter is the account who called 'createProducer' in ProducerFactory.sol\n    /// @param _prodName The name of the producer; the artist name\n    /// @param _owner The EOA address of the owner of this contract;\n    constructor(string memory _prodName, address payable _owner) {\n        idCounter = 0;\n        prodName = _prodName;\n        c_owner = _owner;\n        _transferOwnership(_owner);\n\n    }\n\n    /// @return Returns the producer's name of this contract\n    function getName() public view returns(string memory) {\n        return prodName;\n    }\n\n    /// @param _trackID Used to determine which track to update its price\n    /// @param _price The price in Wei for an exclusive license of the track\n    /// @notice Sets the price for an exclusive license of a track\n    function setExclusivePrice(uint _trackID, uint _price) public onlyOwner {\n        excluPrice[_trackID] = _price;\n    }\n\n    /// @param _trackID Used to determine which track to update its price\n    /// @param _price The price in Wei for a non-exclusive license of the track\n    /// @notice Sets the price for a non-exclusive license of a track\n    function setNonExclusivePrice(uint _trackID, uint _price) public onlyOwner {\n        nonExcluPrice[_trackID] = _price;\n    }\n\n    /// @param _trackID Unique Id used to select the track\n    /// @return The exclusive license price for that track\n    function getExclusivePrice(uint _trackID) public view returns(uint) {\n        return excluPrice[_trackID];\n    }\n\n    /// @param _trackID Unique Id used to select the track\n    /// @return The non-exclusive license price for that track\n    function getNonExclusivePrice(uint _trackID) public view returns(uint) {\n        return nonExcluPrice[_trackID];\n    }\n\n    /// @param _name The name of the track\n    /// @param _CID The IPFS CID of the file of the track; this is created by user separately from the app\n    /// @param _excluPrice The price of the an exclusive license in Wei\n    /// @param _nonExcluPrice The price of the a non-exclusive license in Wei\n    /// @notice Creates the track object and stores it in the contract's storage; unique id is set for it and updated\n    function createTrack(string memory _name, string memory _CID, uint _excluPrice, uint _nonExcluPrice) public onlyOwner {\n        Track memory t = Track(_name, _CID, idCounter, msg.sender);\n        setExclusivePrice(idCounter, _excluPrice);\n        setNonExclusivePrice(idCounter, _nonExcluPrice);\n        idToTrack[idCounter] = t;\n        tracks.push(t);\n        idCounter += 1;\n    }\n\n    /// @param _owner The address of the owner of the contract that stores the desired track (owner of _contract)\n    /// @param _contract The contract address of the contract that stores the desired track\n    /// @param _trackID The unique ID of the desired track \n    /// @param _licenseType Specifies the type of license to buy\n    /// @notice Buys a license for a track\n    /// @dev _trackID is for the desired track w.r.t. it's own contract, not the contract buying of license for it\n    function buyLicense(address payable _owner, address payable _contract,  uint _trackID, LicenseType _licenseType) \n        public payable {\n        \n        require(msg.sender != _owner);\n        require(_owner != c_owner);\n        require((_licenseType == LicenseType.Exclusive || _licenseType == LicenseType.NonExclusive),\n         \"Enter a valid LicenseType (0 or 1)\");\n\n\n        Producer seller = Producer(_contract);\n        bool sent = false;\n        uint _price;\n\n        if (_licenseType == LicenseType.Exclusive) {\n            require(alreadyBought[_owner][_trackID][0] == false);\n            alreadyBought[_owner][_trackID][0] = true;\n            _price = seller.getExclusivePrice(_trackID);\n            require(msg.value >= _price);\n            (sent, ) = _owner.call{value: _price}(\"\");\n            assert(sent == true);\n            licensedTracks.push(LicensedTrack(_owner, _contract, _trackID,  LicenseType.Exclusive));\n            emit LicenseBought();\n        }\n\n        else if (_licenseType == LicenseType.NonExclusive) {\n            require(alreadyBought[_owner][_trackID][1] == false);\n            alreadyBought[_owner][_trackID][1] = true;\n            _price = seller.getNonExclusivePrice(_trackID);\n            require(msg.value >= _price);\n            (sent, ) = _owner.call{value: _price}(\"\");\n            require(sent == true);\n            licensedTracks.push(LicensedTrack(_owner, _contract, _trackID,  LicenseType.NonExclusive));\n            emit LicenseBought();\n        }\n\n    }\n\n    /// @param _trackID The unique ID of the track\n    /// @return The track object from storage\n    function getTrack(uint _trackID) external view returns(Track memory) {\n        return idToTrack[_trackID];\n    }\n\n    /// @return All tracks created by owner\n    function getTracks() public view returns(Track[] memory) {\n        return tracks;\n    }\n\n    /// @return All tracks the contract owner has bought a license to\n    function getLicensedTracks() public view returns(LicensedTrack[] memory) {\n        return licensedTracks;\n    }\n\n    \n\n    \n}",
  "sourcePath": "/Users/akhoshrozeh/Projects/consensys21/blockchain-developer-bootcamp-final-project/truffle/contracts/Producer.sol",
  "compiler": {
    "name": "solc",
    "version": "0.8.10+commit.fc410830.Emscripten.clang"
  },
  "schemaVersion": "3.4.3",
  "updatedAt": "2022-01-15T21:39:15.063Z",
  "devdoc": {
    "author": "Anthony Khoshrozeh",
    "kind": "dev",
    "methods": {
      "buyLicense(address,address,uint256,uint8)": {
        "details": "_trackID is for the desired track w.r.t. it's own contract, not the contract buying of license for it",
        "params": {
          "_contract": "The contract address of the contract that stores the desired track",
          "_licenseType": "Specifies the type of license to buy",
          "_owner": "The address of the owner of the contract that stores the desired track (owner of _contract)",
          "_trackID": "The unique ID of the desired track "
        }
      },
      "constructor": {
        "params": {
          "_owner": "The EOA address of the owner of this contract;",
          "_prodName": "The name of the producer; the artist name"
        }
      },
      "createTrack(string,string,uint256,uint256)": {
        "params": {
          "_CID": "The IPFS CID of the file of the track; this is created by user separately from the app",
          "_excluPrice": "The price of the an exclusive license in Wei",
          "_name": "The name of the track",
          "_nonExcluPrice": "The price of the a non-exclusive license in Wei"
        }
      },
      "getExclusivePrice(uint256)": {
        "params": {
          "_trackID": "Unique Id used to select the track"
        },
        "returns": {
          "_0": "The exclusive license price for that track"
        }
      },
      "getLicensedTracks()": {
        "returns": {
          "_0": "All tracks the contract owner has bought a license to"
        }
      },
      "getName()": {
        "returns": {
          "_0": "Returns the producer's name of this contract"
        }
      },
      "getNonExclusivePrice(uint256)": {
        "params": {
          "_trackID": "Unique Id used to select the track"
        },
        "returns": {
          "_0": "The non-exclusive license price for that track"
        }
      },
      "getTrack(uint256)": {
        "params": {
          "_trackID": "The unique ID of the track"
        },
        "returns": {
          "_0": "The track object from storage"
        }
      },
      "getTracks()": {
        "returns": {
          "_0": "All tracks created by owner"
        }
      },
      "owner()": {
        "details": "Returns the address of the current owner."
      },
      "renounceOwnership()": {
        "details": "Leaves the contract without owner. It will not be possible to call `onlyOwner` functions anymore. Can only be called by the current owner. NOTE: Renouncing ownership will leave the contract without an owner, thereby removing any functionality that is only available to the owner."
      },
      "setExclusivePrice(uint256,uint256)": {
        "params": {
          "_price": "The price in Wei for an exclusive license of the track",
          "_trackID": "Used to determine which track to update its price"
        }
      },
      "setNonExclusivePrice(uint256,uint256)": {
        "params": {
          "_price": "The price in Wei for a non-exclusive license of the track",
          "_trackID": "Used to determine which track to update its price"
        }
      },
      "transferOwnership(address)": {
        "details": "Transfers ownership of the contract to a new account (`newOwner`). Can only be called by the current owner."
      }
    },
    "title": "A contract that stores all data about the Producer",
    "version": 1
  },
  "userdoc": {
    "events": {
      "LicenseBought()": {
        "notice": "An event for when a license is purchased by a Producer "
      }
    },
    "kind": "user",
    "methods": {
      "buyLicense(address,address,uint256,uint8)": {
        "notice": "Buys a license for a track"
      },
      "constructor": {
        "notice": "The _owner parameter is the account who called 'createProducer' in ProducerFactory.sol"
      },
      "createTrack(string,string,uint256,uint256)": {
        "notice": "Creates the track object and stores it in the contract's storage; unique id is set for it and updated"
      },
      "licensedTracks(uint256)": {
        "notice": "An array that contains all track licenses purchased by the Producer"
      },
      "setExclusivePrice(uint256,uint256)": {
        "notice": "Sets the price for an exclusive license of a track"
      },
      "setNonExclusivePrice(uint256,uint256)": {
        "notice": "Sets the price for a non-exclusive license of a track"
      },
      "tracks(uint256)": {
        "notice": "An array that contains all the Producer's tracks"
      }
    },
    "notice": "This contract can be updated to represent a Producer's own tracks and licensed tracks",
    "version": 1
  }
}