{
  "contractName": "Producer",
  "abi": [
    {
      "inputs": [
        {
          "internalType": "string",
          "name": "_prodName",
          "type": "string"
        },
        {
          "internalType": "address payable",
          "name": "_owner",
          "type": "address"
        }
      ],
      "stateMutability": "nonpayable",
      "type": "constructor"
    },
    {
      "anonymous": false,
      "inputs": [],
      "name": "LicenseBought",
      "type": "event"
    },
    {
      "stateMutability": "payable",
      "type": "fallback"
    },
    {
      "inputs": [
        {
          "internalType": "uint256",
          "name": "",
          "type": "uint256"
        }
      ],
      "name": "licensedTracks",
      "outputs": [
        {
          "internalType": "address",
          "name": "owner",
          "type": "address"
        },
        {
          "internalType": "address",
          "name": "owningContract",
          "type": "address"
        },
        {
          "internalType": "uint256",
          "name": "trackID",
          "type": "uint256"
        },
        {
          "internalType": "enum Producer.LicenseType",
          "name": "license",
          "type": "uint8"
        }
      ],
      "stateMutability": "view",
      "type": "function"
    },
    {
      "inputs": [
        {
          "internalType": "uint256",
          "name": "",
          "type": "uint256"
        }
      ],
      "name": "tracks",
      "outputs": [
        {
          "internalType": "string",
          "name": "name",
          "type": "string"
        },
        {
          "internalType": "string",
          "name": "CID",
          "type": "string"
        },
        {
          "internalType": "uint256",
          "name": "trackID",
          "type": "uint256"
        },
        {
          "internalType": "address",
          "name": "trackOwner",
          "type": "address"
        }
      ],
      "stateMutability": "view",
      "type": "function"
    },
    {
      "stateMutability": "payable",
      "type": "receive"
    },
    {
      "inputs": [],
      "name": "getName",
      "outputs": [
        {
          "internalType": "string",
          "name": "",
          "type": "string"
        }
      ],
      "stateMutability": "view",
      "type": "function"
    },
    {
      "inputs": [
        {
          "internalType": "uint256",
          "name": "_trackID",
          "type": "uint256"
        },
        {
          "internalType": "uint256",
          "name": "_price",
          "type": "uint256"
        }
      ],
      "name": "setExclusivePrice",
      "outputs": [],
      "stateMutability": "nonpayable",
      "type": "function"
    },
    {
      "inputs": [
        {
          "internalType": "uint256",
          "name": "_trackID",
          "type": "uint256"
        },
        {
          "internalType": "uint256",
          "name": "_price",
          "type": "uint256"
        }
      ],
      "name": "setNonExclusivePrice",
      "outputs": [],
      "stateMutability": "nonpayable",
      "type": "function"
    },
    {
      "inputs": [
        {
          "internalType": "uint256",
          "name": "_trackID",
          "type": "uint256"
        }
      ],
      "name": "getExclusivePrice",
      "outputs": [
        {
          "internalType": "uint256",
          "name": "",
          "type": "uint256"
        }
      ],
      "stateMutability": "view",
      "type": "function"
    },
    {
      "inputs": [
        {
          "internalType": "uint256",
          "name": "_trackID",
          "type": "uint256"
        }
      ],
      "name": "getNonExclusivePrice",
      "outputs": [
        {
          "internalType": "uint256",
          "name": "",
          "type": "uint256"
        }
      ],
      "stateMutability": "view",
      "type": "function"
    },
    {
      "inputs": [
        {
          "internalType": "string",
          "name": "_name",
          "type": "string"
        },
        {
          "internalType": "string",
          "name": "_CID",
          "type": "string"
        },
        {
          "internalType": "uint256",
          "name": "_excluPrice",
          "type": "uint256"
        },
        {
          "internalType": "uint256",
          "name": "_nonExcluPrice",
          "type": "uint256"
        }
      ],
      "name": "createTrack",
      "outputs": [],
      "stateMutability": "nonpayable",
      "type": "function"
    },
    {
      "inputs": [
        {
          "internalType": "address payable",
          "name": "_owner",
          "type": "address"
        },
        {
          "internalType": "address payable",
          "name": "_contract",
          "type": "address"
        },
        {
          "internalType": "uint256",
          "name": "_trackID",
          "type": "uint256"
        },
        {
          "internalType": "enum Producer.LicenseType",
          "name": "_licenseType",
          "type": "uint8"
        }
      ],
      "name": "buyLicense",
      "outputs": [],
      "stateMutability": "payable",
      "type": "function"
    },
    {
      "inputs": [
        {
          "internalType": "uint256",
          "name": "_trackID",
          "type": "uint256"
        }
      ],
      "name": "getTrack",
      "outputs": [
        {
          "components": [
            {
              "internalType": "string",
              "name": "name",
              "type": "string"
            },
            {
              "internalType": "string",
              "name": "CID",
              "type": "string"
            },
            {
              "internalType": "uint256",
              "name": "trackID",
              "type": "uint256"
            },
            {
              "internalType": "address",
              "name": "trackOwner",
              "type": "address"
            }
          ],
          "internalType": "struct Producer.Track",
          "name": "",
          "type": "tuple"
        }
      ],
      "stateMutability": "view",
      "type": "function"
    },
    {
      "inputs": [],
      "name": "getTracks",
      "outputs": [
        {
          "components": [
            {
              "internalType": "string",
              "name": "name",
              "type": "string"
            },
            {
              "internalType": "string",
              "name": "CID",
              "type": "string"
            },
            {
              "internalType": "uint256",
              "name": "trackID",
              "type": "uint256"
            },
            {
              "internalType": "address",
              "name": "trackOwner",
              "type": "address"
            }
          ],
          "internalType": "struct Producer.Track[]",
          "name": "",
          "type": "tuple[]"
        }
      ],
      "stateMutability": "view",
      "type": "function"
    },
    {
      "inputs": [],
      "name": "getLicensedTracks",
      "outputs": [
        {
          "components": [
            {
              "internalType": "address",
              "name": "owner",
              "type": "address"
            },
            {
              "internalType": "address",
              "name": "owningContract",
              "type": "address"
            },
            {
              "internalType": "uint256",
              "name": "trackID",
              "type": "uint256"
            },
            {
              "internalType": "enum Producer.LicenseType",
              "name": "license",
              "type": "uint8"
            }
          ],
          "internalType": "struct Producer.LicensedTrack[]",
          "name": "",
          "type": "tuple[]"
        }
      ],
      "stateMutability": "view",
      "type": "function"
    }
  ],
  "bytecode": "0x60806040523480156200001157600080fd5b50604051620026e2380380620026e2833981810160405281019062000037919062000353565b6000600281905550816000908051906020019062000057929190620000a1565b5080600160006101000a81548173ffffffffffffffffffffffffffffffffffffffff021916908373ffffffffffffffffffffffffffffffffffffffff16021790555050506200041e565b828054620000af90620003e8565b90600052602060002090601f016020900481019282620000d357600085556200011f565b82601f10620000ee57805160ff19168380011785556200011f565b828001600101855582156200011f579182015b828111156200011e57825182559160200191906001019062000101565b5b5090506200012e919062000132565b5090565b5b808211156200014d57600081600090555060010162000133565b5090565b6000604051905090565b600080fd5b600080fd5b600080fd5b600080fd5b6000601f19601f8301169050919050565b7f4e487b7100000000000000000000000000000000000000000000000000000000600052604160045260246000fd5b620001ba826200016f565b810181811067ffffffffffffffff82111715620001dc57620001db62000180565b5b80604052505050565b6000620001f162000151565b9050620001ff8282620001af565b919050565b600067ffffffffffffffff82111562000222576200022162000180565b5b6200022d826200016f565b9050602081019050919050565b60005b838110156200025a5780820151818401526020810190506200023d565b838111156200026a576000848401525b50505050565b600062000287620002818462000204565b620001e5565b905082815260208101848484011115620002a657620002a56200016a565b5b620002b38482856200023a565b509392505050565b600082601f830112620002d357620002d262000165565b5b8151620002e584826020860162000270565b91505092915050565b600073ffffffffffffffffffffffffffffffffffffffff82169050919050565b60006200031b82620002ee565b9050919050565b6200032d816200030e565b81146200033957600080fd5b50565b6000815190506200034d8162000322565b92915050565b600080604083850312156200036d576200036c6200015b565b5b600083015167ffffffffffffffff8111156200038e576200038d62000160565b5b6200039c85828601620002bb565b9250506020620003af858286016200033c565b9150509250929050565b7f4e487b7100000000000000000000000000000000000000000000000000000000600052602260045260246000fd5b600060028204905060018216806200040157607f821691505b60208210811415620004185762000417620003b9565b5b50919050565b6122b4806200042e6000396000f3fe6080604052600436106100ab5760003560e01c80638a38a8ee116100645780638a38a8ee146101de5780638eedc941146101fa578063a2e345861461023a578063a87b50901461027a578063add48564146102b7578063c5b4c26a146102e0576100b5565b806317d7de7c146100ba578063629058ca146100e55780636ad6dac214610122578063711a59021461014b57806384e7b1ab1461018857806387548fcf146101b3576100b5565b366100b557600080fd5b600080fd5b3480156100c657600080fd5b506100cf610309565b6040516100dc91906117e7565b60405180910390f35b3480156100f157600080fd5b5061010c60048036038101906101079190611853565b61039b565b6040516101199190611984565b60405180910390f35b34801561012e57600080fd5b5061014960048036038101906101449190611adb565b61054c565b005b34801561015757600080fd5b50610172600480360381019061016d9190611853565b610779565b60405161017f9190611b89565b60405180910390f35b34801561019457600080fd5b5061019d610796565b6040516101aa9190611d1f565b60405180910390f35b3480156101bf57600080fd5b506101c86108e6565b6040516101d59190611e6d565b60405180910390f35b6101f860048036038101906101f39190611ef2565b610ac9565b005b34801561020657600080fd5b50610221600480360381019061021c9190611853565b611367565b6040516102319493929190611f77565b60405180910390f35b34801561024657600080fd5b50610261600480360381019061025c9190611853565b6113f4565b6040516102719493929190611fbc565b60405180910390f35b34801561028657600080fd5b506102a1600480360381019061029c9190611853565b611564565b6040516102ae9190611b89565b60405180910390f35b3480156102c357600080fd5b506102de60048036038101906102d9919061200f565b611581565b005b3480156102ec57600080fd5b506103076004803603810190610302919061200f565b6115f7565b005b6060600080546103189061207e565b80601f01602080910402602001604051908101604052809291908181526020018280546103449061207e565b80156103915780601f1061036657610100808354040283529160200191610391565b820191906000526020600020905b81548152906001019060200180831161037457829003601f168201915b5050505050905090565b6103a361166d565b600560008381526020019081526020016000206040518060800160405290816000820180546103d19061207e565b80601f01602080910402602001604051908101604052809291908181526020018280546103fd9061207e565b801561044a5780601f1061041f5761010080835404028352916020019161044a565b820191906000526020600020905b81548152906001019060200180831161042d57829003601f168201915b505050505081526020016001820180546104639061207e565b80601f016020809104026020016040519081016040528092919081815260200182805461048f9061207e565b80156104dc5780601f106104b1576101008083540402835291602001916104dc565b820191906000526020600020905b8154815290600101906020018083116104bf57829003601f168201915b50505050508152602001600282015481526020016003820160009054906101000a900473ffffffffffffffffffffffffffffffffffffffff1673ffffffffffffffffffffffffffffffffffffffff1673ffffffffffffffffffffffffffffffffffffffff16815250509050919050565b600160009054906101000a900473ffffffffffffffffffffffffffffffffffffffff1673ffffffffffffffffffffffffffffffffffffffff163373ffffffffffffffffffffffffffffffffffffffff16146105a657600080fd5b6000604051806080016040528086815260200185815260200160025481526020013373ffffffffffffffffffffffffffffffffffffffff1681525090506105ef60025484611581565b6105fb600254836115f7565b80600560006002548152602001908152602001600020600082015181600001908051906020019061062d9291906116ab565b50602082015181600101908051906020019061064a9291906116ab565b506040820151816002015560608201518160030160006101000a81548173ffffffffffffffffffffffffffffffffffffffff021916908373ffffffffffffffffffffffffffffffffffffffff160217905550905050600381908060018154018082558091505060019003906000526020600020906004020160009091909190915060008201518160000190805190602001906106e79291906116ab565b5060208201518160010190805190602001906107049291906116ab565b506040820151816002015560608201518160030160006101000a81548173ffffffffffffffffffffffffffffffffffffffff021916908373ffffffffffffffffffffffffffffffffffffffff160217905550505060016002600082825461076b91906120df565b925050819055505050505050565b600060076000838152602001908152602001600020549050919050565b60606004805480602002602001604051908101604052809291908181526020016000905b828210156108dd57838290600052602060002090600402016040518060800160405290816000820160009054906101000a900473ffffffffffffffffffffffffffffffffffffffff1673ffffffffffffffffffffffffffffffffffffffff1673ffffffffffffffffffffffffffffffffffffffff1681526020016001820160009054906101000a900473ffffffffffffffffffffffffffffffffffffffff1673ffffffffffffffffffffffffffffffffffffffff1673ffffffffffffffffffffffffffffffffffffffff168152602001600282015481526020016003820160009054906101000a900460ff1660018111156108b8576108b7611bd0565b5b60018111156108ca576108c9611bd0565b5b81525050815260200190600101906107ba565b50505050905090565b60606003805480602002602001604051908101604052809291908181526020016000905b82821015610ac0578382906000526020600020906004020160405180608001604052908160008201805461093d9061207e565b80601f01602080910402602001604051908101604052809291908181526020018280546109699061207e565b80156109b65780601f1061098b576101008083540402835291602001916109b6565b820191906000526020600020905b81548152906001019060200180831161099957829003601f168201915b505050505081526020016001820180546109cf9061207e565b80601f01602080910402602001604051908101604052809291908181526020018280546109fb9061207e565b8015610a485780601f10610a1d57610100808354040283529160200191610a48565b820191906000526020600020905b815481529060010190602001808311610a2b57829003601f168201915b50505050508152602001600282015481526020016003820160009054906101000a900473ffffffffffffffffffffffffffffffffffffffff1673ffffffffffffffffffffffffffffffffffffffff1673ffffffffffffffffffffffffffffffffffffffff16815250508152602001906001019061090a565b50505050905090565b8373ffffffffffffffffffffffffffffffffffffffff163373ffffffffffffffffffffffffffffffffffffffff161415610b0257600080fd5b600160009054906101000a900473ffffffffffffffffffffffffffffffffffffffff1673ffffffffffffffffffffffffffffffffffffffff168473ffffffffffffffffffffffffffffffffffffffff161415610b5d57600080fd5b60006001811115610b7157610b70611bd0565b5b816001811115610b8457610b83611bd0565b5b1480610bb35750600180811115610b9e57610b9d611bd0565b5b816001811115610bb157610bb0611bd0565b5b145b610bf2576040517f08c379a0000000000000000000000000000000000000000000000000000000008152600401610be9906121a7565b60405180910390fd5b6000839050600080806001811115610c0d57610c0c611bd0565b5b846001811115610c2057610c1f611bd0565b5b1415610faf5760001515600860008973ffffffffffffffffffffffffffffffffffffffff1673ffffffffffffffffffffffffffffffffffffffff1681526020019081526020016000206000878152602001908152602001600020600080815260200190815260200160002060009054906101000a900460ff16151514610ca557600080fd5b6001600860008973ffffffffffffffffffffffffffffffffffffffff1673ffffffffffffffffffffffffffffffffffffffff1681526020019081526020016000206000878152602001908152602001600020600080815260200190815260200160002060006101000a81548160ff0219169083151502179055508273ffffffffffffffffffffffffffffffffffffffff1663a87b5090866040518263ffffffff1660e01b8152600401610d589190611b89565b602060405180830381865afa158015610d75573d6000803e3d6000fd5b505050506040513d601f19601f82011682018060405250810190610d9991906121dc565b905080341015610da857600080fd5b8673ffffffffffffffffffffffffffffffffffffffff1681604051610dcc9061223a565b60006040518083038185875af1925050503d8060008114610e09576040519150601f19603f3d011682016040523d82523d6000602084013e610e0e565b606091505b5050809250506001151582151514610e2957610e2861224f565b5b600460405180608001604052808973ffffffffffffffffffffffffffffffffffffffff1681526020018873ffffffffffffffffffffffffffffffffffffffff16815260200187815260200160006001811115610e8857610e87611bd0565b5b815250908060018154018082558091505060019003906000526020600020906004020160009091909190915060008201518160000160006101000a81548173ffffffffffffffffffffffffffffffffffffffff021916908373ffffffffffffffffffffffffffffffffffffffff16021790555060208201518160010160006101000a81548173ffffffffffffffffffffffffffffffffffffffff021916908373ffffffffffffffffffffffffffffffffffffffff1602179055506040820151816002015560608201518160030160006101000a81548160ff02191690836001811115610f7757610f76611bd0565b5b021790555050507f6a07c98445bb3cfb4efcf8f19262792acb7626d174697316978caafa1b742d5a60405160405180910390a161135e565b600180811115610fc257610fc1611bd0565b5b846001811115610fd557610fd4611bd0565b5b141561135d5760001515600860008973ffffffffffffffffffffffffffffffffffffffff1673ffffffffffffffffffffffffffffffffffffffff168152602001908152602001600020600087815260200190815260200160002060006001815260200190815260200160002060009054906101000a900460ff1615151461105b57600080fd5b6001600860008973ffffffffffffffffffffffffffffffffffffffff1673ffffffffffffffffffffffffffffffffffffffff168152602001908152602001600020600087815260200190815260200160002060006001815260200190815260200160002060006101000a81548160ff0219169083151502179055508273ffffffffffffffffffffffffffffffffffffffff1663711a5902866040518263ffffffff1660e01b815260040161110f9190611b89565b602060405180830381865afa15801561112c573d6000803e3d6000fd5b505050506040513d601f19601f8201168201806040525081019061115091906121dc565b90508034101561115f57600080fd5b8673ffffffffffffffffffffffffffffffffffffffff16816040516111839061223a565b60006040518083038185875af1925050503d80600081146111c0576040519150601f19603f3d011682016040523d82523d6000602084013e6111c5565b606091505b50508092505060011515821515146111dc57600080fd5b600460405180608001604052808973ffffffffffffffffffffffffffffffffffffffff1681526020018873ffffffffffffffffffffffffffffffffffffffff16815260200187815260200160018081111561123a57611239611bd0565b5b815250908060018154018082558091505060019003906000526020600020906004020160009091909190915060008201518160000160006101000a81548173ffffffffffffffffffffffffffffffffffffffff021916908373ffffffffffffffffffffffffffffffffffffffff16021790555060208201518160010160006101000a81548173ffffffffffffffffffffffffffffffffffffffff021916908373ffffffffffffffffffffffffffffffffffffffff1602179055506040820151816002015560608201518160030160006101000a81548160ff0219169083600181111561132957611328611bd0565b5b021790555050507f6a07c98445bb3cfb4efcf8f19262792acb7626d174697316978caafa1b742d5a60405160405180910390a15b5b50505050505050565b6004818154811061137757600080fd5b90600052602060002090600402016000915090508060000160009054906101000a900473ffffffffffffffffffffffffffffffffffffffff16908060010160009054906101000a900473ffffffffffffffffffffffffffffffffffffffff16908060020154908060030160009054906101000a900460ff16905084565b6003818154811061140457600080fd5b90600052602060002090600402016000915090508060000180546114279061207e565b80601f01602080910402602001604051908101604052809291908181526020018280546114539061207e565b80156114a05780601f10611475576101008083540402835291602001916114a0565b820191906000526020600020905b81548152906001019060200180831161148357829003601f168201915b5050505050908060010180546114b59061207e565b80601f01602080910402602001604051908101604052809291908181526020018280546114e19061207e565b801561152e5780601f106115035761010080835404028352916020019161152e565b820191906000526020600020905b81548152906001019060200180831161151157829003601f168201915b5050505050908060020154908060030160009054906101000a900473ffffffffffffffffffffffffffffffffffffffff16905084565b600060066000838152602001908152602001600020549050919050565b600160009054906101000a900473ffffffffffffffffffffffffffffffffffffffff1673ffffffffffffffffffffffffffffffffffffffff163373ffffffffffffffffffffffffffffffffffffffff16146115db57600080fd5b8060066000848152602001908152602001600020819055505050565b600160009054906101000a900473ffffffffffffffffffffffffffffffffffffffff1673ffffffffffffffffffffffffffffffffffffffff163373ffffffffffffffffffffffffffffffffffffffff161461165157600080fd5b8060076000848152602001908152602001600020819055505050565b6040518060800160405280606081526020016060815260200160008152602001600073ffffffffffffffffffffffffffffffffffffffff1681525090565b8280546116b79061207e565b90600052602060002090601f0160209004810192826116d95760008555611720565b82601f106116f257805160ff1916838001178555611720565b82800160010185558215611720579182015b8281111561171f578251825591602001919060010190611704565b5b50905061172d9190611731565b5090565b5b8082111561174a576000816000905550600101611732565b5090565b600081519050919050565b600082825260208201905092915050565b60005b8381101561178857808201518184015260208101905061176d565b83811115611797576000848401525b50505050565b6000601f19601f8301169050919050565b60006117b98261174e565b6117c38185611759565b93506117d381856020860161176a565b6117dc8161179d565b840191505092915050565b6000602082019050818103600083015261180181846117ae565b905092915050565b6000604051905090565b600080fd5b600080fd5b6000819050919050565b6118308161181d565b811461183b57600080fd5b50565b60008135905061184d81611827565b92915050565b60006020828403121561186957611868611813565b5b60006118778482850161183e565b91505092915050565b600082825260208201905092915050565b600061189c8261174e565b6118a68185611880565b93506118b681856020860161176a565b6118bf8161179d565b840191505092915050565b6118d38161181d565b82525050565b600073ffffffffffffffffffffffffffffffffffffffff82169050919050565b6000611904826118d9565b9050919050565b611914816118f9565b82525050565b600060808301600083015184820360008601526119378282611891565b915050602083015184820360208601526119518282611891565b915050604083015161196660408601826118ca565b506060830151611979606086018261190b565b508091505092915050565b6000602082019050818103600083015261199e818461191a565b905092915050565b600080fd5b600080fd5b7f4e487b7100000000000000000000000000000000000000000000000000000000600052604160045260246000fd5b6119e88261179d565b810181811067ffffffffffffffff82111715611a0757611a066119b0565b5b80604052505050565b6000611a1a611809565b9050611a2682826119df565b919050565b600067ffffffffffffffff821115611a4657611a456119b0565b5b611a4f8261179d565b9050602081019050919050565b82818337600083830152505050565b6000611a7e611a7984611a2b565b611a10565b905082815260208101848484011115611a9a57611a996119ab565b5b611aa5848285611a5c565b509392505050565b600082601f830112611ac257611ac16119a6565b5b8135611ad2848260208601611a6b565b91505092915050565b60008060008060808587031215611af557611af4611813565b5b600085013567ffffffffffffffff811115611b1357611b12611818565b5b611b1f87828801611aad565b945050602085013567ffffffffffffffff811115611b4057611b3f611818565b5b611b4c87828801611aad565b9350506040611b5d8782880161183e565b9250506060611b6e8782880161183e565b91505092959194509250565b611b838161181d565b82525050565b6000602082019050611b9e6000830184611b7a565b92915050565b600081519050919050565b600082825260208201905092915050565b6000819050602082019050919050565b7f4e487b7100000000000000000000000000000000000000000000000000000000600052602160045260246000fd5b60028110611c1057611c0f611bd0565b5b50565b6000819050611c2182611bff565b919050565b6000611c3182611c13565b9050919050565b611c4181611c26565b82525050565b608082016000820151611c5d600085018261190b565b506020820151611c70602085018261190b565b506040820151611c8360408501826118ca565b506060820151611c966060850182611c38565b50505050565b6000611ca88383611c47565b60808301905092915050565b6000602082019050919050565b6000611ccc82611ba4565b611cd68185611baf565b9350611ce183611bc0565b8060005b83811015611d12578151611cf98882611c9c565b9750611d0483611cb4565b925050600181019050611ce5565b5085935050505092915050565b60006020820190508181036000830152611d398184611cc1565b905092915050565b600081519050919050565b600082825260208201905092915050565b6000819050602082019050919050565b60006080830160008301518482036000860152611d8a8282611891565b91505060208301518482036020860152611da48282611891565b9150506040830151611db960408601826118ca565b506060830151611dcc606086018261190b565b508091505092915050565b6000611de38383611d6d565b905092915050565b6000602082019050919050565b6000611e0382611d41565b611e0d8185611d4c565b935083602082028501611e1f85611d5d565b8060005b85811015611e5b5784840389528151611e3c8582611dd7565b9450611e4783611deb565b925060208a01995050600181019050611e23565b50829750879550505050505092915050565b60006020820190508181036000830152611e878184611df8565b905092915050565b6000611e9a826118d9565b9050919050565b611eaa81611e8f565b8114611eb557600080fd5b50565b600081359050611ec781611ea1565b92915050565b60028110611eda57600080fd5b50565b600081359050611eec81611ecd565b92915050565b60008060008060808587031215611f0c57611f0b611813565b5b6000611f1a87828801611eb8565b9450506020611f2b87828801611eb8565b9350506040611f3c8782880161183e565b9250506060611f4d87828801611edd565b91505092959194509250565b611f62816118f9565b82525050565b611f7181611c26565b82525050565b6000608082019050611f8c6000830187611f59565b611f996020830186611f59565b611fa66040830185611b7a565b611fb36060830184611f68565b95945050505050565b60006080820190508181036000830152611fd681876117ae565b90508181036020830152611fea81866117ae565b9050611ff96040830185611b7a565b6120066060830184611f59565b95945050505050565b6000806040838503121561202657612025611813565b5b60006120348582860161183e565b92505060206120458582860161183e565b9150509250929050565b7f4e487b7100000000000000000000000000000000000000000000000000000000600052602260045260246000fd5b6000600282049050600182168061209657607f821691505b602082108114156120aa576120a961204f565b5b50919050565b7f4e487b7100000000000000000000000000000000000000000000000000000000600052601160045260246000fd5b60006120ea8261181d565b91506120f58361181d565b9250827fffffffffffffffffffffffffffffffffffffffffffffffffffffffffffffffff0382111561212a576121296120b0565b5b828201905092915050565b7f456e74657220612076616c6964204c6963656e736554797065202830206f722060008201527f3129000000000000000000000000000000000000000000000000000000000000602082015250565b6000612191602283611759565b915061219c82612135565b604082019050919050565b600060208201905081810360008301526121c081612184565b9050919050565b6000815190506121d681611827565b92915050565b6000602082840312156121f2576121f1611813565b5b6000612200848285016121c7565b91505092915050565b600081905092915050565b50565b6000612224600083612209565b915061222f82612214565b600082019050919050565b600061224582612217565b9150819050919050565b7f4e487b7100000000000000000000000000000000000000000000000000000000600052600160045260246000fdfea2646970667358221220ca372a3acfb92b32a041277b5277509054c172bdbb8fb155263df82dd70d990a64736f6c634300080a0033",
  "immutableReferences": {},
  "source": "// SPDX-License-Identifier: MIT\npragma solidity 0.8.10;\n\n/// @title A contract that stores all data about the Producer\n/// @author Anthony Khoshrozeh\n/// @notice This contract can be updated to represent a Producer's own tracks and licensed tracks\ncontract Producer {\n    string prodName;\n    address payable owner;\n    uint idCounter; \n\n    /// @notice An array that contains all the Producer's tracks\n    Track[] public tracks;\n\n    /// @notice An array that contains all track licenses purchased by the Producer\n    LicensedTrack[] public licensedTracks;\n\n    mapping (uint => Track) idToTrack;\n\n    // maps track id to exclusive license price\n    mapping (uint => uint) excluPrice; \n    // maps track id to nonExclusive license price\n    mapping (uint => uint) nonExcluPrice;\n\n    // checks if Producer already has a license to a certain track\n    mapping (address => mapping (uint => mapping (uint => bool))) private alreadyBought;\n    \n    enum LicenseType {Exclusive, NonExclusive}\n\n\n    /// @notice An event for when a license is purchased by a Producer \n    event LicenseBought();\n\n    struct Track {\n        string name;\n        string CID;\n        uint trackID;\n        address trackOwner;\n    }\n\n    /// @custom This trackID refers to the trackID from the 'owner'\n    struct LicensedTrack {\n        address owner;\n        address owningContract;\n        uint trackID;\n        LicenseType license;\n    }\n\n    /// @notice Fallback function that reverts the txn\n    fallback() external payable {\n        revert();\n    }\n\n    /// @notice Receive function that reverts the txn; used as a fallback function\n    receive() external payable {\n        revert();\n    }\n    \n    modifier isOwner() {\n        require(msg.sender == owner);\n        _;\n    }\n    \n    /// @notice The _owner parameter is the account who called 'createProducer' in ProducerFactory.sol\n    /// @param _prodName The name of the producer; the artist name\n    /// @param _owner The EOA address of the owner of this contract;\n    constructor(string memory _prodName, address payable _owner) {\n        idCounter = 0;\n        prodName = _prodName;\n        owner = _owner;\n\n    }\n\n    /// @return Returns the producer's name of this contract\n    function getName() public view returns(string memory) {\n        return prodName;\n    }\n\n    /// @param _trackID Used to determine which track to update its price\n    /// @param _price The price in Wei for an exclusive license of the track\n    /// @notice Sets the price for an exclusive license of a track\n    function setExclusivePrice(uint _trackID, uint _price) public isOwner {\n        excluPrice[_trackID] = _price;\n    }\n\n    /// @param _trackID Used to determine which track to update its price\n    /// @param _price The price in Wei for a non-exclusive license of the track\n    /// @notice Sets the price for a non-exclusive license of a track\n    function setNonExclusivePrice(uint _trackID, uint _price) public isOwner {\n        nonExcluPrice[_trackID] = _price;\n    }\n\n    /// @param _trackID Unique Id used to select the track\n    /// @return The exclusive license price for that track\n    function getExclusivePrice(uint _trackID) public view returns(uint) {\n        return excluPrice[_trackID];\n    }\n\n    /// @param _trackID Unique Id used to select the track\n    /// @return The non-exclusive license price for that track\n    function getNonExclusivePrice(uint _trackID) public view returns(uint) {\n        return nonExcluPrice[_trackID];\n    }\n\n    /// @param _name The name of the track\n    /// @param _CID The IPFS CID of the file of the track; this is created by user separately from the app\n    /// @param _excluPrice The price of the an exclusive license in Wei\n    /// @param _nonExcluPrice The price of the a non-exclusive license in Wei\n    /// @notice Creates the track object and stores it in the contract's storage; unique id is set for it and updated\n    function createTrack(string memory _name, string memory _CID, uint _excluPrice, uint _nonExcluPrice) public isOwner {\n        Track memory t = Track(_name, _CID, idCounter, msg.sender);\n        setExclusivePrice(idCounter, _excluPrice);\n        setNonExclusivePrice(idCounter, _nonExcluPrice);\n        idToTrack[idCounter] = t;\n        tracks.push(t);\n        idCounter += 1;\n    }\n\n    /// @param _owner The address of the owner of the contract that stores the desired track (owner of _contract)\n    /// @param _contract The contract address of the contract that stores the desired track\n    /// @param _trackID The unique ID of the desired track \n    /// @param _licenseType Specifies the type of license to buy\n    /// @notice Buys a license for a track\n    /// @dev _trackID is for the desired track w.r.t. it's own contract, not the contract buying of license for it\n    function buyLicense(address payable _owner, address payable _contract,  uint _trackID, LicenseType _licenseType) \n        public payable {\n        \n        require(msg.sender != _owner);\n        require(_owner != owner);\n        require((_licenseType == LicenseType.Exclusive || _licenseType == LicenseType.NonExclusive),\n         \"Enter a valid LicenseType (0 or 1)\");\n\n\n        Producer seller = Producer(_contract);\n        bool sent = false;\n        uint _price;\n\n        if (_licenseType == LicenseType.Exclusive) {\n            require(alreadyBought[_owner][_trackID][0] == false);\n            alreadyBought[_owner][_trackID][0] = true;\n            _price = seller.getExclusivePrice(_trackID);\n            require(msg.value >= _price);\n            (sent, ) = _owner.call{value: _price}(\"\");\n            assert(sent == true);\n            licensedTracks.push(LicensedTrack(_owner, _contract, _trackID,  LicenseType.Exclusive));\n            emit LicenseBought();\n        }\n\n        else if (_licenseType == LicenseType.NonExclusive) {\n            require(alreadyBought[_owner][_trackID][1] == false);\n            alreadyBought[_owner][_trackID][1] = true;\n            _price = seller.getNonExclusivePrice(_trackID);\n            require(msg.value >= _price);\n            (sent, ) = _owner.call{value: _price}(\"\");\n            require(sent == true);\n            licensedTracks.push(LicensedTrack(_owner, _contract, _trackID,  LicenseType.NonExclusive));\n            emit LicenseBought();\n        }\n\n    }\n\n    /// @param _trackID The unique ID of the track\n    /// @return The track object from storage\n    function getTrack(uint _trackID) external view returns(Track memory) {\n        return idToTrack[_trackID];\n    }\n\n    /// @return All tracks created by owner\n    function getTracks() public view returns(Track[] memory) {\n        return tracks;\n    }\n\n    /// @return All tracks the contract owner has bought a license to\n    function getLicensedTracks() public view returns(LicensedTrack[] memory) {\n        return licensedTracks;\n    }\n\n    \n\n    \n}",
  "sourcePath": "/Users/akhoshrozeh/Projects/consensys21/blockchain-developer-bootcamp-final-project/truffle/contracts/Producer.sol",
  "compiler": {
    "name": "solc",
    "version": "0.8.10+commit.fc410830.Emscripten.clang"
  },
  "schemaVersion": "3.4.3",
  "updatedAt": "2022-01-05T16:00:33.074Z",
  "devdoc": {
    "author": "Anthony Khoshrozeh",
    "kind": "dev",
    "methods": {
      "buyLicense(address,address,uint256,uint8)": {
        "details": "_trackID is for the desired track w.r.t. it's own contract, not the contract buying of license for it",
        "params": {
          "_contract": "The contract address of the contract that stores the desired track",
          "_licenseType": "Specifies the type of license to buy",
          "_owner": "The address of the owner of the contract that stores the desired track (owner of _contract)",
          "_trackID": "The unique ID of the desired track "
        }
      },
      "constructor": {
        "params": {
          "_owner": "The EOA address of the owner of this contract;",
          "_prodName": "The name of the producer; the artist name"
        }
      },
      "createTrack(string,string,uint256,uint256)": {
        "params": {
          "_CID": "The IPFS CID of the file of the track; this is created by user separately from the app",
          "_excluPrice": "The price of the an exclusive license in Wei",
          "_name": "The name of the track",
          "_nonExcluPrice": "The price of the a non-exclusive license in Wei"
        }
      },
      "getExclusivePrice(uint256)": {
        "params": {
          "_trackID": "Unique Id used to select the track"
        },
        "returns": {
          "_0": "The exclusive license price for that track"
        }
      },
      "getLicensedTracks()": {
        "returns": {
          "_0": "All tracks the contract owner has bought a license to"
        }
      },
      "getName()": {
        "returns": {
          "_0": "Returns the producer's name of this contract"
        }
      },
      "getNonExclusivePrice(uint256)": {
        "params": {
          "_trackID": "Unique Id used to select the track"
        },
        "returns": {
          "_0": "The non-exclusive license price for that track"
        }
      },
      "getTrack(uint256)": {
        "params": {
          "_trackID": "The unique ID of the track"
        },
        "returns": {
          "_0": "The track object from storage"
        }
      },
      "getTracks()": {
        "returns": {
          "_0": "All tracks created by owner"
        }
      },
      "setExclusivePrice(uint256,uint256)": {
        "params": {
          "_price": "The price in Wei for an exclusive license of the track",
          "_trackID": "Used to determine which track to update its price"
        }
      },
      "setNonExclusivePrice(uint256,uint256)": {
        "params": {
          "_price": "The price in Wei for a non-exclusive license of the track",
          "_trackID": "Used to determine which track to update its price"
        }
      }
    },
    "title": "A contract that stores all data about the Producer",
    "version": 1
  },
  "userdoc": {
    "events": {
      "LicenseBought()": {
        "notice": "An event for when a license is purchased by a Producer "
      }
    },
    "kind": "user",
    "methods": {
      "buyLicense(address,address,uint256,uint8)": {
        "notice": "Buys a license for a track"
      },
      "constructor": {
        "notice": "The _owner parameter is the account who called 'createProducer' in ProducerFactory.sol"
      },
      "createTrack(string,string,uint256,uint256)": {
        "notice": "Creates the track object and stores it in the contract's storage; unique id is set for it and updated"
      },
      "licensedTracks(uint256)": {
        "notice": "An array that contains all track licenses purchased by the Producer"
      },
      "setExclusivePrice(uint256,uint256)": {
        "notice": "Sets the price for an exclusive license of a track"
      },
      "setNonExclusivePrice(uint256,uint256)": {
        "notice": "Sets the price for a non-exclusive license of a track"
      },
      "tracks(uint256)": {
        "notice": "An array that contains all the Producer's tracks"
      }
    },
    "notice": "This contract can be updated to represent a Producer's own tracks and licensed tracks",
    "version": 1
  }
}