{
  "contractName": "ArtistFactory",
  "abi": [
    {
      "inputs": [],
      "payable": false,
      "stateMutability": "nonpayable",
      "type": "constructor"
    },
    {
      "constant": true,
      "inputs": [
        {
          "internalType": "uint256",
          "name": "",
          "type": "uint256"
        }
      ],
      "name": "artists",
      "outputs": [
        {
          "internalType": "contract Artist",
          "name": "",
          "type": "address"
        }
      ],
      "payable": false,
      "stateMutability": "view",
      "type": "function"
    },
    {
      "constant": true,
      "inputs": [],
      "name": "idCounter",
      "outputs": [
        {
          "internalType": "uint256",
          "name": "",
          "type": "uint256"
        }
      ],
      "payable": false,
      "stateMutability": "view",
      "type": "function"
    },
    {
      "constant": false,
      "inputs": [
        {
          "internalType": "string",
          "name": "_name",
          "type": "string"
        }
      ],
      "name": "createArtist",
      "outputs": [],
      "payable": false,
      "stateMutability": "nonpayable",
      "type": "function"
    },
    {
      "constant": true,
      "inputs": [],
      "name": "getAllArtists",
      "outputs": [
        {
          "internalType": "contract Artist[]",
          "name": "",
          "type": "address[]"
        }
      ],
      "payable": false,
      "stateMutability": "view",
      "type": "function"
    }
  ],
  "bytecode": "0x608060405234801561001057600080fd5b506000600181905550611915806100286000396000f3fe608060405234801561001057600080fd5b506004361061004c5760003560e01c8063cd7e10c114610051578063e0896903146100bf578063eb08ab281461017a578063f803ace314610198575b600080fd5b61007d6004803603602081101561006757600080fd5b81019080803590602001909291905050506101f7565b604051808273ffffffffffffffffffffffffffffffffffffffff1673ffffffffffffffffffffffffffffffffffffffff16815260200191505060405180910390f35b610178600480360360208110156100d557600080fd5b81019080803590602001906401000000008111156100f257600080fd5b82018360208201111561010457600080fd5b8035906020019184600183028401116401000000008311171561012657600080fd5b91908080601f016020809104026020016040519081016040528093929190818152602001838380828437600081840152601f19601f820116905080830192505050505050509192919290505050610233565b005b610182610388565b6040518082815260200191505060405180910390f35b6101a061038e565b6040518080602001828103825283818151815260200191508051906020019060200280838360005b838110156101e35780820151818401526020810190506101c8565b505050509050019250505060405180910390f35b6000818154811061020457fe5b906000526020600020016000915054906101000a900473ffffffffffffffffffffffffffffffffffffffff1681565b600033600154836040516102469061041c565b808473ffffffffffffffffffffffffffffffffffffffff1673ffffffffffffffffffffffffffffffffffffffff16815260200183815260200180602001828103825283818151815260200191508051906020019080838360005b838110156102bb5780820151818401526020810190506102a0565b50505050905090810190601f1680156102e85780820380516001836020036101000a031916815260200191505b50945050505050604051809103906000f08015801561030b573d6000803e3d6000fd5b50905060008190806001815401808255809150509060018203906000526020600020016000909192909190916101000a81548173ffffffffffffffffffffffffffffffffffffffff021916908373ffffffffffffffffffffffffffffffffffffffff16021790555050600180600082825401925050819055505050565b60015481565b6060600080548060200260200160405190810160405280929190818152602001828054801561041257602002820191906000526020600020905b8160009054906101000a900473ffffffffffffffffffffffffffffffffffffffff1673ffffffffffffffffffffffffffffffffffffffff16815260200190600101908083116103c8575b5050505050905090565b6114b78061042a8339019056fe60806040523480156200001157600080fd5b50604051620014b7380380620014b78339818101604052620000379190810190620001e2565b600060068190555082600160006101000a81548173ffffffffffffffffffffffffffffffffffffffff021916908373ffffffffffffffffffffffffffffffffffffffff1602179055508160008190555080600290805190602001906200009f929190620000a9565b5050505062000354565b828054600181600116156101000203166002900490600052602060002090601f016020900481019282601f10620000ec57805160ff19168380011785556200011d565b828001600101855582156200011d579182015b828111156200011c578251825591602001919060010190620000ff565b5b5090506200012c919062000130565b5090565b6200015591905b808211156200015157600081600090555060010162000137565b5090565b90565b600081519050620001698162000320565b92915050565b600082601f8301126200018157600080fd5b81516200019862000192826200027f565b62000251565b91508082526020830160208301858383011115620001b557600080fd5b620001c2838284620002ea565b50505092915050565b600081519050620001dc816200033a565b92915050565b600080600060608486031215620001f857600080fd5b6000620002088682870162000158565b93505060206200021b86828701620001cb565b925050604084015167ffffffffffffffff8111156200023957600080fd5b62000247868287016200016f565b9150509250925092565b6000604051905081810181811067ffffffffffffffff821117156200027557600080fd5b8060405250919050565b600067ffffffffffffffff8211156200029757600080fd5b601f19601f8301169050602081019050919050565b6000620002b982620002c0565b9050919050565b600073ffffffffffffffffffffffffffffffffffffffff82169050919050565b6000819050919050565b60005b838110156200030a578082015181840152602081019050620002ed565b838111156200031a576000848401525b50505050565b6200032b81620002ac565b81146200033757600080fd5b50565b6200034581620002e0565b81146200035157600080fd5b50565b61115380620003646000396000f3fe60806040526004361061007b5760003560e01c80639ecf456d1161004e5780639ecf456d1461011d578063d019db7014610146578063ddfe2b4614610171578063f0772377146101b15761007b565b806306fdde03146100805780634071909b146100ab57806360c4cfd1146100c75780638da5cb5b146100f2575b600080fd5b34801561008c57600080fd5b506100956101f1565b6040516100a29190610e5e565b60405180910390f35b6100c560048036036100c09190810190610bb0565b61028f565b005b3480156100d357600080fd5b506100dc610322565b6040516100e99190610e80565b60405180910390f35b3480156100fe57600080fd5b50610107610328565b6040516101149190610e21565b60405180910390f35b34801561012957600080fd5b50610144600480360361013f9190810190610b09565b61034e565b005b34801561015257600080fd5b5061015b610551565b6040516101689190610e3c565b60405180910390f35b34801561017d57600080fd5b5061019860048036036101939190810190610bb0565b6106eb565b6040516101a89493929190610e9b565b60405180910390f35b3480156101bd57600080fd5b506101d860048036036101d39190810190610bb0565b6107c0565b6040516101e89493929190610e9b565b60405180910390f35b60028054600181600116156101000203166002900480601f0160208091040260200160405190810160405280929190818152602001828054600181600116156101000203166002900480156102875780601f1061025c57610100808354040283529160200191610287565b820191906000526020600020905b81548152906001019060200180831161026a57829003601f168201915b505050505081565b348160046000828152602001908152602001600020600401548210156102b457600080fd5b600160009054906101000a900473ffffffffffffffffffffffffffffffffffffffff1673ffffffffffffffffffffffffffffffffffffffff166108fc349081150290604051600060405180830381858888f1935050505015801561031c573d6000803e3d6000fd5b50505050565b60005481565b600160009054906101000a900473ffffffffffffffffffffffffffffffffffffffff1681565b600160009054906101000a900473ffffffffffffffffffffffffffffffffffffffff1673ffffffffffffffffffffffffffffffffffffffff163373ffffffffffffffffffffffffffffffffffffffff16146103a857600080fd5b6103b06108a2565b6040518060a0016040528060065481526020018781526020018681526020018560028111156103db57fe5b81526020018481525090506003819080600181540180825580915050906001820390600052602060002090600502016000909192909190915060008201518160000155602082015181600101908051906020019061043a9291906108dc565b506040820151816002019080519060200190610457929190610929565b5060608201518160030160006101000a81548160ff0219169083600281111561047c57fe5b021790555060808201518160040155505050806004600060065481526020019081526020016000206000820151816000015560208201518160010190805190602001906104ca9291906108dc565b5060408201518160020190805190602001906104e7929190610929565b5060608201518160030160006101000a81548160ff0219169083600281111561050c57fe5b02179055506080820151816004015590505081600560006006548152602001908152602001600020819055506001600660008282540192505081905550505050505050565b60606003805480602002602001604051908101604052809291908181526020016000905b828210156106e257838290600052602060002090600502016040518060a001604052908160008201548152602001600182018054806020026020016040519081016040528092919081815260200182805480156105f157602002820191906000526020600020905b8154815260200190600101908083116105dd575b50505050508152602001600282018054600181600116156101000203166002900480601f0160208091040260200160405190810160405280929190818152602001828054600181600116156101000203166002900480156106935780601f1061066857610100808354040283529160200191610693565b820191906000526020600020905b81548152906001019060200180831161067657829003601f168201915b505050505081526020016003820160009054906101000a900460ff1660028111156106ba57fe5b60028111156106c557fe5b815260200160048201548152505081526020019060010190610575565b50505050905090565b6004602052806000526040600020600091509050806000015490806002018054600181600116156101000203166002900480601f01602080910402602001604051908101604052809291908181526020018280546001816001161561010002031660029004801561079d5780601f106107725761010080835404028352916020019161079d565b820191906000526020600020905b81548152906001019060200180831161078057829003601f168201915b5050505050908060030160009054906101000a900460ff16908060040154905084565b600381815481106107cd57fe5b9060005260206000209060050201600091509050806000015490806002018054600181600116156101000203166002900480601f01602080910402602001604051908101604052809291908181526020018280546001816001161561010002031660029004801561087f5780601f106108545761010080835404028352916020019161087f565b820191906000526020600020905b81548152906001019060200180831161086257829003601f168201915b5050505050908060030160009054906101000a900460ff16908060040154905084565b6040518060a00160405280600081526020016060815260200160608152602001600060028111156108cf57fe5b8152602001600081525090565b828054828255906000526020600020908101928215610918579160200282015b828111156109175782518255916020019190600101906108fc565b5b50905061092591906109a9565b5090565b828054600181600116156101000203166002900490600052602060002090601f016020900481019282601f1061096a57805160ff1916838001178555610998565b82800160010185558215610998579182015b8281111561099757825182559160200191906001019061097c565b5b5090506109a591906109ce565b5090565b6109cb91905b808211156109c75760008160009055506001016109af565b5090565b90565b6109f091905b808211156109ec5760008160009055506001016109d4565b5090565b90565b600082601f830112610a0457600080fd5b8135610a17610a1282610f14565b610ee7565b91508181835260208401935060208101905083856020840282011115610a3c57600080fd5b60005b83811015610a6c5781610a528882610a76565b845260208401935060208301925050600181019050610a3f565b5050505092915050565b600081359050610a85816110d2565b92915050565b600081359050610a9a816110e9565b92915050565b600082601f830112610ab157600080fd5b8135610ac4610abf82610f3c565b610ee7565b91508082526020830160208301858383011115610ae057600080fd5b610aeb838284611072565b50505092915050565b600081359050610b03816110f9565b92915050565b600080600080600060a08688031215610b2157600080fd5b600086013567ffffffffffffffff811115610b3b57600080fd5b610b47888289016109f3565b955050602086013567ffffffffffffffff811115610b6457600080fd5b610b7088828901610aa0565b9450506040610b8188828901610a8b565b9350506060610b9288828901610af4565b9250506080610ba388828901610af4565b9150509295509295909350565b600060208284031215610bc257600080fd5b6000610bd084828501610af4565b91505092915050565b6000610be58383610ce7565b60208301905092915050565b6000610bfd8383610d86565b905092915050565b610c0e81611007565b82525050565b6000610c1f82610f88565b610c298185610fc3565b9350610c3483610f68565b8060005b83811015610c65578151610c4c8882610bd9565b9750610c5783610fa9565b925050600181019050610c38565b5085935050505092915050565b6000610c7d82610f93565b610c878185610fd4565b935083602082028501610c9985610f78565b8060005b85811015610cd55784840389528151610cb68582610bf1565b9450610cc183610fb6565b925060208a01995050600181019050610c9d565b50829750879550505050505092915050565b610cf081611019565b82525050565b610cff81611060565b82525050565b610d0e81611060565b82525050565b6000610d1f82610f9e565b610d298185610fe5565b9350610d39818560208601611081565b610d42816110b4565b840191505092915050565b6000610d5882610f9e565b610d628185610ff6565b9350610d72818560208601611081565b610d7b816110b4565b840191505092915050565b600060a083016000830151610d9e6000860182610e03565b5060208301518482036020860152610db68282610c14565b91505060408301518482036040860152610dd08282610d14565b9150506060830151610de56060860182610cf6565b506080830151610df86080860182610e03565b508091505092915050565b610e0c81611056565b82525050565b610e1b81611056565b82525050565b6000602082019050610e366000830184610c05565b92915050565b60006020820190508181036000830152610e568184610c72565b905092915050565b60006020820190508181036000830152610e788184610d4d565b905092915050565b6000602082019050610e956000830184610e12565b92915050565b6000608082019050610eb06000830187610e12565b8181036020830152610ec28186610d4d565b9050610ed16040830185610d05565b610ede6060830184610e12565b95945050505050565b6000604051905081810181811067ffffffffffffffff82111715610f0a57600080fd5b8060405250919050565b600067ffffffffffffffff821115610f2b57600080fd5b602082029050602081019050919050565b600067ffffffffffffffff821115610f5357600080fd5b601f19601f8301169050602081019050919050565b6000819050602082019050919050565b6000819050602082019050919050565b600081519050919050565b600081519050919050565b600081519050919050565b6000602082019050919050565b6000602082019050919050565b600082825260208201905092915050565b600082825260208201905092915050565b600082825260208201905092915050565b600082825260208201905092915050565b600061101282611036565b9050919050565b6000819050919050565b6000819050611031826110c5565b919050565b600073ffffffffffffffffffffffffffffffffffffffff82169050919050565b6000819050919050565b600061106b82611023565b9050919050565b82818337600083830152505050565b60005b8381101561109f578082015181840152602081019050611084565b838111156110ae576000848401525b50505050565b6000601f19601f8301169050919050565b600381106110cf57fe5b50565b6110db81611019565b81146110e657600080fd5b50565b600381106110f657600080fd5b50565b61110281611056565b811461110d57600080fd5b5056fea365627a7a723158205426690e92a27ee12f54d8e384ca9c9d8abcfc452c173a3e1c6ad27aedbd2cf76c6578706572696d656e74616cf564736f6c63430005100040a265627a7a72315820de36d1c2c20c086dc9fb5a1426dd36c45d190c364a567201ad314127784ecc0964736f6c63430005100032",
  "source": "pragma solidity >=0.5.16 <0.9.0;\nimport './Artist.sol';\ncontract ArtistFactory {\n    // mapping (address => uint) public ownerToArtist;\n    Artist [] public artists;\n    uint public idCounter;\n\n    constructor() public {\n        idCounter = 0;\n    }\n\n    function createArtist(string memory _name) public {\n        Artist a = new Artist(msg.sender, idCounter, _name);\n        // artistIDs[msg.sender] = idCounter;\n        artists.push(a);\n        idCounter += 1;\n    }\n\n    // We will use this function to search for artists in the browser\n    function getAllArtists() public view returns(Artist[] memory) {\n        return artists;\n    }\n}",
  "sourcePath": "/Users/akhoshrozeh/Projects/consensys21/blockchain-developer-bootcamp-final-project/truffle/contracts/ArtistFactory.sol",
  "compiler": {
    "name": "solc",
    "version": "0.5.16+commit.9c3226ce.Emscripten.clang"
  },
  "schemaVersion": "3.4.3",
  "updatedAt": "2021-10-28T05:30:18.354Z",
  "devdoc": {
    "methods": {}
  },
  "userdoc": {
    "methods": {}
  }
}