{
  "contractName": "ProducerFactory",
  "abi": [
    {
      "anonymous": false,
      "inputs": [
        {
          "indexed": false,
          "internalType": "address",
          "name": "owner",
          "type": "address"
        }
      ],
      "name": "ProducerCreated",
      "type": "event"
    },
    {
      "inputs": [
        {
          "internalType": "uint256",
          "name": "",
          "type": "uint256"
        }
      ],
      "name": "prodAddresses",
      "outputs": [
        {
          "internalType": "address",
          "name": "",
          "type": "address"
        }
      ],
      "stateMutability": "view",
      "type": "function",
      "constant": true
    },
    {
      "inputs": [
        {
          "internalType": "string",
          "name": "_name",
          "type": "string"
        }
      ],
      "name": "createProducer",
      "outputs": [
        {
          "internalType": "address",
          "name": "",
          "type": "address"
        }
      ],
      "stateMutability": "nonpayable",
      "type": "function"
    },
    {
      "inputs": [],
      "name": "getProducers",
      "outputs": [
        {
          "internalType": "address[]",
          "name": "",
          "type": "address[]"
        }
      ],
      "stateMutability": "view",
      "type": "function",
      "constant": true
    },
    {
      "inputs": [
        {
          "internalType": "address",
          "name": "_prodAddr",
          "type": "address"
        }
      ],
      "name": "getProducer",
      "outputs": [
        {
          "internalType": "contract Producer",
          "name": "",
          "type": "address"
        }
      ],
      "stateMutability": "view",
      "type": "function",
      "constant": true
    },
    {
      "inputs": [
        {
          "internalType": "address",
          "name": "_producer",
          "type": "address"
        }
      ],
      "name": "producerExists",
      "outputs": [
        {
          "internalType": "bool",
          "name": "",
          "type": "bool"
        }
      ],
      "stateMutability": "view",
      "type": "function",
      "constant": true
    },
    {
      "inputs": [
        {
          "internalType": "address",
          "name": "_owner",
          "type": "address"
        }
      ],
      "name": "getOwnersContract",
      "outputs": [
        {
          "internalType": "address",
          "name": "",
          "type": "address"
        }
      ],
      "stateMutability": "view",
      "type": "function",
      "constant": true
    }
  ],
  "bytecode": "0x608060405234801561001057600080fd5b50613411806100206000396000f3fe60806040523480156200001157600080fd5b50600436106200006a5760003560e01c8063aab147b2146200006f578063bf78e36f14620000a5578063d0e2539a14620000db578063e80a7eb91462000111578063e9e797ac1462000133578063ff25058f1462000169575b600080fd5b6200008d600480360381019062000087919062000718565b6200019f565b6040516200009c9190620007b5565b60405180910390f35b620000c36004803603810190620000bd91906200080d565b62000208565b604051620000d2919062000850565b60405180910390f35b620000f96004803603810190620000f39190620009cf565b62000248565b60405162000108919062000850565b60405180910390f35b6200011b62000542565b6040516200012a919062000aee565b60405180910390f35b6200015160048036038101906200014b919062000718565b620005d2565b60405162000160919062000b2f565b60405180910390f35b62000187600480360381019062000181919062000718565b62000628565b60405162000196919062000850565b60405180910390f35b6000600260008373ffffffffffffffffffffffffffffffffffffffff1673ffffffffffffffffffffffffffffffffffffffff16815260200190815260200160002060009054906101000a900473ffffffffffffffffffffffffffffffffffffffff169050919050565b600181815481106200021957600080fd5b906000526020600020016000915054906101000a900473ffffffffffffffffffffffffffffffffffffffff1681565b6000801515600360003373ffffffffffffffffffffffffffffffffffffffff1673ffffffffffffffffffffffffffffffffffffffff16815260200190815260200160002060009054906101000a900460ff16151514620002a757600080fd5b60008233604051620002b99062000691565b620002c692919062000c04565b604051809103906000f080158015620002e3573d6000803e3d6000fd5b50905080600260003373ffffffffffffffffffffffffffffffffffffffff1673ffffffffffffffffffffffffffffffffffffffff16815260200190815260200160002060006101000a81548173ffffffffffffffffffffffffffffffffffffffff021916908373ffffffffffffffffffffffffffffffffffffffff16021790555080600460003373ffffffffffffffffffffffffffffffffffffffff1673ffffffffffffffffffffffffffffffffffffffff16815260200190815260200160002060006101000a81548173ffffffffffffffffffffffffffffffffffffffff021916908373ffffffffffffffffffffffffffffffffffffffff1602179055506001819080600181540180825580915050600190039060005260206000200160009091909190916101000a81548173ffffffffffffffffffffffffffffffffffffffff021916908373ffffffffffffffffffffffffffffffffffffffff1602179055506000819080600181540180825580915050600190039060005260206000200160009091909190916101000a81548173ffffffffffffffffffffffffffffffffffffffff021916908373ffffffffffffffffffffffffffffffffffffffff1602179055506001600360003373ffffffffffffffffffffffffffffffffffffffff1673ffffffffffffffffffffffffffffffffffffffff16815260200190815260200160002060006101000a81548160ff0219169083151502179055507f3dec7531f77a5f3fe7a45c242f2e4e70cfae191f7ee59a4df46ea8e8204ba4c03360405162000531919062000850565b60405180910390a180915050919050565b60606001805480602002602001604051908101604052809291908181526020018280548015620005c857602002820191906000526020600020905b8160009054906101000a900473ffffffffffffffffffffffffffffffffffffffff1673ffffffffffffffffffffffffffffffffffffffff16815260200190600101908083116200057d575b5050505050905090565b6000600360008373ffffffffffffffffffffffffffffffffffffffff1673ffffffffffffffffffffffffffffffffffffffff16815260200190815260200160002060009054906101000a900460ff169050919050565b6000600460008373ffffffffffffffffffffffffffffffffffffffff1673ffffffffffffffffffffffffffffffffffffffff16815260200190815260200160002060009054906101000a900473ffffffffffffffffffffffffffffffffffffffff169050919050565b6127a38062000c3983390190565b6000604051905090565b600080fd5b600080fd5b600073ffffffffffffffffffffffffffffffffffffffff82169050919050565b6000620006e082620006b3565b9050919050565b620006f281620006d3565b8114620006fe57600080fd5b50565b6000813590506200071281620006e7565b92915050565b600060208284031215620007315762000730620006a9565b5b6000620007418482850162000701565b91505092915050565b6000819050919050565b6000620007756200076f6200076984620006b3565b6200074a565b620006b3565b9050919050565b6000620007898262000754565b9050919050565b60006200079d826200077c565b9050919050565b620007af8162000790565b82525050565b6000602082019050620007cc6000830184620007a4565b92915050565b6000819050919050565b620007e781620007d2565b8114620007f357600080fd5b50565b6000813590506200080781620007dc565b92915050565b600060208284031215620008265762000825620006a9565b5b60006200083684828501620007f6565b91505092915050565b6200084a81620006d3565b82525050565b60006020820190506200086760008301846200083f565b92915050565b600080fd5b600080fd5b6000601f19601f8301169050919050565b7f4e487b7100000000000000000000000000000000000000000000000000000000600052604160045260246000fd5b620008c28262000877565b810181811067ffffffffffffffff82111715620008e457620008e362000888565b5b80604052505050565b6000620008f96200069f565b9050620009078282620008b7565b919050565b600067ffffffffffffffff8211156200092a576200092962000888565b5b620009358262000877565b9050602081019050919050565b82818337600083830152505050565b60006200096862000962846200090c565b620008ed565b90508281526020810184848401111562000987576200098662000872565b5b6200099484828562000942565b509392505050565b600082601f830112620009b457620009b36200086d565b5b8135620009c684826020860162000951565b91505092915050565b600060208284031215620009e857620009e7620006a9565b5b600082013567ffffffffffffffff81111562000a095762000a08620006ae565b5b62000a17848285016200099c565b91505092915050565b600081519050919050565b600082825260208201905092915050565b6000819050602082019050919050565b62000a5781620006d3565b82525050565b600062000a6b838362000a4c565b60208301905092915050565b6000602082019050919050565b600062000a918262000a20565b62000a9d818562000a2b565b935062000aaa8362000a3c565b8060005b8381101562000ae157815162000ac5888262000a5d565b975062000ad28362000a77565b92505060018101905062000aae565b5085935050505092915050565b6000602082019050818103600083015262000b0a818462000a84565b905092915050565b60008115159050919050565b62000b298162000b12565b82525050565b600060208201905062000b46600083018462000b1e565b92915050565b600081519050919050565b600082825260208201905092915050565b60005b8381101562000b8857808201518184015260208101905062000b6b565b8381111562000b98576000848401525b50505050565b600062000bab8262000b4c565b62000bb7818562000b57565b935062000bc981856020860162000b68565b62000bd48162000877565b840191505092915050565b600062000bec82620006b3565b9050919050565b62000bfe8162000bdf565b82525050565b6000604082019050818103600083015262000c20818562000b9e565b905062000c31602083018462000bf3565b939250505056fe60806040523480156200001157600080fd5b50604051620027a3380380620027a3833981810160405281019062000037919062000353565b6000600281905550816000908051906020019062000057929190620000a1565b5080600160006101000a81548173ffffffffffffffffffffffffffffffffffffffff021916908373ffffffffffffffffffffffffffffffffffffffff16021790555050506200041e565b828054620000af90620003e8565b90600052602060002090601f016020900481019282620000d357600085556200011f565b82601f10620000ee57805160ff19168380011785556200011f565b828001600101855582156200011f579182015b828111156200011e57825182559160200191906001019062000101565b5b5090506200012e919062000132565b5090565b5b808211156200014d57600081600090555060010162000133565b5090565b6000604051905090565b600080fd5b600080fd5b600080fd5b600080fd5b6000601f19601f8301169050919050565b7f4e487b7100000000000000000000000000000000000000000000000000000000600052604160045260246000fd5b620001ba826200016f565b810181811067ffffffffffffffff82111715620001dc57620001db62000180565b5b80604052505050565b6000620001f162000151565b9050620001ff8282620001af565b919050565b600067ffffffffffffffff82111562000222576200022162000180565b5b6200022d826200016f565b9050602081019050919050565b60005b838110156200025a5780820151818401526020810190506200023d565b838111156200026a576000848401525b50505050565b600062000287620002818462000204565b620001e5565b905082815260208101848484011115620002a657620002a56200016a565b5b620002b38482856200023a565b509392505050565b600082601f830112620002d357620002d262000165565b5b8151620002e584826020860162000270565b91505092915050565b600073ffffffffffffffffffffffffffffffffffffffff82169050919050565b60006200031b82620002ee565b9050919050565b6200032d816200030e565b81146200033957600080fd5b50565b6000815190506200034d8162000322565b92915050565b600080604083850312156200036d576200036c6200015b565b5b600083015167ffffffffffffffff8111156200038e576200038d62000160565b5b6200039c85828601620002bb565b9250506020620003af858286016200033c565b9150509250929050565b7f4e487b7100000000000000000000000000000000000000000000000000000000600052602260045260246000fd5b600060028204905060018216806200040157607f821691505b60208210811415620004185762000417620003b9565b5b50919050565b612375806200042e6000396000f3fe6080604052600436106100a05760003560e01c806387548fcf1161006457806387548fcf146101da5780638a38a8ee14610205578063a2e3458614610221578063a87b509014610261578063add485641461029e578063c5b4c26a146102c7576100aa565b806317d7de7c146100e1578063629058ca1461010c5780636ad6dac214610149578063711a59021461017257806384e7b1ab146101af576100aa565b366100aa57600080fd5b7ff7dfcc0de056dffda39c5baa035d9ce69d9df6db3c2e775c7f46e6e4bde932446040516100d79061175f565b60405180910390a1005b3480156100ed57600080fd5b506100f66102f0565b6040516101039190611807565b60405180910390f35b34801561011857600080fd5b50610133600480360381019061012e9190611873565b610382565b60405161014091906119a4565b60405180910390f35b34801561015557600080fd5b50610170600480360381019061016b9190611afb565b610533565b005b34801561017e57600080fd5b5061019960048036038101906101949190611873565b610760565b6040516101a69190611ba9565b60405180910390f35b3480156101bb57600080fd5b506101c461077d565b6040516101d19190611d3f565b60405180910390f35b3480156101e657600080fd5b506101ef6108cd565b6040516101fc9190611e8d565b60405180910390f35b61021f600480360381019061021a9190611f12565b610ab0565b005b34801561022d57600080fd5b5061024860048036038101906102439190611873565b6113a8565b6040516102589493929190611f88565b60405180910390f35b34801561026d57600080fd5b5061028860048036038101906102839190611873565b611518565b6040516102959190611ba9565b60405180910390f35b3480156102aa57600080fd5b506102c560048036038101906102c09190611fdb565b611535565b005b3480156102d357600080fd5b506102ee60048036038101906102e99190611fdb565b6115ab565b005b6060600080546102ff9061204a565b80601f016020809104026020016040519081016040528092919081815260200182805461032b9061204a565b80156103785780601f1061034d57610100808354040283529160200191610378565b820191906000526020600020905b81548152906001019060200180831161035b57829003601f168201915b5050505050905090565b61038a611621565b600560008381526020019081526020016000206040518060800160405290816000820180546103b89061204a565b80601f01602080910402602001604051908101604052809291908181526020018280546103e49061204a565b80156104315780601f1061040657610100808354040283529160200191610431565b820191906000526020600020905b81548152906001019060200180831161041457829003601f168201915b5050505050815260200160018201805461044a9061204a565b80601f01602080910402602001604051908101604052809291908181526020018280546104769061204a565b80156104c35780601f10610498576101008083540402835291602001916104c3565b820191906000526020600020905b8154815290600101906020018083116104a657829003601f168201915b50505050508152602001600282015481526020016003820160009054906101000a900473ffffffffffffffffffffffffffffffffffffffff1673ffffffffffffffffffffffffffffffffffffffff1673ffffffffffffffffffffffffffffffffffffffff16815250509050919050565b600160009054906101000a900473ffffffffffffffffffffffffffffffffffffffff1673ffffffffffffffffffffffffffffffffffffffff163373ffffffffffffffffffffffffffffffffffffffff161461058d57600080fd5b6000604051806080016040528086815260200185815260200160025481526020013373ffffffffffffffffffffffffffffffffffffffff1681525090506105d660025484611535565b6105e2600254836115ab565b80600560006002548152602001908152602001600020600082015181600001908051906020019061061492919061165f565b50602082015181600101908051906020019061063192919061165f565b506040820151816002015560608201518160030160006101000a81548173ffffffffffffffffffffffffffffffffffffffff021916908373ffffffffffffffffffffffffffffffffffffffff160217905550905050600381908060018154018082558091505060019003906000526020600020906004020160009091909190915060008201518160000190805190602001906106ce92919061165f565b5060208201518160010190805190602001906106eb92919061165f565b506040820151816002015560608201518160030160006101000a81548173ffffffffffffffffffffffffffffffffffffffff021916908373ffffffffffffffffffffffffffffffffffffffff160217905550505060016002600082825461075291906120ab565b925050819055505050505050565b600060076000838152602001908152602001600020549050919050565b60606004805480602002602001604051908101604052809291908181526020016000905b828210156108c457838290600052602060002090600402016040518060800160405290816000820160009054906101000a900473ffffffffffffffffffffffffffffffffffffffff1673ffffffffffffffffffffffffffffffffffffffff1673ffffffffffffffffffffffffffffffffffffffff1681526020016001820160009054906101000a900473ffffffffffffffffffffffffffffffffffffffff1673ffffffffffffffffffffffffffffffffffffffff1673ffffffffffffffffffffffffffffffffffffffff168152602001600282015481526020016003820160009054906101000a900460ff16600181111561089f5761089e611bf0565b5b60018111156108b1576108b0611bf0565b5b81525050815260200190600101906107a1565b50505050905090565b60606003805480602002602001604051908101604052809291908181526020016000905b82821015610aa757838290600052602060002090600402016040518060800160405290816000820180546109249061204a565b80601f01602080910402602001604051908101604052809291908181526020018280546109509061204a565b801561099d5780601f106109725761010080835404028352916020019161099d565b820191906000526020600020905b81548152906001019060200180831161098057829003601f168201915b505050505081526020016001820180546109b69061204a565b80601f01602080910402602001604051908101604052809291908181526020018280546109e29061204a565b8015610a2f5780601f10610a0457610100808354040283529160200191610a2f565b820191906000526020600020905b815481529060010190602001808311610a1257829003601f168201915b50505050508152602001600282015481526020016003820160009054906101000a900473ffffffffffffffffffffffffffffffffffffffff1673ffffffffffffffffffffffffffffffffffffffff1673ffffffffffffffffffffffffffffffffffffffff1681525050815260200190600101906108f1565b50505050905090565b8373ffffffffffffffffffffffffffffffffffffffff163373ffffffffffffffffffffffffffffffffffffffff161415610ae957600080fd5b600160009054906101000a900473ffffffffffffffffffffffffffffffffffffffff1673ffffffffffffffffffffffffffffffffffffffff168473ffffffffffffffffffffffffffffffffffffffff161415610b4457600080fd5b60006001811115610b5857610b57611bf0565b5b816001811115610b6b57610b6a611bf0565b5b1480610b9a5750600180811115610b8557610b84611bf0565b5b816001811115610b9857610b97611bf0565b5b145b610bd9576040517f08c379a0000000000000000000000000000000000000000000000000000000008152600401610bd090612173565b60405180910390fd5b6000808490506000806001811115610bf457610bf3611bf0565b5b846001811115610c0757610c06611bf0565b5b1415610fc15760001515600860008973ffffffffffffffffffffffffffffffffffffffff1673ffffffffffffffffffffffffffffffffffffffff1681526020019081526020016000206000878152602001908152602001600020600080815260200190815260200160002060009054906101000a900460ff16151514610c8c57600080fd5b6001600860008973ffffffffffffffffffffffffffffffffffffffff1673ffffffffffffffffffffffffffffffffffffffff1681526020019081526020016000206000878152602001908152602001600020600080815260200190815260200160002060006101000a81548160ff0219169083151502179055508173ffffffffffffffffffffffffffffffffffffffff1663a87b5090866040518263ffffffff1660e01b8152600401610d3f9190611ba9565b602060405180830381865afa158015610d5c573d6000803e3d6000fd5b505050506040513d601f19601f82011682018060405250810190610d8091906121a8565b925082341015610d8f57600080fd5b8673ffffffffffffffffffffffffffffffffffffffff1683604051610db390612206565b60006040518083038185875af1925050503d8060008114610df0576040519150601f19603f3d011682016040523d82523d6000602084013e610df5565b606091505b50508091505080610e3b576040517f08c379a0000000000000000000000000000000000000000000000000000000008152600401610e329061228d565b60405180910390fd5b600460405180608001604052808973ffffffffffffffffffffffffffffffffffffffff1681526020018873ffffffffffffffffffffffffffffffffffffffff16815260200187815260200160006001811115610e9a57610e99611bf0565b5b815250908060018154018082558091505060019003906000526020600020906004020160009091909190915060008201518160000160006101000a81548173ffffffffffffffffffffffffffffffffffffffff021916908373ffffffffffffffffffffffffffffffffffffffff16021790555060208201518160010160006101000a81548173ffffffffffffffffffffffffffffffffffffffff021916908373ffffffffffffffffffffffffffffffffffffffff1602179055506040820151816002015560608201518160030160006101000a81548160ff02191690836001811115610f8957610f88611bf0565b5b021790555050507f6a07c98445bb3cfb4efcf8f19262792acb7626d174697316978caafa1b742d5a60405160405180910390a161139f565b600180811115610fd457610fd3611bf0565b5b846001811115610fe757610fe6611bf0565b5b141561139e5760001515600860008973ffffffffffffffffffffffffffffffffffffffff1673ffffffffffffffffffffffffffffffffffffffff168152602001908152602001600020600087815260200190815260200160002060006001815260200190815260200160002060009054906101000a900460ff1615151461106d57600080fd5b6001600860008973ffffffffffffffffffffffffffffffffffffffff1673ffffffffffffffffffffffffffffffffffffffff168152602001908152602001600020600087815260200190815260200160002060006001815260200190815260200160002060006101000a81548160ff0219169083151502179055508173ffffffffffffffffffffffffffffffffffffffff1663711a5902866040518263ffffffff1660e01b81526004016111219190611ba9565b602060405180830381865afa15801561113e573d6000803e3d6000fd5b505050506040513d601f19601f8201168201806040525081019061116291906121a8565b92508234101561117157600080fd5b8673ffffffffffffffffffffffffffffffffffffffff168360405161119590612206565b60006040518083038185875af1925050503d80600081146111d2576040519150601f19603f3d011682016040523d82523d6000602084013e6111d7565b606091505b5050809150508061121d576040517f08c379a00000000000000000000000000000000000000000000000000000000081526004016112149061231f565b60405180910390fd5b600460405180608001604052808973ffffffffffffffffffffffffffffffffffffffff1681526020018873ffffffffffffffffffffffffffffffffffffffff16815260200187815260200160018081111561127b5761127a611bf0565b5b815250908060018154018082558091505060019003906000526020600020906004020160009091909190915060008201518160000160006101000a81548173ffffffffffffffffffffffffffffffffffffffff021916908373ffffffffffffffffffffffffffffffffffffffff16021790555060208201518160010160006101000a81548173ffffffffffffffffffffffffffffffffffffffff021916908373ffffffffffffffffffffffffffffffffffffffff1602179055506040820151816002015560608201518160030160006101000a81548160ff0219169083600181111561136a57611369611bf0565b5b021790555050507f6a07c98445bb3cfb4efcf8f19262792acb7626d174697316978caafa1b742d5a60405160405180910390a15b5b50505050505050565b600381815481106113b857600080fd5b90600052602060002090600402016000915090508060000180546113db9061204a565b80601f01602080910402602001604051908101604052809291908181526020018280546114079061204a565b80156114545780601f1061142957610100808354040283529160200191611454565b820191906000526020600020905b81548152906001019060200180831161143757829003601f168201915b5050505050908060010180546114699061204a565b80601f01602080910402602001604051908101604052809291908181526020018280546114959061204a565b80156114e25780601f106114b7576101008083540402835291602001916114e2565b820191906000526020600020905b8154815290600101906020018083116114c557829003601f168201915b5050505050908060020154908060030160009054906101000a900473ffffffffffffffffffffffffffffffffffffffff16905084565b600060066000838152602001908152602001600020549050919050565b600160009054906101000a900473ffffffffffffffffffffffffffffffffffffffff1673ffffffffffffffffffffffffffffffffffffffff163373ffffffffffffffffffffffffffffffffffffffff161461158f57600080fd5b8060066000848152602001908152602001600020819055505050565b600160009054906101000a900473ffffffffffffffffffffffffffffffffffffffff1673ffffffffffffffffffffffffffffffffffffffff163373ffffffffffffffffffffffffffffffffffffffff161461160557600080fd5b8060076000848152602001908152602001600020819055505050565b6040518060800160405280606081526020016060815260200160008152602001600073ffffffffffffffffffffffffffffffffffffffff1681525090565b82805461166b9061204a565b90600052602060002090601f01602090048101928261168d57600085556116d4565b82601f106116a657805160ff19168380011785556116d4565b828001600101855582156116d4579182015b828111156116d35782518255916020019190600101906116b8565b5b5090506116e191906116e5565b5090565b5b808211156116fe5760008160009055506001016116e6565b5090565b600082825260208201905092915050565b7f46616c6c6261636b2063616c6c65642e00000000000000000000000000000000600082015250565b6000611749601083611702565b915061175482611713565b602082019050919050565b600060208201905081810360008301526117788161173c565b9050919050565b600081519050919050565b60005b838110156117a857808201518184015260208101905061178d565b838111156117b7576000848401525b50505050565b6000601f19601f8301169050919050565b60006117d98261177f565b6117e38185611702565b93506117f381856020860161178a565b6117fc816117bd565b840191505092915050565b6000602082019050818103600083015261182181846117ce565b905092915050565b6000604051905090565b600080fd5b600080fd5b6000819050919050565b6118508161183d565b811461185b57600080fd5b50565b60008135905061186d81611847565b92915050565b60006020828403121561188957611888611833565b5b60006118978482850161185e565b91505092915050565b600082825260208201905092915050565b60006118bc8261177f565b6118c681856118a0565b93506118d681856020860161178a565b6118df816117bd565b840191505092915050565b6118f38161183d565b82525050565b600073ffffffffffffffffffffffffffffffffffffffff82169050919050565b6000611924826118f9565b9050919050565b61193481611919565b82525050565b6000608083016000830151848203600086015261195782826118b1565b9150506020830151848203602086015261197182826118b1565b915050604083015161198660408601826118ea565b506060830151611999606086018261192b565b508091505092915050565b600060208201905081810360008301526119be818461193a565b905092915050565b600080fd5b600080fd5b7f4e487b7100000000000000000000000000000000000000000000000000000000600052604160045260246000fd5b611a08826117bd565b810181811067ffffffffffffffff82111715611a2757611a266119d0565b5b80604052505050565b6000611a3a611829565b9050611a4682826119ff565b919050565b600067ffffffffffffffff821115611a6657611a656119d0565b5b611a6f826117bd565b9050602081019050919050565b82818337600083830152505050565b6000611a9e611a9984611a4b565b611a30565b905082815260208101848484011115611aba57611ab96119cb565b5b611ac5848285611a7c565b509392505050565b600082601f830112611ae257611ae16119c6565b5b8135611af2848260208601611a8b565b91505092915050565b60008060008060808587031215611b1557611b14611833565b5b600085013567ffffffffffffffff811115611b3357611b32611838565b5b611b3f87828801611acd565b945050602085013567ffffffffffffffff811115611b6057611b5f611838565b5b611b6c87828801611acd565b9350506040611b7d8782880161185e565b9250506060611b8e8782880161185e565b91505092959194509250565b611ba38161183d565b82525050565b6000602082019050611bbe6000830184611b9a565b92915050565b600081519050919050565b600082825260208201905092915050565b6000819050602082019050919050565b7f4e487b7100000000000000000000000000000000000000000000000000000000600052602160045260246000fd5b60028110611c3057611c2f611bf0565b5b50565b6000819050611c4182611c1f565b919050565b6000611c5182611c33565b9050919050565b611c6181611c46565b82525050565b608082016000820151611c7d600085018261192b565b506020820151611c90602085018261192b565b506040820151611ca360408501826118ea565b506060820151611cb66060850182611c58565b50505050565b6000611cc88383611c67565b60808301905092915050565b6000602082019050919050565b6000611cec82611bc4565b611cf68185611bcf565b9350611d0183611be0565b8060005b83811015611d32578151611d198882611cbc565b9750611d2483611cd4565b925050600181019050611d05565b5085935050505092915050565b60006020820190508181036000830152611d598184611ce1565b905092915050565b600081519050919050565b600082825260208201905092915050565b6000819050602082019050919050565b60006080830160008301518482036000860152611daa82826118b1565b91505060208301518482036020860152611dc482826118b1565b9150506040830151611dd960408601826118ea565b506060830151611dec606086018261192b565b508091505092915050565b6000611e038383611d8d565b905092915050565b6000602082019050919050565b6000611e2382611d61565b611e2d8185611d6c565b935083602082028501611e3f85611d7d565b8060005b85811015611e7b5784840389528151611e5c8582611df7565b9450611e6783611e0b565b925060208a01995050600181019050611e43565b50829750879550505050505092915050565b60006020820190508181036000830152611ea78184611e18565b905092915050565b6000611eba826118f9565b9050919050565b611eca81611eaf565b8114611ed557600080fd5b50565b600081359050611ee781611ec1565b92915050565b60028110611efa57600080fd5b50565b600081359050611f0c81611eed565b92915050565b60008060008060808587031215611f2c57611f2b611833565b5b6000611f3a87828801611ed8565b9450506020611f4b87828801611ed8565b9350506040611f5c8782880161185e565b9250506060611f6d87828801611efd565b91505092959194509250565b611f8281611919565b82525050565b60006080820190508181036000830152611fa281876117ce565b90508181036020830152611fb681866117ce565b9050611fc56040830185611b9a565b611fd26060830184611f79565b95945050505050565b60008060408385031215611ff257611ff1611833565b5b60006120008582860161185e565b92505060206120118582860161185e565b9150509250929050565b7f4e487b7100000000000000000000000000000000000000000000000000000000600052602260045260246000fd5b6000600282049050600182168061206257607f821691505b602082108114156120765761207561201b565b5b50919050565b7f4e487b7100000000000000000000000000000000000000000000000000000000600052601160045260246000fd5b60006120b68261183d565b91506120c18361183d565b9250827fffffffffffffffffffffffffffffffffffffffffffffffffffffffffffffffff038211156120f6576120f561207c565b5b828201905092915050565b7f456e74657220612076616c6964204c6963656e736554797065202830206f722060008201527f3129000000000000000000000000000000000000000000000000000000000000602082015250565b600061215d602283611702565b915061216882612101565b604082019050919050565b6000602082019050818103600083015261218c81612150565b9050919050565b6000815190506121a281611847565b92915050565b6000602082840312156121be576121bd611833565b5b60006121cc84828501612193565b91505092915050565b600081905092915050565b50565b60006121f06000836121d5565b91506121fb826121e0565b600082019050919050565b6000612211826121e3565b9150819050919050565b7f4661696c656420746f2073656e6420457468657220284578636c75736976652060008201527f5075726368617365292e00000000000000000000000000000000000000000000602082015250565b6000612277602a83611702565b91506122828261221b565b604082019050919050565b600060208201905081810360008301526122a68161226a565b9050919050565b7f4661696c656420746f2073656e6420457468657220284e6f6e2d6578636c757360008201527f697665205075726368617365292e000000000000000000000000000000000000602082015250565b6000612309602e83611702565b9150612314826122ad565b604082019050919050565b60006020820190508181036000830152612338816122fc565b905091905056fea2646970667358221220d39e4b997aeb819c0229681f6b16ae74426cd478c475fbc78ce3b22fc03730ee64736f6c634300080a0033a2646970667358221220e402b698f6a77fd092446dbbd58698385aded2cae9e723ca2c7ef9ca5a993fc764736f6c634300080a0033",
  "immutableReferences": {},
  "source": "pragma solidity 0.8.10;\n// pragma solidity >=0.5.16 <0.9.0;\n// pragma experimental ABIEncoderV2;\n// farm enemy snake boss sunset wolf action humble motor donkey under cream\nimport './Producer.sol';\n\ncontract ProducerFactory {\n    Producer[] producers;\n    address[] public prodAddresses;\n    mapping (address => Producer) private addressToProdID;\n    mapping (address => bool) private producerExistsMap;\n    mapping (address => address) private ownerToContract;\n\n    // struct Track {\n    //     string name;\n    //     string CID;\n    //     uint trackID;\n    //     address trackOwner;\n    // }\n\n    event ProducerCreated(address owner);\n\n    modifier isProducer() {\n        require(producerExistsMap[msg.sender] == true);\n        _;\n    }\n\n    function createProducer(string memory _name) public returns(address){\n        require(producerExistsMap[msg.sender] == false);\n        Producer p = new Producer(_name, payable(msg.sender));\n        addressToProdID[msg.sender] = p;\n        ownerToContract[msg.sender] = address(p);\n        prodAddresses.push(address(p));\n        producers.push(p);\n        producerExistsMap[msg.sender] = true;\n        emit ProducerCreated(msg.sender);\n        return address(p);\n    }\n\n    function getProducers() public view returns(address[] memory) {\n        return prodAddresses;\n    }\n\n    function getProducer(address _prodAddr) public view returns(Producer) {\n        return addressToProdID[_prodAddr];\n    }\n\n    function producerExists(address _producer) public view returns(bool) {\n        return producerExistsMap[_producer];\n    }\n\n    function getOwnersContract(address _owner) public view returns(address) {\n        return ownerToContract[_owner];\n    }\n\n    // function getTrack(address _owner, uint _trackID) public returns(Track memory){\n    //     return addressToProdID[_owner].getTrack(_trackID);\n    // }\n\n    // function getTracks(address _owner) public returns (Track[] memory) {\n    //     return addressToProdID[_owner].getTracks();\n    // }\n\n\n    // // should use the mapping\n    // function verifyExlusiveLicense(address _owner, address _licenseHolder, uint _trackID) public returns(bool) {\n    //     return addressToProdID[_owner].hasExclusiveLicense(_licenseHolder, _trackID);\n    // }\n\n    // function verifyNonExlusiveLicense(address _owner, address _licenseHolder, uint _trackID) public returns(bool) {\n    //     return addressToProdID[_owner].hasNonExclusiveLicense(_licenseHolder, _trackID);\n    // }\n\n}",
  "sourcePath": "/Users/akhoshrozeh/Projects/consensys21/blockchain-developer-bootcamp-final-project/truffle/contracts/ProducerFactory.sol",
  "compiler": {
    "name": "solc",
    "version": "0.8.10+commit.fc410830.Emscripten.clang"
  },
  "schemaVersion": "3.4.3",
  "updatedAt": "2021-12-27T11:02:41.340Z",
  "networkType": "ethereum",
  "devdoc": {
    "kind": "dev",
    "methods": {},
    "version": 1
  },
  "userdoc": {
    "kind": "user",
    "methods": {},
    "version": 1
  }
}