{
  "contractName": "Producer",
  "abi": [
    {
      "inputs": [
        {
          "internalType": "string",
          "name": "_prodName",
          "type": "string"
        },
        {
          "internalType": "address payable",
          "name": "_owner",
          "type": "address"
        }
      ],
      "stateMutability": "nonpayable",
      "type": "constructor"
    },
    {
      "anonymous": false,
      "inputs": [
        {
          "indexed": false,
          "internalType": "string",
          "name": "m",
          "type": "string"
        }
      ],
      "name": "Fallback",
      "type": "event"
    },
    {
      "anonymous": false,
      "inputs": [],
      "name": "LicenseBought",
      "type": "event"
    },
    {
      "stateMutability": "payable",
      "type": "fallback"
    },
    {
      "inputs": [
        {
          "internalType": "uint256",
          "name": "",
          "type": "uint256"
        }
      ],
      "name": "tracks",
      "outputs": [
        {
          "internalType": "string",
          "name": "name",
          "type": "string"
        },
        {
          "internalType": "string",
          "name": "CID",
          "type": "string"
        },
        {
          "internalType": "uint256",
          "name": "trackID",
          "type": "uint256"
        },
        {
          "internalType": "address",
          "name": "trackOwner",
          "type": "address"
        }
      ],
      "stateMutability": "view",
      "type": "function"
    },
    {
      "stateMutability": "payable",
      "type": "receive"
    },
    {
      "inputs": [],
      "name": "getName",
      "outputs": [
        {
          "internalType": "string",
          "name": "",
          "type": "string"
        }
      ],
      "stateMutability": "view",
      "type": "function"
    },
    {
      "inputs": [
        {
          "internalType": "uint256",
          "name": "_trackID",
          "type": "uint256"
        },
        {
          "internalType": "uint256",
          "name": "_price",
          "type": "uint256"
        }
      ],
      "name": "setExclusivePrice",
      "outputs": [],
      "stateMutability": "nonpayable",
      "type": "function"
    },
    {
      "inputs": [
        {
          "internalType": "uint256",
          "name": "_trackID",
          "type": "uint256"
        },
        {
          "internalType": "uint256",
          "name": "_price",
          "type": "uint256"
        }
      ],
      "name": "setNonExclusivePrice",
      "outputs": [],
      "stateMutability": "nonpayable",
      "type": "function"
    },
    {
      "inputs": [
        {
          "internalType": "uint256",
          "name": "_trackID",
          "type": "uint256"
        }
      ],
      "name": "getExclusivePrice",
      "outputs": [
        {
          "internalType": "uint256",
          "name": "",
          "type": "uint256"
        }
      ],
      "stateMutability": "view",
      "type": "function"
    },
    {
      "inputs": [
        {
          "internalType": "uint256",
          "name": "_trackID",
          "type": "uint256"
        }
      ],
      "name": "getNonExclusivePrice",
      "outputs": [
        {
          "internalType": "uint256",
          "name": "",
          "type": "uint256"
        }
      ],
      "stateMutability": "view",
      "type": "function"
    },
    {
      "inputs": [
        {
          "internalType": "string",
          "name": "_name",
          "type": "string"
        },
        {
          "internalType": "string",
          "name": "_CID",
          "type": "string"
        },
        {
          "internalType": "uint256",
          "name": "_excluPrice",
          "type": "uint256"
        },
        {
          "internalType": "uint256",
          "name": "_nonExcluPrice",
          "type": "uint256"
        }
      ],
      "name": "createTrack",
      "outputs": [],
      "stateMutability": "nonpayable",
      "type": "function"
    },
    {
      "inputs": [
        {
          "internalType": "address payable",
          "name": "_owner",
          "type": "address"
        },
        {
          "internalType": "address payable",
          "name": "_contract",
          "type": "address"
        },
        {
          "internalType": "uint256",
          "name": "_trackID",
          "type": "uint256"
        },
        {
          "internalType": "enum Producer.LicenseType",
          "name": "_licenseType",
          "type": "uint8"
        }
      ],
      "name": "buyLicense",
      "outputs": [],
      "stateMutability": "payable",
      "type": "function"
    },
    {
      "inputs": [
        {
          "internalType": "uint256",
          "name": "_trackID",
          "type": "uint256"
        }
      ],
      "name": "getTrack",
      "outputs": [
        {
          "components": [
            {
              "internalType": "string",
              "name": "name",
              "type": "string"
            },
            {
              "internalType": "string",
              "name": "CID",
              "type": "string"
            },
            {
              "internalType": "uint256",
              "name": "trackID",
              "type": "uint256"
            },
            {
              "internalType": "address",
              "name": "trackOwner",
              "type": "address"
            }
          ],
          "internalType": "struct Producer.Track",
          "name": "",
          "type": "tuple"
        }
      ],
      "stateMutability": "view",
      "type": "function"
    },
    {
      "inputs": [],
      "name": "getTracks",
      "outputs": [
        {
          "components": [
            {
              "internalType": "string",
              "name": "name",
              "type": "string"
            },
            {
              "internalType": "string",
              "name": "CID",
              "type": "string"
            },
            {
              "internalType": "uint256",
              "name": "trackID",
              "type": "uint256"
            },
            {
              "internalType": "address",
              "name": "trackOwner",
              "type": "address"
            }
          ],
          "internalType": "struct Producer.Track[]",
          "name": "",
          "type": "tuple[]"
        }
      ],
      "stateMutability": "view",
      "type": "function"
    },
    {
      "inputs": [],
      "name": "getLicensedTracks",
      "outputs": [
        {
          "components": [
            {
              "internalType": "address",
              "name": "owner",
              "type": "address"
            },
            {
              "internalType": "address",
              "name": "owningContract",
              "type": "address"
            },
            {
              "internalType": "uint256",
              "name": "trackID",
              "type": "uint256"
            },
            {
              "internalType": "enum Producer.LicenseType",
              "name": "license",
              "type": "uint8"
            }
          ],
          "internalType": "struct Producer.LicensedTrack[]",
          "name": "",
          "type": "tuple[]"
        }
      ],
      "stateMutability": "view",
      "type": "function"
    }
  ],
  "bytecode": "0x60806040523480156200001157600080fd5b506040516200255438038062002554833981810160405281019062000037919062000353565b6000600281905550816000908051906020019062000057929190620000a1565b5080600160006101000a81548173ffffffffffffffffffffffffffffffffffffffff021916908373ffffffffffffffffffffffffffffffffffffffff16021790555050506200041e565b828054620000af90620003e8565b90600052602060002090601f016020900481019282620000d357600085556200011f565b82601f10620000ee57805160ff19168380011785556200011f565b828001600101855582156200011f579182015b828111156200011e57825182559160200191906001019062000101565b5b5090506200012e919062000132565b5090565b5b808211156200014d57600081600090555060010162000133565b5090565b6000604051905090565b600080fd5b600080fd5b600080fd5b600080fd5b6000601f19601f8301169050919050565b7f4e487b7100000000000000000000000000000000000000000000000000000000600052604160045260246000fd5b620001ba826200016f565b810181811067ffffffffffffffff82111715620001dc57620001db62000180565b5b80604052505050565b6000620001f162000151565b9050620001ff8282620001af565b919050565b600067ffffffffffffffff82111562000222576200022162000180565b5b6200022d826200016f565b9050602081019050919050565b60005b838110156200025a5780820151818401526020810190506200023d565b838111156200026a576000848401525b50505050565b600062000287620002818462000204565b620001e5565b905082815260208101848484011115620002a657620002a56200016a565b5b620002b38482856200023a565b509392505050565b600082601f830112620002d357620002d262000165565b5b8151620002e584826020860162000270565b91505092915050565b600073ffffffffffffffffffffffffffffffffffffffff82169050919050565b60006200031b82620002ee565b9050919050565b6200032d816200030e565b81146200033957600080fd5b50565b6000815190506200034d8162000322565b92915050565b600080604083850312156200036d576200036c6200015b565b5b600083015167ffffffffffffffff8111156200038e576200038d62000160565b5b6200039c85828601620002bb565b9250506020620003af858286016200033c565b9150509250929050565b7f4e487b7100000000000000000000000000000000000000000000000000000000600052602260045260246000fd5b600060028204905060018216806200040157607f821691505b60208210811415620004185762000417620003b9565b5b50919050565b612126806200042e6000396000f3fe6080604052600436106100a05760003560e01c806387548fcf1161006457806387548fcf146101da5780638a38a8ee14610205578063a2e3458614610221578063a87b509014610261578063add485641461029e578063c5b4c26a146102c7576100aa565b806317d7de7c146100e1578063629058ca1461010c5780636ad6dac214610149578063711a59021461017257806384e7b1ab146101af576100aa565b366100aa57600080fd5b7ff7dfcc0de056dffda39c5baa035d9ce69d9df6db3c2e775c7f46e6e4bde932446040516100d790611510565b60405180910390a1005b3480156100ed57600080fd5b506100f66102f0565b60405161010391906115b8565b60405180910390f35b34801561011857600080fd5b50610133600480360381019061012e9190611624565b610382565b6040516101409190611755565b60405180910390f35b34801561015557600080fd5b50610170600480360381019061016b91906118ac565b610533565b005b34801561017e57600080fd5b5061019960048036038101906101949190611624565b610760565b6040516101a6919061195a565b60405180910390f35b3480156101bb57600080fd5b506101c461077d565b6040516101d19190611af0565b60405180910390f35b3480156101e657600080fd5b506101ef6108cd565b6040516101fc9190611c3e565b60405180910390f35b61021f600480360381019061021a9190611cc3565b610ab0565b005b34801561022d57600080fd5b5061024860048036038101906102439190611624565b611159565b6040516102589493929190611d39565b60405180910390f35b34801561026d57600080fd5b5061028860048036038101906102839190611624565b6112c9565b604051610295919061195a565b60405180910390f35b3480156102aa57600080fd5b506102c560048036038101906102c09190611d8c565b6112e6565b005b3480156102d357600080fd5b506102ee60048036038101906102e99190611d8c565b61135c565b005b6060600080546102ff90611dfb565b80601f016020809104026020016040519081016040528092919081815260200182805461032b90611dfb565b80156103785780601f1061034d57610100808354040283529160200191610378565b820191906000526020600020905b81548152906001019060200180831161035b57829003601f168201915b5050505050905090565b61038a6113d2565b600560008381526020019081526020016000206040518060800160405290816000820180546103b890611dfb565b80601f01602080910402602001604051908101604052809291908181526020018280546103e490611dfb565b80156104315780601f1061040657610100808354040283529160200191610431565b820191906000526020600020905b81548152906001019060200180831161041457829003601f168201915b5050505050815260200160018201805461044a90611dfb565b80601f016020809104026020016040519081016040528092919081815260200182805461047690611dfb565b80156104c35780601f10610498576101008083540402835291602001916104c3565b820191906000526020600020905b8154815290600101906020018083116104a657829003601f168201915b50505050508152602001600282015481526020016003820160009054906101000a900473ffffffffffffffffffffffffffffffffffffffff1673ffffffffffffffffffffffffffffffffffffffff1673ffffffffffffffffffffffffffffffffffffffff16815250509050919050565b600160009054906101000a900473ffffffffffffffffffffffffffffffffffffffff1673ffffffffffffffffffffffffffffffffffffffff163373ffffffffffffffffffffffffffffffffffffffff161461058d57600080fd5b6000604051806080016040528086815260200185815260200160025481526020013373ffffffffffffffffffffffffffffffffffffffff1681525090506105d6600254846112e6565b6105e26002548361135c565b806005600060025481526020019081526020016000206000820151816000019080519060200190610614929190611410565b506020820151816001019080519060200190610631929190611410565b506040820151816002015560608201518160030160006101000a81548173ffffffffffffffffffffffffffffffffffffffff021916908373ffffffffffffffffffffffffffffffffffffffff160217905550905050600381908060018154018082558091505060019003906000526020600020906004020160009091909190915060008201518160000190805190602001906106ce929190611410565b5060208201518160010190805190602001906106eb929190611410565b506040820151816002015560608201518160030160006101000a81548173ffffffffffffffffffffffffffffffffffffffff021916908373ffffffffffffffffffffffffffffffffffffffff16021790555050506001600260008282546107529190611e5c565b925050819055505050505050565b600060076000838152602001908152602001600020549050919050565b60606004805480602002602001604051908101604052809291908181526020016000905b828210156108c457838290600052602060002090600402016040518060800160405290816000820160009054906101000a900473ffffffffffffffffffffffffffffffffffffffff1673ffffffffffffffffffffffffffffffffffffffff1673ffffffffffffffffffffffffffffffffffffffff1681526020016001820160009054906101000a900473ffffffffffffffffffffffffffffffffffffffff1673ffffffffffffffffffffffffffffffffffffffff1673ffffffffffffffffffffffffffffffffffffffff168152602001600282015481526020016003820160009054906101000a900460ff16600181111561089f5761089e6119a1565b5b60018111156108b1576108b06119a1565b5b81525050815260200190600101906107a1565b50505050905090565b60606003805480602002602001604051908101604052809291908181526020016000905b82821015610aa7578382906000526020600020906004020160405180608001604052908160008201805461092490611dfb565b80601f016020809104026020016040519081016040528092919081815260200182805461095090611dfb565b801561099d5780601f106109725761010080835404028352916020019161099d565b820191906000526020600020905b81548152906001019060200180831161098057829003601f168201915b505050505081526020016001820180546109b690611dfb565b80601f01602080910402602001604051908101604052809291908181526020018280546109e290611dfb565b8015610a2f5780601f10610a0457610100808354040283529160200191610a2f565b820191906000526020600020905b815481529060010190602001808311610a1257829003601f168201915b50505050508152602001600282015481526020016003820160009054906101000a900473ffffffffffffffffffffffffffffffffffffffff1673ffffffffffffffffffffffffffffffffffffffff1673ffffffffffffffffffffffffffffffffffffffff1681525050815260200190600101906108f1565b50505050905090565b8373ffffffffffffffffffffffffffffffffffffffff163373ffffffffffffffffffffffffffffffffffffffff161415610ae957600080fd5b60006001811115610afd57610afc6119a1565b5b816001811115610b1057610b0f6119a1565b5b1480610b3f5750600180811115610b2a57610b296119a1565b5b816001811115610b3d57610b3c6119a1565b5b145b610b7e576040517f08c379a0000000000000000000000000000000000000000000000000000000008152600401610b7590611f24565b60405180910390fd5b6000808490506000806001811115610b9957610b986119a1565b5b846001811115610bac57610bab6119a1565b5b1415610e6d578173ffffffffffffffffffffffffffffffffffffffff1663a87b5090866040518263ffffffff1660e01b8152600401610beb919061195a565b602060405180830381865afa158015610c08573d6000803e3d6000fd5b505050506040513d601f19601f82011682018060405250810190610c2c9190611f59565b925082341015610c3b57600080fd5b8673ffffffffffffffffffffffffffffffffffffffff1683604051610c5f90611fb7565b60006040518083038185875af1925050503d8060008114610c9c576040519150601f19603f3d011682016040523d82523d6000602084013e610ca1565b606091505b50508091505080610ce7576040517f08c379a0000000000000000000000000000000000000000000000000000000008152600401610cde9061203e565b60405180910390fd5b600460405180608001604052808973ffffffffffffffffffffffffffffffffffffffff1681526020018873ffffffffffffffffffffffffffffffffffffffff16815260200187815260200160006001811115610d4657610d456119a1565b5b815250908060018154018082558091505060019003906000526020600020906004020160009091909190915060008201518160000160006101000a81548173ffffffffffffffffffffffffffffffffffffffff021916908373ffffffffffffffffffffffffffffffffffffffff16021790555060208201518160010160006101000a81548173ffffffffffffffffffffffffffffffffffffffff021916908373ffffffffffffffffffffffffffffffffffffffff1602179055506040820151816002015560608201518160030160006101000a81548160ff02191690836001811115610e3557610e346119a1565b5b021790555050507f6a07c98445bb3cfb4efcf8f19262792acb7626d174697316978caafa1b742d5a60405160405180910390a1611150565b600180811115610e8057610e7f6119a1565b5b846001811115610e9357610e926119a1565b5b141561114f578173ffffffffffffffffffffffffffffffffffffffff1663711a5902866040518263ffffffff1660e01b8152600401610ed2919061195a565b602060405180830381865afa158015610eef573d6000803e3d6000fd5b505050506040513d601f19601f82011682018060405250810190610f139190611f59565b925082341015610f2257600080fd5b8673ffffffffffffffffffffffffffffffffffffffff1683604051610f4690611fb7565b60006040518083038185875af1925050503d8060008114610f83576040519150601f19603f3d011682016040523d82523d6000602084013e610f88565b606091505b50508091505080610fce576040517f08c379a0000000000000000000000000000000000000000000000000000000008152600401610fc5906120d0565b60405180910390fd5b600460405180608001604052808973ffffffffffffffffffffffffffffffffffffffff1681526020018873ffffffffffffffffffffffffffffffffffffffff16815260200187815260200160018081111561102c5761102b6119a1565b5b815250908060018154018082558091505060019003906000526020600020906004020160009091909190915060008201518160000160006101000a81548173ffffffffffffffffffffffffffffffffffffffff021916908373ffffffffffffffffffffffffffffffffffffffff16021790555060208201518160010160006101000a81548173ffffffffffffffffffffffffffffffffffffffff021916908373ffffffffffffffffffffffffffffffffffffffff1602179055506040820151816002015560608201518160030160006101000a81548160ff0219169083600181111561111b5761111a6119a1565b5b021790555050507f6a07c98445bb3cfb4efcf8f19262792acb7626d174697316978caafa1b742d5a60405160405180910390a15b5b50505050505050565b6003818154811061116957600080fd5b906000526020600020906004020160009150905080600001805461118c90611dfb565b80601f01602080910402602001604051908101604052809291908181526020018280546111b890611dfb565b80156112055780601f106111da57610100808354040283529160200191611205565b820191906000526020600020905b8154815290600101906020018083116111e857829003601f168201915b50505050509080600101805461121a90611dfb565b80601f016020809104026020016040519081016040528092919081815260200182805461124690611dfb565b80156112935780601f1061126857610100808354040283529160200191611293565b820191906000526020600020905b81548152906001019060200180831161127657829003601f168201915b5050505050908060020154908060030160009054906101000a900473ffffffffffffffffffffffffffffffffffffffff16905084565b600060066000838152602001908152602001600020549050919050565b600160009054906101000a900473ffffffffffffffffffffffffffffffffffffffff1673ffffffffffffffffffffffffffffffffffffffff163373ffffffffffffffffffffffffffffffffffffffff161461134057600080fd5b8060066000848152602001908152602001600020819055505050565b600160009054906101000a900473ffffffffffffffffffffffffffffffffffffffff1673ffffffffffffffffffffffffffffffffffffffff163373ffffffffffffffffffffffffffffffffffffffff16146113b657600080fd5b8060076000848152602001908152602001600020819055505050565b6040518060800160405280606081526020016060815260200160008152602001600073ffffffffffffffffffffffffffffffffffffffff1681525090565b82805461141c90611dfb565b90600052602060002090601f01602090048101928261143e5760008555611485565b82601f1061145757805160ff1916838001178555611485565b82800160010185558215611485579182015b82811115611484578251825591602001919060010190611469565b5b5090506114929190611496565b5090565b5b808211156114af576000816000905550600101611497565b5090565b600082825260208201905092915050565b7f46616c6c6261636b2063616c6c65642e00000000000000000000000000000000600082015250565b60006114fa6010836114b3565b9150611505826114c4565b602082019050919050565b60006020820190508181036000830152611529816114ed565b9050919050565b600081519050919050565b60005b8381101561155957808201518184015260208101905061153e565b83811115611568576000848401525b50505050565b6000601f19601f8301169050919050565b600061158a82611530565b61159481856114b3565b93506115a481856020860161153b565b6115ad8161156e565b840191505092915050565b600060208201905081810360008301526115d2818461157f565b905092915050565b6000604051905090565b600080fd5b600080fd5b6000819050919050565b611601816115ee565b811461160c57600080fd5b50565b60008135905061161e816115f8565b92915050565b60006020828403121561163a576116396115e4565b5b60006116488482850161160f565b91505092915050565b600082825260208201905092915050565b600061166d82611530565b6116778185611651565b935061168781856020860161153b565b6116908161156e565b840191505092915050565b6116a4816115ee565b82525050565b600073ffffffffffffffffffffffffffffffffffffffff82169050919050565b60006116d5826116aa565b9050919050565b6116e5816116ca565b82525050565b600060808301600083015184820360008601526117088282611662565b915050602083015184820360208601526117228282611662565b9150506040830151611737604086018261169b565b50606083015161174a60608601826116dc565b508091505092915050565b6000602082019050818103600083015261176f81846116eb565b905092915050565b600080fd5b600080fd5b7f4e487b7100000000000000000000000000000000000000000000000000000000600052604160045260246000fd5b6117b98261156e565b810181811067ffffffffffffffff821117156117d8576117d7611781565b5b80604052505050565b60006117eb6115da565b90506117f782826117b0565b919050565b600067ffffffffffffffff82111561181757611816611781565b5b6118208261156e565b9050602081019050919050565b82818337600083830152505050565b600061184f61184a846117fc565b6117e1565b90508281526020810184848401111561186b5761186a61177c565b5b61187684828561182d565b509392505050565b600082601f83011261189357611892611777565b5b81356118a384826020860161183c565b91505092915050565b600080600080608085870312156118c6576118c56115e4565b5b600085013567ffffffffffffffff8111156118e4576118e36115e9565b5b6118f08782880161187e565b945050602085013567ffffffffffffffff811115611911576119106115e9565b5b61191d8782880161187e565b935050604061192e8782880161160f565b925050606061193f8782880161160f565b91505092959194509250565b611954816115ee565b82525050565b600060208201905061196f600083018461194b565b92915050565b600081519050919050565b600082825260208201905092915050565b6000819050602082019050919050565b7f4e487b7100000000000000000000000000000000000000000000000000000000600052602160045260246000fd5b600281106119e1576119e06119a1565b5b50565b60008190506119f2826119d0565b919050565b6000611a02826119e4565b9050919050565b611a12816119f7565b82525050565b608082016000820151611a2e60008501826116dc565b506020820151611a4160208501826116dc565b506040820151611a54604085018261169b565b506060820151611a676060850182611a09565b50505050565b6000611a798383611a18565b60808301905092915050565b6000602082019050919050565b6000611a9d82611975565b611aa78185611980565b9350611ab283611991565b8060005b83811015611ae3578151611aca8882611a6d565b9750611ad583611a85565b925050600181019050611ab6565b5085935050505092915050565b60006020820190508181036000830152611b0a8184611a92565b905092915050565b600081519050919050565b600082825260208201905092915050565b6000819050602082019050919050565b60006080830160008301518482036000860152611b5b8282611662565b91505060208301518482036020860152611b758282611662565b9150506040830151611b8a604086018261169b565b506060830151611b9d60608601826116dc565b508091505092915050565b6000611bb48383611b3e565b905092915050565b6000602082019050919050565b6000611bd482611b12565b611bde8185611b1d565b935083602082028501611bf085611b2e565b8060005b85811015611c2c5784840389528151611c0d8582611ba8565b9450611c1883611bbc565b925060208a01995050600181019050611bf4565b50829750879550505050505092915050565b60006020820190508181036000830152611c588184611bc9565b905092915050565b6000611c6b826116aa565b9050919050565b611c7b81611c60565b8114611c8657600080fd5b50565b600081359050611c9881611c72565b92915050565b60028110611cab57600080fd5b50565b600081359050611cbd81611c9e565b92915050565b60008060008060808587031215611cdd57611cdc6115e4565b5b6000611ceb87828801611c89565b9450506020611cfc87828801611c89565b9350506040611d0d8782880161160f565b9250506060611d1e87828801611cae565b91505092959194509250565b611d33816116ca565b82525050565b60006080820190508181036000830152611d53818761157f565b90508181036020830152611d67818661157f565b9050611d76604083018561194b565b611d836060830184611d2a565b95945050505050565b60008060408385031215611da357611da26115e4565b5b6000611db18582860161160f565b9250506020611dc28582860161160f565b9150509250929050565b7f4e487b7100000000000000000000000000000000000000000000000000000000600052602260045260246000fd5b60006002820490506001821680611e1357607f821691505b60208210811415611e2757611e26611dcc565b5b50919050565b7f4e487b7100000000000000000000000000000000000000000000000000000000600052601160045260246000fd5b6000611e67826115ee565b9150611e72836115ee565b9250827fffffffffffffffffffffffffffffffffffffffffffffffffffffffffffffffff03821115611ea757611ea6611e2d565b5b828201905092915050565b7f456e74657220612076616c6964204c6963656e736554797065202830206f722060008201527f3129000000000000000000000000000000000000000000000000000000000000602082015250565b6000611f0e6022836114b3565b9150611f1982611eb2565b604082019050919050565b60006020820190508181036000830152611f3d81611f01565b9050919050565b600081519050611f53816115f8565b92915050565b600060208284031215611f6f57611f6e6115e4565b5b6000611f7d84828501611f44565b91505092915050565b600081905092915050565b50565b6000611fa1600083611f86565b9150611fac82611f91565b600082019050919050565b6000611fc282611f94565b9150819050919050565b7f4661696c656420746f2073656e6420457468657220284578636c75736976652060008201527f5075726368617365292e00000000000000000000000000000000000000000000602082015250565b6000612028602a836114b3565b915061203382611fcc565b604082019050919050565b600060208201905081810360008301526120578161201b565b9050919050565b7f4661696c656420746f2073656e6420457468657220284e6f6e2d6578636c757360008201527f697665205075726368617365292e000000000000000000000000000000000000602082015250565b60006120ba602e836114b3565b91506120c58261205e565b604082019050919050565b600060208201905081810360008301526120e9816120ad565b905091905056fea2646970667358221220d7b9a9b8d903229d0dacd89e46716e2231db9b0e356059cc3a0dd03b4048947f64736f6c634300080a0033",
  "immutableReferences": {},
  "source": "pragma solidity 0.8.10;\n// pragma solidity >=0.5.16 <0.9.0;\n// pragma experimental ABIEncoderV2;\n\ncontract Producer {\n    string prodName;\n    address payable owner;\n    uint idCounter; // used for the Producer's tracks (these are unique only to this contract!)\n\n    // Tracks the producer owns/created\n    Track[] public tracks;\n\n    // Tracks the producer has licenses to\n    LicensedTrack[] private licensedTracks;\n\n    mapping (uint => Track) idToTrack;\n\n    // maps track id to exclusive license price\n    mapping (uint => uint) excluPrice; \n    // maps track id to nonExclusive license price\n    mapping (uint => uint) nonExcluPrice;\n\n\n    \n\n    // trackID -> array of addresses \n    // mapping (uint => address[]) licensedProducers;  \n\n    // address and trackID -> true if licensed\n    // mapping (address => mapping(uint => bool)) private hasExclusiveLicenseMap;\n    // mapping (address => mapping(uint => bool)) private hasNonExclusiveLicenseMap;\n    \n\n    enum LicenseType {Exclusive, NonExclusive}\n\n    event Fallback(string m);\n    event LicenseBought();\n\n    struct Track {\n        string name;\n        string CID;\n        uint trackID;\n        address trackOwner;\n    }\n\n    // this trackID refers to the trackID from the owner\n    struct LicensedTrack {\n        address owner;\n        address owningContract;\n        uint trackID;\n        LicenseType license;\n    }\n\n    fallback() external payable {\n        emit Fallback(\"Fallback called.\");\n    }\n\n    receive() external payable {\n        revert();\n    }\n    \n    modifier isOwner() {\n        require(msg.sender == owner);\n        _;\n    }\n\n    modifier hasValidFunds(uint _price) {\n        require(msg.value >= _price);\n        _;\n    }\n    \n    \n    constructor(string memory _prodName, address payable _owner) {\n        idCounter = 0;\n        prodName = _prodName;\n        owner = _owner;\n\n    }\n\n    function getName() public view returns(string memory) {\n        return prodName;\n    }\n    function setExclusivePrice(uint _trackID, uint _price) public isOwner {\n        excluPrice[_trackID] = _price;\n    }\n    function setNonExclusivePrice(uint _trackID, uint _price) public isOwner {\n        nonExcluPrice[_trackID] = _price;\n    }\n\n    function getExclusivePrice(uint _trackID) public view returns(uint) {\n        return excluPrice[_trackID];\n    }\n\n    function getNonExclusivePrice(uint _trackID) public view returns(uint) {\n        return nonExcluPrice[_trackID];\n    }\n\n    // When a user uploads a new track; CID is created in browser\n    function createTrack(string memory _name, string memory _CID, uint _excluPrice, uint _nonExcluPrice) public isOwner {\n        Track memory t = Track(_name, _CID, idCounter, msg.sender);\n        setExclusivePrice(idCounter, _excluPrice);\n        setNonExclusivePrice(idCounter, _nonExcluPrice);\n        idToTrack[idCounter] = t;\n        tracks.push(t);\n        idCounter += 1;\n    }\n\n    // a producer wants to buy a license for a track\n    // only place licensedTracks gets updated\n    // parameters should be the contract address, then we can get the owner from that to transfer funds.\n    function buyLicense(address payable _owner, address payable _contract,  uint _trackID, LicenseType _licenseType) \n        public payable {\n        require(msg.sender != _owner);\n        require((_licenseType == LicenseType.Exclusive || _licenseType == LicenseType.NonExclusive),\n         \"Enter a valid LicenseType (0 or 1)\");\n        // string memory _CID;\n        uint _price;\n        Producer seller = Producer(_contract);\n        bool sent = false;\n        // require msg.sender isnt owner !!\n        if (_licenseType == LicenseType.Exclusive) {\n            _price = seller.getExclusivePrice(_trackID);\n            require(msg.value >= _price);\n            (sent, ) = _owner.call{value: _price}(\"\");\n            require(sent, \"Failed to send Ether (Exclusive Purchase).\");\n            licensedTracks.push(LicensedTrack(_owner, _contract, _trackID,  LicenseType.Exclusive));\n            emit LicenseBought();\n        }\n\n        else if (_licenseType == LicenseType.NonExclusive) {\n            _price = seller.getNonExclusivePrice(_trackID);\n            require(msg.value >= _price);\n            (sent, ) = _owner.call{value: _price}(\"\");\n            require(sent, \"Failed to send Ether (Non-exclusive Purchase).\");\n            licensedTracks.push(LicensedTrack(_owner, _contract, _trackID,  LicenseType.NonExclusive));\n            emit LicenseBought();\n        }\n\n    }\n\n    function getTrack(uint _trackID) external view returns(Track memory) {\n        return idToTrack[_trackID];\n    }\n\n    function getTracks() public view returns(Track[] memory) {\n        return tracks;\n    }\n\n    function getLicensedTracks() public view returns(LicensedTrack[] memory) {\n        return licensedTracks;\n    }\n\n    \n\n    \n}",
  "sourcePath": "/Users/akhoshrozeh/Projects/consensys21/blockchain-developer-bootcamp-final-project/truffle/contracts/Producer.sol",
  "compiler": {
    "name": "solc",
    "version": "0.8.10+commit.fc410830.Emscripten.clang"
  },
  "schemaVersion": "3.4.3",
  "updatedAt": "2021-12-12T22:50:12.363Z",
  "devdoc": {
    "kind": "dev",
    "methods": {},
    "version": 1
  },
  "userdoc": {
    "kind": "user",
    "methods": {},
    "version": 1
  }
}