{
  "contractName": "Producer",
  "abi": [
    {
      "inputs": [
        {
          "internalType": "string",
          "name": "_prodName",
          "type": "string"
        },
        {
          "internalType": "address payable",
          "name": "_owner",
          "type": "address"
        }
      ],
      "payable": false,
      "stateMutability": "nonpayable",
      "type": "constructor"
    },
    {
      "anonymous": false,
      "inputs": [
        {
          "indexed": false,
          "internalType": "string",
          "name": "m",
          "type": "string"
        }
      ],
      "name": "Fallback",
      "type": "event"
    },
    {
      "constant": true,
      "inputs": [
        {
          "internalType": "uint256",
          "name": "",
          "type": "uint256"
        }
      ],
      "name": "tracks",
      "outputs": [
        {
          "internalType": "string",
          "name": "name",
          "type": "string"
        },
        {
          "internalType": "string",
          "name": "CID",
          "type": "string"
        },
        {
          "internalType": "uint256",
          "name": "trackID",
          "type": "uint256"
        },
        {
          "internalType": "address",
          "name": "trackOwner",
          "type": "address"
        }
      ],
      "payable": false,
      "stateMutability": "view",
      "type": "function"
    },
    {
      "constant": false,
      "inputs": [
        {
          "internalType": "uint256",
          "name": "_trackID",
          "type": "uint256"
        },
        {
          "internalType": "uint256",
          "name": "_price",
          "type": "uint256"
        }
      ],
      "name": "setExclusivePrice",
      "outputs": [],
      "payable": false,
      "stateMutability": "nonpayable",
      "type": "function"
    },
    {
      "constant": false,
      "inputs": [
        {
          "internalType": "uint256",
          "name": "_trackID",
          "type": "uint256"
        },
        {
          "internalType": "uint256",
          "name": "_price",
          "type": "uint256"
        }
      ],
      "name": "setNonExclusivePrice",
      "outputs": [],
      "payable": false,
      "stateMutability": "nonpayable",
      "type": "function"
    },
    {
      "constant": true,
      "inputs": [
        {
          "internalType": "uint256",
          "name": "_trackID",
          "type": "uint256"
        }
      ],
      "name": "getExclusivePrice",
      "outputs": [
        {
          "internalType": "uint256",
          "name": "",
          "type": "uint256"
        }
      ],
      "payable": false,
      "stateMutability": "view",
      "type": "function"
    },
    {
      "constant": true,
      "inputs": [
        {
          "internalType": "uint256",
          "name": "_trackID",
          "type": "uint256"
        }
      ],
      "name": "getNonExclusivePrice",
      "outputs": [
        {
          "internalType": "uint256",
          "name": "",
          "type": "uint256"
        }
      ],
      "payable": false,
      "stateMutability": "view",
      "type": "function"
    },
    {
      "constant": false,
      "inputs": [
        {
          "internalType": "string",
          "name": "_name",
          "type": "string"
        },
        {
          "internalType": "string",
          "name": "_CID",
          "type": "string"
        },
        {
          "internalType": "uint256",
          "name": "_excluPrice",
          "type": "uint256"
        },
        {
          "internalType": "uint256",
          "name": "_nonExcluPrice",
          "type": "uint256"
        }
      ],
      "name": "createTrack",
      "outputs": [],
      "payable": false,
      "stateMutability": "nonpayable",
      "type": "function"
    },
    {
      "constant": false,
      "inputs": [
        {
          "internalType": "address payable",
          "name": "_owner",
          "type": "address"
        },
        {
          "internalType": "uint256",
          "name": "_trackID",
          "type": "uint256"
        },
        {
          "internalType": "enum Producer.LicenseType",
          "name": "_licenseType",
          "type": "uint8"
        }
      ],
      "name": "buyLicense",
      "outputs": [
        {
          "internalType": "string",
          "name": "",
          "type": "string"
        }
      ],
      "payable": true,
      "stateMutability": "payable",
      "type": "function"
    },
    {
      "constant": true,
      "inputs": [
        {
          "internalType": "uint256",
          "name": "_trackID",
          "type": "uint256"
        }
      ],
      "name": "getTrack",
      "outputs": [
        {
          "components": [
            {
              "internalType": "string",
              "name": "name",
              "type": "string"
            },
            {
              "internalType": "string",
              "name": "CID",
              "type": "string"
            },
            {
              "internalType": "uint256",
              "name": "trackID",
              "type": "uint256"
            },
            {
              "internalType": "address",
              "name": "trackOwner",
              "type": "address"
            }
          ],
          "internalType": "struct Producer.Track",
          "name": "",
          "type": "tuple"
        }
      ],
      "payable": false,
      "stateMutability": "view",
      "type": "function"
    },
    {
      "constant": true,
      "inputs": [],
      "name": "getTracks",
      "outputs": [
        {
          "components": [
            {
              "internalType": "string",
              "name": "name",
              "type": "string"
            },
            {
              "internalType": "string",
              "name": "CID",
              "type": "string"
            },
            {
              "internalType": "uint256",
              "name": "trackID",
              "type": "uint256"
            },
            {
              "internalType": "address",
              "name": "trackOwner",
              "type": "address"
            }
          ],
          "internalType": "struct Producer.Track[]",
          "name": "",
          "type": "tuple[]"
        }
      ],
      "payable": false,
      "stateMutability": "view",
      "type": "function"
    },
    {
      "constant": true,
      "inputs": [],
      "name": "getLicensedTracks",
      "outputs": [
        {
          "components": [
            {
              "internalType": "address",
              "name": "owner",
              "type": "address"
            },
            {
              "internalType": "uint256",
              "name": "trackID",
              "type": "uint256"
            },
            {
              "internalType": "enum Producer.LicenseType",
              "name": "license",
              "type": "uint8"
            }
          ],
          "internalType": "struct Producer.LicensedTrack[]",
          "name": "",
          "type": "tuple[]"
        }
      ],
      "payable": false,
      "stateMutability": "view",
      "type": "function"
    }
  ],
  "bytecode": "0x60806040523480156200001157600080fd5b5060405162001c6038038062001c608339818101604052620000379190810190620001c3565b6000600281905550816000908051906020019062000057929190620000a1565b5080600160006101000a81548173ffffffffffffffffffffffffffffffffffffffff021916908373ffffffffffffffffffffffffffffffffffffffff1602179055505050620002fc565b828054600181600116156101000203166002900490600052602060002090601f016020900481019282601f10620000e457805160ff191683800117855562000115565b8280016001018555821562000115579182015b8281111562000114578251825591602001919060010190620000f7565b5b50905062000124919062000128565b5090565b6200014d91905b80821115620001495760008160009055506001016200012f565b5090565b90565b6000815190506200016181620002e2565b92915050565b600082601f8301126200017957600080fd5b8151620001906200018a826200024b565b6200021d565b91508082526020830160208301858383011115620001ad57600080fd5b620001ba838284620002ac565b50505092915050565b60008060408385031215620001d757600080fd5b600083015167ffffffffffffffff811115620001f257600080fd5b620002008582860162000167565b9250506020620002138582860162000150565b9150509250929050565b6000604051905081810181811067ffffffffffffffff821117156200024157600080fd5b8060405250919050565b600067ffffffffffffffff8211156200026357600080fd5b601f19601f8301169050602081019050919050565b600062000285826200028c565b9050919050565b600073ffffffffffffffffffffffffffffffffffffffff82169050919050565b60005b83811015620002cc578082015181840152602081019050620002af565b83811115620002dc576000848401525b50505050565b620002ed8162000278565b8114620002f957600080fd5b50565b611954806200030c6000396000f3fe6080604052600436106100915760003560e01c8063a2e3458611610059578063a2e345861461018f578063a87b5090146101cf578063add485641461020c578063b3ccb86e14610235578063c5b4c26a1461026557610091565b8063629058ca146100965780636ad6dac2146100d3578063711a5902146100fc57806384e7b1ab1461013957806387548fcf14610164575b600080fd5b3480156100a257600080fd5b506100bd60048036036100b8919081019061126a565b61028e565b6040516100ca9190611693565b60405180910390f35b3480156100df57600080fd5b506100fa60048036036100f591908101906111d7565b61045f565b005b34801561010857600080fd5b50610123600480360361011e919081019061126a565b61068c565b60405161013091906116b5565b60405180910390f35b34801561014557600080fd5b5061014e6106a9565b60405161015b91906115da565b60405180910390f35b34801561017057600080fd5b50610179610795565b60405161018691906115fc565b60405180910390f35b34801561019b57600080fd5b506101b660048036036101b1919081019061126a565b610998565b6040516101c69493929190611640565b60405180910390f35b3480156101db57600080fd5b506101f660048036036101f1919081019061126a565b610b25565b60405161020391906116b5565b60405180910390f35b34801561021857600080fd5b50610233600480360361022e9190810190611293565b610b42565b005b61024f600480360361024a9190810190611188565b610bb8565b60405161025c919061161e565b60405180910390f35b34801561027157600080fd5b5061028c60048036036102879190810190611293565b610f9c565b005b610296611012565b60056000838152602001908152602001600020604051806080016040529081600082018054600181600116156101000203166002900480601f01602080910402602001604051908101604052809291908181526020018280546001816001161561010002031660029004801561034d5780601f106103225761010080835404028352916020019161034d565b820191906000526020600020905b81548152906001019060200180831161033057829003601f168201915b50505050508152602001600182018054600181600116156101000203166002900480601f0160208091040260200160405190810160405280929190818152602001828054600181600116156101000203166002900480156103ef5780601f106103c4576101008083540402835291602001916103ef565b820191906000526020600020905b8154815290600101906020018083116103d257829003601f168201915b50505050508152602001600282015481526020016003820160009054906101000a900473ffffffffffffffffffffffffffffffffffffffff1673ffffffffffffffffffffffffffffffffffffffff1673ffffffffffffffffffffffffffffffffffffffff16815250509050919050565b600160009054906101000a900473ffffffffffffffffffffffffffffffffffffffff1673ffffffffffffffffffffffffffffffffffffffff163373ffffffffffffffffffffffffffffffffffffffff16146104b957600080fd5b6104c1611012565b604051806080016040528086815260200185815260200160025481526020013373ffffffffffffffffffffffffffffffffffffffff16815250905061050860025484610b42565b61051460025483610f9c565b806005600060025481526020019081526020016000206000820151816000019080519060200190610546929190611050565b506020820151816001019080519060200190610563929190611050565b506040820151816002015560608201518160030160006101000a81548173ffffffffffffffffffffffffffffffffffffffff021916908373ffffffffffffffffffffffffffffffffffffffff160217905550905050600381908060018154018082558091505090600182039060005260206000209060040201600090919290919091506000820151816000019080519060200190610602929190611050565b50602082015181600101908051906020019061061f929190611050565b506040820151816002015560608201518160030160006101000a81548173ffffffffffffffffffffffffffffffffffffffff021916908373ffffffffffffffffffffffffffffffffffffffff16021790555050505060016002600082825401925050819055505050505050565b600060076000838152602001908152602001600020549050919050565b60606004805480602002602001604051908101604052809291908181526020016000905b8282101561078c57838290600052602060002090600302016040518060600160405290816000820160009054906101000a900473ffffffffffffffffffffffffffffffffffffffff1673ffffffffffffffffffffffffffffffffffffffff1673ffffffffffffffffffffffffffffffffffffffff168152602001600182015481526020016002820160009054906101000a900460ff16600181111561076e57fe5b600181111561077957fe5b81525050815260200190600101906106cd565b50505050905090565b60606003805480602002602001604051908101604052809291908181526020016000905b8282101561098f5783829060005260206000209060040201604051806080016040529081600082018054600181600116156101000203166002900480601f0160208091040260200160405190810160405280929190818152602001828054600181600116156101000203166002900480156108755780601f1061084a57610100808354040283529160200191610875565b820191906000526020600020905b81548152906001019060200180831161085857829003601f168201915b50505050508152602001600182018054600181600116156101000203166002900480601f0160208091040260200160405190810160405280929190818152602001828054600181600116156101000203166002900480156109175780601f106108ec57610100808354040283529160200191610917565b820191906000526020600020905b8154815290600101906020018083116108fa57829003601f168201915b50505050508152602001600282015481526020016003820160009054906101000a900473ffffffffffffffffffffffffffffffffffffffff1673ffffffffffffffffffffffffffffffffffffffff1673ffffffffffffffffffffffffffffffffffffffff1681525050815260200190600101906107b9565b50505050905090565b600381815481106109a557fe5b9060005260206000209060040201600091509050806000018054600181600116156101000203166002900480601f016020809104026020016040519081016040528092919081815260200182805460018160011615610100020316600290048015610a515780601f10610a2657610100808354040283529160200191610a51565b820191906000526020600020905b815481529060010190602001808311610a3457829003601f168201915b505050505090806001018054600181600116156101000203166002900480601f016020809104026020016040519081016040528092919081815260200182805460018160011615610100020316600290048015610aef5780601f10610ac457610100808354040283529160200191610aef565b820191906000526020600020905b815481529060010190602001808311610ad257829003601f168201915b5050505050908060020154908060030160009054906101000a900473ffffffffffffffffffffffffffffffffffffffff16905084565b600060066000838152602001908152602001600020549050919050565b600160009054906101000a900473ffffffffffffffffffffffffffffffffffffffff1673ffffffffffffffffffffffffffffffffffffffff163373ffffffffffffffffffffffffffffffffffffffff1614610b9c57600080fd5b8060066000848152602001908152602001600020819055505050565b606060006001811115610bc757fe5b826001811115610bd357fe5b1415610d3f576006600084815260200190815260200160002054341015610bf957600080fd5b8373ffffffffffffffffffffffffffffffffffffffff166108fc60066000868152602001908152602001600020549081150290604051600060405180830381858888f19350505050158015610c52573d6000803e3d6000fd5b50600460405180606001604052808673ffffffffffffffffffffffffffffffffffffffff16815260200185815260200160006001811115610c8f57fe5b8152509080600181540180825580915050906001820390600052602060002090600302016000909192909190915060008201518160000160006101000a81548173ffffffffffffffffffffffffffffffffffffffff021916908373ffffffffffffffffffffffffffffffffffffffff1602179055506020820151816001015560408201518160020160006101000a81548160ff02191690836001811115610d3257fe5b0217905550505050610ee3565b600180811115610d4b57fe5b826001811115610d5757fe5b1415610ec2576007600084815260200190815260200160002054341015610d7d57600080fd5b8373ffffffffffffffffffffffffffffffffffffffff166108fc60076000868152602001908152602001600020549081150290604051600060405180830381858888f19350505050158015610dd6573d6000803e3d6000fd5b50600460405180606001604052808673ffffffffffffffffffffffffffffffffffffffff168152602001858152602001600180811115610e1257fe5b8152509080600181540180825580915050906001820390600052602060002090600302016000909192909190915060008201518160000160006101000a81548173ffffffffffffffffffffffffffffffffffffffff021916908373ffffffffffffffffffffffffffffffffffffffff1602179055506020820151816001015560408201518160020160006101000a81548160ff02191690836001811115610eb557fe5b0217905550505050610ee2565b6040518060600160405280602d81526020016118e5602d91399050610f95565b5b600560008481526020019081526020016000206001018054600181600116156101000203166002900480601f016020809104026020016040519081016040528092919081815260200182805460018160011615610100020316600290048015610f8d5780601f10610f6257610100808354040283529160200191610f8d565b820191906000526020600020905b815481529060010190602001808311610f7057829003601f168201915b505050505090505b9392505050565b600160009054906101000a900473ffffffffffffffffffffffffffffffffffffffff1673ffffffffffffffffffffffffffffffffffffffff163373ffffffffffffffffffffffffffffffffffffffff1614610ff657600080fd5b8060076000848152602001908152602001600020819055505050565b6040518060800160405280606081526020016060815260200160008152602001600073ffffffffffffffffffffffffffffffffffffffff1681525090565b828054600181600116156101000203166002900490600052602060002090601f016020900481019282601f1061109157805160ff19168380011785556110bf565b828001600101855582156110bf579182015b828111156110be5782518255916020019190600101906110a3565b5b5090506110cc91906110d0565b5090565b6110f291905b808211156110ee5760008160009055506001016110d6565b5090565b90565b600081359050611104816118a6565b92915050565b600081359050611119816118bd565b92915050565b600082601f83011261113057600080fd5b813561114361113e826116fd565b6116d0565b9150808252602083016020830185838301111561115f57600080fd5b61116a838284611846565b50505092915050565b600081359050611182816118cd565b92915050565b60008060006060848603121561119d57600080fd5b60006111ab868287016110f5565b93505060206111bc86828701611173565b92505060406111cd8682870161110a565b9150509250925092565b600080600080608085870312156111ed57600080fd5b600085013567ffffffffffffffff81111561120757600080fd5b6112138782880161111f565b945050602085013567ffffffffffffffff81111561123057600080fd5b61123c8782880161111f565b935050604061124d87828801611173565b925050606061125e87828801611173565b91505092959194509250565b60006020828403121561127c57600080fd5b600061128a84828501611173565b91505092915050565b600080604083850312156112a657600080fd5b60006112b485828601611173565b92505060206112c585828601611173565b9150509250929050565b60006112db83836114a6565b60608301905092915050565b60006112f38383611552565b905092915050565b611304816117d3565b82525050565b611313816117d3565b82525050565b600061132482611749565b61132e818561178f565b935061133983611729565b8060005b8381101561136a57815161135188826112cf565b975061135c83611775565b92505060018101905061133d565b5085935050505092915050565b600061138282611754565b61138c81856117a0565b93508360208202850161139e85611739565b8060005b858110156113da57848403895281516113bb85826112e7565b94506113c683611782565b925060208a019950506001810190506113a2565b50829750879550505050505092915050565b6113f581611834565b82525050565b60006114068261176a565b61141081856117c2565b9350611420818560208601611855565b61142981611888565b840191505092915050565b600061143f8261175f565b61144981856117b1565b9350611459818560208601611855565b61146281611888565b840191505092915050565b60006114788261175f565b61148281856117c2565b9350611492818560208601611855565b61149b81611888565b840191505092915050565b6060820160008201516114bc60008501826112fb565b5060208201516114cf60208501826115bc565b5060408201516114e260408501826113ec565b50505050565b600060808301600083015184820360008601526115058282611434565b9150506020830151848203602086015261151f8282611434565b915050604083015161153460408601826115bc565b50606083015161154760608601826112fb565b508091505092915050565b6000608083016000830151848203600086015261156f8282611434565b915050602083015184820360208601526115898282611434565b915050604083015161159e60408601826115bc565b5060608301516115b160608601826112fb565b508091505092915050565b6115c58161182a565b82525050565b6115d48161182a565b82525050565b600060208201905081810360008301526115f48184611319565b905092915050565b600060208201905081810360008301526116168184611377565b905092915050565b6000602082019050818103600083015261163881846113fb565b905092915050565b6000608082019050818103600083015261165a818761146d565b9050818103602083015261166e818661146d565b905061167d60408301856115cb565b61168a606083018461130a565b95945050505050565b600060208201905081810360008301526116ad81846114e8565b905092915050565b60006020820190506116ca60008301846115cb565b92915050565b6000604051905081810181811067ffffffffffffffff821117156116f357600080fd5b8060405250919050565b600067ffffffffffffffff82111561171457600080fd5b601f19601f8301169050602081019050919050565b6000819050602082019050919050565b6000819050602082019050919050565b600081519050919050565b600081519050919050565b600081519050919050565b600081519050919050565b6000602082019050919050565b6000602082019050919050565b600082825260208201905092915050565b600082825260208201905092915050565b600082825260208201905092915050565b600082825260208201905092915050565b60006117de8261180a565b9050919050565b60006117f08261180a565b9050919050565b600081905061180582611899565b919050565b600073ffffffffffffffffffffffffffffffffffffffff82169050919050565b6000819050919050565b600061183f826117f7565b9050919050565b82818337600083830152505050565b60005b83811015611873578082015181840152602081019050611858565b83811115611882576000848401525b50505050565b6000601f19601f8301169050919050565b600281106118a357fe5b50565b6118af816117e5565b81146118ba57600080fd5b50565b600281106118ca57600080fd5b50565b6118d68161182a565b81146118e157600080fd5b5056fe496e76616c69642070757263686173652e20436865636b2066756e6473206f72204c6963656e7365547970652ea365627a7a72315820fe306e450054f21c523a218ffb27980c0da556bd31fbb844e6d0f4358b5ed7d36c6578706572696d656e74616cf564736f6c63430005100040",
  "source": "pragma solidity >=0.5.16 <0.9.0;\npragma experimental ABIEncoderV2;\n\ncontract Producer {\n    string prodName;\n    address payable owner;\n    uint idCounter; // used for the Producer's tracks (these are unique only to this contract!)\n\n    // Tracks the producer owns/created\n    Track[] public tracks;\n\n    // Tracks the producer has licenses to\n    LicensedTrack[] private licensedTracks;\n\n    mapping (uint => Track) idToTrack;\n\n    // maps track id to exclusive license price\n    mapping (uint => uint) excluPrice; \n    // maps track id to nonExclusive license price\n    mapping (uint => uint) nonExcluPrice;\n\n\n    \n\n    // trackID -> array of addresses \n    // mapping (uint => address[]) licensedProducers;  \n\n    // address and trackID -> true if licensed\n    // mapping (address => mapping(uint => bool)) private hasExclusiveLicenseMap;\n    // mapping (address => mapping(uint => bool)) private hasNonExclusiveLicenseMap;\n    \n\n    enum LicenseType {Exclusive, NonExclusive}\n\n    event Fallback(string m);\n\n    struct Track {\n        string name;\n        string CID;\n        uint trackID;\n        address trackOwner;\n    }\n\n    // this trackID refers to the trackID from the owner\n    struct LicensedTrack {\n        address owner;\n        uint trackID;\n        LicenseType license;\n    }\n\n    // fallback() external payable {\n    //     // emit Fallback(\"fallback called\");\n    // }\n\n    \n    modifier isOwner() {\n        require(msg.sender == owner);\n        _;\n    }\n\n    modifier hasValidFunds(uint _price) {\n        require(msg.value >= _price);\n        _;\n    }\n    \n    \n    constructor(string memory _prodName, address payable _owner) public {\n        idCounter = 0;\n        prodName = _prodName;\n        owner = _owner;\n\n    }\n    function setExclusivePrice(uint _trackID, uint _price) public isOwner {\n        excluPrice[_trackID] = _price;\n    }\n    function setNonExclusivePrice(uint _trackID, uint _price) public isOwner {\n        nonExcluPrice[_trackID] = _price;\n    }\n\n    function getExclusivePrice(uint _trackID) public view returns(uint) {\n        return excluPrice[_trackID];\n    }\n\n    function getNonExclusivePrice(uint _trackID) public view returns(uint) {\n        return nonExcluPrice[_trackID];\n    }\n\n    // When a user uploads a new track; CID is created in browser\n    function createTrack(string memory _name, string memory _CID, uint _excluPrice, uint _nonExcluPrice) public isOwner {\n        Track memory t = Track(_name, _CID, idCounter, msg.sender);\n        setExclusivePrice(idCounter, _excluPrice);\n        setNonExclusivePrice(idCounter, _nonExcluPrice);\n        idToTrack[idCounter] = t;\n        tracks.push(t);\n        idCounter += 1;\n    }\n\n    // a producer wants to buy a license for a track\n    // only place licensedTracks gets updated\n    function buyLicense(address payable _owner, uint _trackID, LicenseType _licenseType) public payable returns(string memory) {\n        if (_licenseType == LicenseType.Exclusive) {\n            require(msg.value >= excluPrice[_trackID]);\n            // pay the producer\n            _owner.transfer(excluPrice[_trackID]);\n\n            // add track to licensedTracks\n            licensedTracks.push(LicensedTrack(_owner, _trackID, LicenseType.Exclusive));\n        }\n\n        else if (_licenseType == LicenseType.NonExclusive) {\n            require(msg.value >= nonExcluPrice[_trackID]);\n            _owner.transfer(nonExcluPrice[_trackID]);\n            licensedTracks.push(LicensedTrack(_owner, _trackID, LicenseType.NonExclusive));\n        }\n\n        else {\n            return \"Invalid purchase. Check funds or LicenseType.\";\n        }\n\n        return idToTrack[_trackID].CID;\n    }\n\n    // function exclusiveLicenseSold(uint _trackID) private {\n    //     hasExclusiveLicense[msg.sender][_trackID] = true;\n    //     licensedProducers[_trackID].push(msg.sender);\n    // }\n\n    // function nonExclusiveLicenseSold(uint _trackID) private {\n    //     hasNonExclusiveLicense[msg.sender][_trackID] = true;\n    //     licensedProducers[_trackID].push(msg.sender);\n    // }\n\n\n    function getTrack(uint _trackID) external view returns(Track memory) {\n        return idToTrack[_trackID];\n    }\n\n    function getTracks() public view returns(Track[] memory) {\n        return tracks;\n    }\n\n    function getLicensedTracks() public view returns(LicensedTrack[] memory) {\n        return licensedTracks;\n    }\n\n    // function sellLicense(){}\n    // function hasExclusiveLicense(address _holder, uint _trackID) public {\n    //     return hasExclusiveLicenseMap[_holder][_trackID];\n    // }\n    // function hasNonExclusiveLicense(address _holder, uint _trackID) public {\n    //     return hasExclusiveLicenseMap[_holder][_trackID];\n    // }\n\n    \n\n    \n}",
  "sourcePath": "/Users/akhoshrozeh/Projects/consensys21/blockchain-developer-bootcamp-final-project/truffle/contracts/Producer.sol",
  "compiler": {
    "name": "solc",
    "version": "0.5.16+commit.9c3226ce.Emscripten.clang"
  },
  "schemaVersion": "3.4.3",
  "updatedAt": "2021-11-24T01:48:32.350Z",
  "devdoc": {
    "methods": {}
  },
  "userdoc": {
    "methods": {}
  }
}