{
  "contractName": "ProducerFactory",
  "abi": [
    {
      "anonymous": false,
      "inputs": [
        {
          "indexed": false,
          "internalType": "address",
          "name": "owner",
          "type": "address"
        }
      ],
      "name": "ProducerCreated",
      "type": "event"
    },
    {
      "inputs": [
        {
          "internalType": "uint256",
          "name": "",
          "type": "uint256"
        }
      ],
      "name": "prodAddresses",
      "outputs": [
        {
          "internalType": "address",
          "name": "",
          "type": "address"
        }
      ],
      "stateMutability": "view",
      "type": "function"
    },
    {
      "inputs": [
        {
          "internalType": "string",
          "name": "_name",
          "type": "string"
        }
      ],
      "name": "createProducer",
      "outputs": [
        {
          "internalType": "address",
          "name": "",
          "type": "address"
        }
      ],
      "stateMutability": "nonpayable",
      "type": "function"
    },
    {
      "inputs": [],
      "name": "getProducers",
      "outputs": [
        {
          "internalType": "address[]",
          "name": "",
          "type": "address[]"
        }
      ],
      "stateMutability": "view",
      "type": "function"
    },
    {
      "inputs": [
        {
          "internalType": "address",
          "name": "_prodAddr",
          "type": "address"
        }
      ],
      "name": "getProducer",
      "outputs": [
        {
          "internalType": "contract Producer",
          "name": "",
          "type": "address"
        }
      ],
      "stateMutability": "view",
      "type": "function"
    },
    {
      "inputs": [
        {
          "internalType": "address",
          "name": "_producer",
          "type": "address"
        }
      ],
      "name": "producerExists",
      "outputs": [
        {
          "internalType": "bool",
          "name": "",
          "type": "bool"
        }
      ],
      "stateMutability": "view",
      "type": "function"
    },
    {
      "inputs": [
        {
          "internalType": "address",
          "name": "_owner",
          "type": "address"
        }
      ],
      "name": "getOwnersContract",
      "outputs": [
        {
          "internalType": "address",
          "name": "",
          "type": "address"
        }
      ],
      "stateMutability": "view",
      "type": "function"
    }
  ],
  "bytecode": "0x608060405234801561001057600080fd5b50613019806100206000396000f3fe60806040523480156200001157600080fd5b50600436106200006a5760003560e01c8063aab147b2146200006f578063bf78e36f14620000a5578063d0e2539a14620000db578063e80a7eb91462000111578063e9e797ac1462000133578063ff25058f1462000169575b600080fd5b6200008d600480360381019062000087919062000718565b6200019f565b6040516200009c9190620007b5565b60405180910390f35b620000c36004803603810190620000bd91906200080d565b62000208565b604051620000d2919062000850565b60405180910390f35b620000f96004803603810190620000f39190620009cf565b62000248565b60405162000108919062000850565b60405180910390f35b6200011b62000542565b6040516200012a919062000aee565b60405180910390f35b6200015160048036038101906200014b919062000718565b620005d2565b60405162000160919062000b2f565b60405180910390f35b62000187600480360381019062000181919062000718565b62000628565b60405162000196919062000850565b60405180910390f35b6000600260008373ffffffffffffffffffffffffffffffffffffffff1673ffffffffffffffffffffffffffffffffffffffff16815260200190815260200160002060009054906101000a900473ffffffffffffffffffffffffffffffffffffffff169050919050565b600181815481106200021957600080fd5b906000526020600020016000915054906101000a900473ffffffffffffffffffffffffffffffffffffffff1681565b6000801515600360003373ffffffffffffffffffffffffffffffffffffffff1673ffffffffffffffffffffffffffffffffffffffff16815260200190815260200160002060009054906101000a900460ff16151514620002a757600080fd5b60008233604051620002b99062000691565b620002c692919062000c04565b604051809103906000f080158015620002e3573d6000803e3d6000fd5b50905080600260003373ffffffffffffffffffffffffffffffffffffffff1673ffffffffffffffffffffffffffffffffffffffff16815260200190815260200160002060006101000a81548173ffffffffffffffffffffffffffffffffffffffff021916908373ffffffffffffffffffffffffffffffffffffffff16021790555080600460003373ffffffffffffffffffffffffffffffffffffffff1673ffffffffffffffffffffffffffffffffffffffff16815260200190815260200160002060006101000a81548173ffffffffffffffffffffffffffffffffffffffff021916908373ffffffffffffffffffffffffffffffffffffffff1602179055506001819080600181540180825580915050600190039060005260206000200160009091909190916101000a81548173ffffffffffffffffffffffffffffffffffffffff021916908373ffffffffffffffffffffffffffffffffffffffff1602179055506000819080600181540180825580915050600190039060005260206000200160009091909190916101000a81548173ffffffffffffffffffffffffffffffffffffffff021916908373ffffffffffffffffffffffffffffffffffffffff1602179055506001600360003373ffffffffffffffffffffffffffffffffffffffff1673ffffffffffffffffffffffffffffffffffffffff16815260200190815260200160002060006101000a81548160ff0219169083151502179055507f3dec7531f77a5f3fe7a45c242f2e4e70cfae191f7ee59a4df46ea8e8204ba4c03360405162000531919062000850565b60405180910390a180915050919050565b60606001805480602002602001604051908101604052809291908181526020018280548015620005c857602002820191906000526020600020905b8160009054906101000a900473ffffffffffffffffffffffffffffffffffffffff1673ffffffffffffffffffffffffffffffffffffffff16815260200190600101908083116200057d575b5050505050905090565b6000600360008373ffffffffffffffffffffffffffffffffffffffff1673ffffffffffffffffffffffffffffffffffffffff16815260200190815260200160002060009054906101000a900460ff169050919050565b6000600460008373ffffffffffffffffffffffffffffffffffffffff1673ffffffffffffffffffffffffffffffffffffffff16815260200190815260200160002060009054906101000a900473ffffffffffffffffffffffffffffffffffffffff169050919050565b6123ab8062000c3983390190565b6000604051905090565b600080fd5b600080fd5b600073ffffffffffffffffffffffffffffffffffffffff82169050919050565b6000620006e082620006b3565b9050919050565b620006f281620006d3565b8114620006fe57600080fd5b50565b6000813590506200071281620006e7565b92915050565b600060208284031215620007315762000730620006a9565b5b6000620007418482850162000701565b91505092915050565b6000819050919050565b6000620007756200076f6200076984620006b3565b6200074a565b620006b3565b9050919050565b6000620007898262000754565b9050919050565b60006200079d826200077c565b9050919050565b620007af8162000790565b82525050565b6000602082019050620007cc6000830184620007a4565b92915050565b6000819050919050565b620007e781620007d2565b8114620007f357600080fd5b50565b6000813590506200080781620007dc565b92915050565b600060208284031215620008265762000825620006a9565b5b60006200083684828501620007f6565b91505092915050565b6200084a81620006d3565b82525050565b60006020820190506200086760008301846200083f565b92915050565b600080fd5b600080fd5b6000601f19601f8301169050919050565b7f4e487b7100000000000000000000000000000000000000000000000000000000600052604160045260246000fd5b620008c28262000877565b810181811067ffffffffffffffff82111715620008e457620008e362000888565b5b80604052505050565b6000620008f96200069f565b9050620009078282620008b7565b919050565b600067ffffffffffffffff8211156200092a576200092962000888565b5b620009358262000877565b9050602081019050919050565b82818337600083830152505050565b60006200096862000962846200090c565b620008ed565b90508281526020810184848401111562000987576200098662000872565b5b6200099484828562000942565b509392505050565b600082601f830112620009b457620009b36200086d565b5b8135620009c684826020860162000951565b91505092915050565b600060208284031215620009e857620009e7620006a9565b5b600082013567ffffffffffffffff81111562000a095762000a08620006ae565b5b62000a17848285016200099c565b91505092915050565b600081519050919050565b600082825260208201905092915050565b6000819050602082019050919050565b62000a5781620006d3565b82525050565b600062000a6b838362000a4c565b60208301905092915050565b6000602082019050919050565b600062000a918262000a20565b62000a9d818562000a2b565b935062000aaa8362000a3c565b8060005b8381101562000ae157815162000ac5888262000a5d565b975062000ad28362000a77565b92505060018101905062000aae565b5085935050505092915050565b6000602082019050818103600083015262000b0a818462000a84565b905092915050565b60008115159050919050565b62000b298162000b12565b82525050565b600060208201905062000b46600083018462000b1e565b92915050565b600081519050919050565b600082825260208201905092915050565b60005b8381101562000b8857808201518184015260208101905062000b6b565b8381111562000b98576000848401525b50505050565b600062000bab8262000b4c565b62000bb7818562000b57565b935062000bc981856020860162000b68565b62000bd48162000877565b840191505092915050565b600062000bec82620006b3565b9050919050565b62000bfe8162000bdf565b82525050565b6000604082019050818103600083015262000c20818562000b9e565b905062000c31602083018462000bf3565b939250505056fe60806040523480156200001157600080fd5b50604051620023ab380380620023ab833981810160405281019062000037919062000353565b6000600281905550816000908051906020019062000057929190620000a1565b5080600160006101000a81548173ffffffffffffffffffffffffffffffffffffffff021916908373ffffffffffffffffffffffffffffffffffffffff16021790555050506200041e565b828054620000af90620003e8565b90600052602060002090601f016020900481019282620000d357600085556200011f565b82601f10620000ee57805160ff19168380011785556200011f565b828001600101855582156200011f579182015b828111156200011e57825182559160200191906001019062000101565b5b5090506200012e919062000132565b5090565b5b808211156200014d57600081600090555060010162000133565b5090565b6000604051905090565b600080fd5b600080fd5b600080fd5b600080fd5b6000601f19601f8301169050919050565b7f4e487b7100000000000000000000000000000000000000000000000000000000600052604160045260246000fd5b620001ba826200016f565b810181811067ffffffffffffffff82111715620001dc57620001db62000180565b5b80604052505050565b6000620001f162000151565b9050620001ff8282620001af565b919050565b600067ffffffffffffffff82111562000222576200022162000180565b5b6200022d826200016f565b9050602081019050919050565b60005b838110156200025a5780820151818401526020810190506200023d565b838111156200026a576000848401525b50505050565b600062000287620002818462000204565b620001e5565b905082815260208101848484011115620002a657620002a56200016a565b5b620002b38482856200023a565b509392505050565b600082601f830112620002d357620002d262000165565b5b8151620002e584826020860162000270565b91505092915050565b600073ffffffffffffffffffffffffffffffffffffffff82169050919050565b60006200031b82620002ee565b9050919050565b6200032d816200030e565b81146200033957600080fd5b50565b6000815190506200034d8162000322565b92915050565b600080604083850312156200036d576200036c6200015b565b5b600083015167ffffffffffffffff8111156200038e576200038d62000160565b5b6200039c85828601620002bb565b9250506020620003af858286016200033c565b9150509250929050565b7f4e487b7100000000000000000000000000000000000000000000000000000000600052602260045260246000fd5b600060028204905060018216806200040157607f821691505b60208210811415620004185762000417620003b9565b5b50919050565b611f7d806200042e6000396000f3fe60806040526004361061009c5760003560e01c806387548fcf1161006457806387548fcf1461019a5780638a38a8ee146101c5578063a2e34586146101f5578063a87b509014610235578063add4856414610272578063c5b4c26a1461029b5761009c565b806317d7de7c146100a1578063629058ca146100cc5780636ad6dac214610109578063711a59021461013257806384e7b1ab1461016f575b600080fd5b3480156100ad57600080fd5b506100b66102c4565b6040516100c3919061149b565b60405180910390f35b3480156100d857600080fd5b506100f360048036038101906100ee9190611507565b610356565b6040516101009190611638565b60405180910390f35b34801561011557600080fd5b50610130600480360381019061012b919061178f565b610507565b005b34801561013e57600080fd5b5061015960048036038101906101549190611507565b610734565b604051610166919061183d565b60405180910390f35b34801561017b57600080fd5b50610184610751565b60405161019191906119d3565b60405180910390f35b3480156101a657600080fd5b506101af6108a1565b6040516101bc9190611b21565b60405180910390f35b6101df60048036038101906101da9190611bd2565b610a84565b6040516101ec919061149b565b60405180910390f35b34801561020157600080fd5b5061021c60048036038101906102179190611507565b6110a8565b60405161022c9493929190611c48565b60405180910390f35b34801561024157600080fd5b5061025c60048036038101906102579190611507565b611218565b604051610269919061183d565b60405180910390f35b34801561027e57600080fd5b5061029960048036038101906102949190611c9b565b611235565b005b3480156102a757600080fd5b506102c260048036038101906102bd9190611c9b565b6112ab565b005b6060600080546102d390611d0a565b80601f01602080910402602001604051908101604052809291908181526020018280546102ff90611d0a565b801561034c5780601f106103215761010080835404028352916020019161034c565b820191906000526020600020905b81548152906001019060200180831161032f57829003601f168201915b5050505050905090565b61035e611321565b6005600083815260200190815260200160002060405180608001604052908160008201805461038c90611d0a565b80601f01602080910402602001604051908101604052809291908181526020018280546103b890611d0a565b80156104055780601f106103da57610100808354040283529160200191610405565b820191906000526020600020905b8154815290600101906020018083116103e857829003601f168201915b5050505050815260200160018201805461041e90611d0a565b80601f016020809104026020016040519081016040528092919081815260200182805461044a90611d0a565b80156104975780601f1061046c57610100808354040283529160200191610497565b820191906000526020600020905b81548152906001019060200180831161047a57829003601f168201915b50505050508152602001600282015481526020016003820160009054906101000a900473ffffffffffffffffffffffffffffffffffffffff1673ffffffffffffffffffffffffffffffffffffffff1673ffffffffffffffffffffffffffffffffffffffff16815250509050919050565b600160009054906101000a900473ffffffffffffffffffffffffffffffffffffffff1673ffffffffffffffffffffffffffffffffffffffff163373ffffffffffffffffffffffffffffffffffffffff161461056157600080fd5b6000604051806080016040528086815260200185815260200160025481526020013373ffffffffffffffffffffffffffffffffffffffff1681525090506105aa60025484611235565b6105b6600254836112ab565b8060056000600254815260200190815260200160002060008201518160000190805190602001906105e892919061135f565b50602082015181600101908051906020019061060592919061135f565b506040820151816002015560608201518160030160006101000a81548173ffffffffffffffffffffffffffffffffffffffff021916908373ffffffffffffffffffffffffffffffffffffffff160217905550905050600381908060018154018082558091505060019003906000526020600020906004020160009091909190915060008201518160000190805190602001906106a292919061135f565b5060208201518160010190805190602001906106bf92919061135f565b506040820151816002015560608201518160030160006101000a81548173ffffffffffffffffffffffffffffffffffffffff021916908373ffffffffffffffffffffffffffffffffffffffff16021790555050506001600260008282546107269190611d6b565b925050819055505050505050565b600060076000838152602001908152602001600020549050919050565b60606004805480602002602001604051908101604052809291908181526020016000905b8282101561089857838290600052602060002090600402016040518060800160405290816000820160009054906101000a900473ffffffffffffffffffffffffffffffffffffffff1673ffffffffffffffffffffffffffffffffffffffff1673ffffffffffffffffffffffffffffffffffffffff1681526020016001820160009054906101000a900473ffffffffffffffffffffffffffffffffffffffff1673ffffffffffffffffffffffffffffffffffffffff1673ffffffffffffffffffffffffffffffffffffffff168152602001600282015481526020016003820160009054906101000a900460ff16600181111561087357610872611884565b5b600181111561088557610884611884565b5b8152505081526020019060010190610775565b50505050905090565b60606003805480602002602001604051908101604052809291908181526020016000905b82821015610a7b57838290600052602060002090600402016040518060800160405290816000820180546108f890611d0a565b80601f016020809104026020016040519081016040528092919081815260200182805461092490611d0a565b80156109715780601f1061094657610100808354040283529160200191610971565b820191906000526020600020905b81548152906001019060200180831161095457829003601f168201915b5050505050815260200160018201805461098a90611d0a565b80601f01602080910402602001604051908101604052809291908181526020018280546109b690611d0a565b8015610a035780601f106109d857610100808354040283529160200191610a03565b820191906000526020600020905b8154815290600101906020018083116109e657829003601f168201915b50505050508152602001600282015481526020016003820160009054906101000a900473ffffffffffffffffffffffffffffffffffffffff1673ffffffffffffffffffffffffffffffffffffffff1673ffffffffffffffffffffffffffffffffffffffff1681525050815260200190600101906108c5565b50505050905090565b60608473ffffffffffffffffffffffffffffffffffffffff163373ffffffffffffffffffffffffffffffffffffffff161415610abf57600080fd5b60006001811115610ad357610ad2611884565b5b826001811115610ae657610ae5611884565b5b1480610b155750600180811115610b0057610aff611884565b5b826001811115610b1357610b12611884565b5b145b610b54576040517f08c379a0000000000000000000000000000000000000000000000000000000008152600401610b4b90611e33565b60405180910390fd5b60008085905060006001811115610b6e57610b6d611884565b5b846001811115610b8157610b80611884565b5b1415610e17578073ffffffffffffffffffffffffffffffffffffffff1663a87b5090866040518263ffffffff1660e01b8152600401610bc0919061183d565b602060405180830381865afa158015610bdd573d6000803e3d6000fd5b505050506040513d601f19601f82011682018060405250810190610c019190611e68565b915081341015610c1057600080fd5b60008773ffffffffffffffffffffffffffffffffffffffff1634604051610c3690611ec6565b60006040518083038185875af1925050503d8060008114610c73576040519150601f19603f3d011682016040523d82523d6000602084013e610c78565b606091505b5050905080610cbc576040517f08c379a0000000000000000000000000000000000000000000000000000000008152600401610cb390611f27565b60405180910390fd5b600460405180608001604052808a73ffffffffffffffffffffffffffffffffffffffff1681526020018973ffffffffffffffffffffffffffffffffffffffff16815260200188815260200160006001811115610d1b57610d1a611884565b5b815250908060018154018082558091505060019003906000526020600020906004020160009091909190915060008201518160000160006101000a81548173ffffffffffffffffffffffffffffffffffffffff021916908373ffffffffffffffffffffffffffffffffffffffff16021790555060208201518160010160006101000a81548173ffffffffffffffffffffffffffffffffffffffff021916908373ffffffffffffffffffffffffffffffffffffffff1602179055506040820151816002015560608201518160030160006101000a81548160ff02191690836001811115610e0a57610e09611884565b5b0217905550505050611065565b600180811115610e2a57610e29611884565b5b846001811115610e3d57610e3c611884565b5b1415611025578073ffffffffffffffffffffffffffffffffffffffff1663711a5902866040518263ffffffff1660e01b8152600401610e7c919061183d565b602060405180830381865afa158015610e99573d6000803e3d6000fd5b505050506040513d601f19601f82011682018060405250810190610ebd9190611e68565b915081341015610ecc57600080fd5b600460405180608001604052808973ffffffffffffffffffffffffffffffffffffffff1681526020018873ffffffffffffffffffffffffffffffffffffffff168152602001878152602001600180811115610f2a57610f29611884565b5b815250908060018154018082558091505060019003906000526020600020906004020160009091909190915060008201518160000160006101000a81548173ffffffffffffffffffffffffffffffffffffffff021916908373ffffffffffffffffffffffffffffffffffffffff16021790555060208201518160010160006101000a81548173ffffffffffffffffffffffffffffffffffffffff021916908373ffffffffffffffffffffffffffffffffffffffff1602179055506040820151816002015560608201518160030160006101000a81548160ff0219169083600181111561101957611018611884565b5b02179055505050611064565b6040518060400160405280601c81526020017f436f756c64206e6f7420636f6d706c6574652070757263686173652100000000815250925050506110a0565b5b6040518060400160405280600b81526020017f66756e632063616c6c6564000000000000000000000000000000000000000000815250925050505b949350505050565b600381815481106110b857600080fd5b90600052602060002090600402016000915090508060000180546110db90611d0a565b80601f016020809104026020016040519081016040528092919081815260200182805461110790611d0a565b80156111545780601f1061112957610100808354040283529160200191611154565b820191906000526020600020905b81548152906001019060200180831161113757829003601f168201915b50505050509080600101805461116990611d0a565b80601f016020809104026020016040519081016040528092919081815260200182805461119590611d0a565b80156111e25780601f106111b7576101008083540402835291602001916111e2565b820191906000526020600020905b8154815290600101906020018083116111c557829003601f168201915b5050505050908060020154908060030160009054906101000a900473ffffffffffffffffffffffffffffffffffffffff16905084565b600060066000838152602001908152602001600020549050919050565b600160009054906101000a900473ffffffffffffffffffffffffffffffffffffffff1673ffffffffffffffffffffffffffffffffffffffff163373ffffffffffffffffffffffffffffffffffffffff161461128f57600080fd5b8060066000848152602001908152602001600020819055505050565b600160009054906101000a900473ffffffffffffffffffffffffffffffffffffffff1673ffffffffffffffffffffffffffffffffffffffff163373ffffffffffffffffffffffffffffffffffffffff161461130557600080fd5b8060076000848152602001908152602001600020819055505050565b6040518060800160405280606081526020016060815260200160008152602001600073ffffffffffffffffffffffffffffffffffffffff1681525090565b82805461136b90611d0a565b90600052602060002090601f01602090048101928261138d57600085556113d4565b82601f106113a657805160ff19168380011785556113d4565b828001600101855582156113d4579182015b828111156113d35782518255916020019190600101906113b8565b5b5090506113e191906113e5565b5090565b5b808211156113fe5760008160009055506001016113e6565b5090565b600081519050919050565b600082825260208201905092915050565b60005b8381101561143c578082015181840152602081019050611421565b8381111561144b576000848401525b50505050565b6000601f19601f8301169050919050565b600061146d82611402565b611477818561140d565b935061148781856020860161141e565b61149081611451565b840191505092915050565b600060208201905081810360008301526114b58184611462565b905092915050565b6000604051905090565b600080fd5b600080fd5b6000819050919050565b6114e4816114d1565b81146114ef57600080fd5b50565b600081359050611501816114db565b92915050565b60006020828403121561151d5761151c6114c7565b5b600061152b848285016114f2565b91505092915050565b600082825260208201905092915050565b600061155082611402565b61155a8185611534565b935061156a81856020860161141e565b61157381611451565b840191505092915050565b611587816114d1565b82525050565b600073ffffffffffffffffffffffffffffffffffffffff82169050919050565b60006115b88261158d565b9050919050565b6115c8816115ad565b82525050565b600060808301600083015184820360008601526115eb8282611545565b915050602083015184820360208601526116058282611545565b915050604083015161161a604086018261157e565b50606083015161162d60608601826115bf565b508091505092915050565b6000602082019050818103600083015261165281846115ce565b905092915050565b600080fd5b600080fd5b7f4e487b7100000000000000000000000000000000000000000000000000000000600052604160045260246000fd5b61169c82611451565b810181811067ffffffffffffffff821117156116bb576116ba611664565b5b80604052505050565b60006116ce6114bd565b90506116da8282611693565b919050565b600067ffffffffffffffff8211156116fa576116f9611664565b5b61170382611451565b9050602081019050919050565b82818337600083830152505050565b600061173261172d846116df565b6116c4565b90508281526020810184848401111561174e5761174d61165f565b5b611759848285611710565b509392505050565b600082601f8301126117765761177561165a565b5b813561178684826020860161171f565b91505092915050565b600080600080608085870312156117a9576117a86114c7565b5b600085013567ffffffffffffffff8111156117c7576117c66114cc565b5b6117d387828801611761565b945050602085013567ffffffffffffffff8111156117f4576117f36114cc565b5b61180087828801611761565b9350506040611811878288016114f2565b9250506060611822878288016114f2565b91505092959194509250565b611837816114d1565b82525050565b6000602082019050611852600083018461182e565b92915050565b600081519050919050565b600082825260208201905092915050565b6000819050602082019050919050565b7f4e487b7100000000000000000000000000000000000000000000000000000000600052602160045260246000fd5b600281106118c4576118c3611884565b5b50565b60008190506118d5826118b3565b919050565b60006118e5826118c7565b9050919050565b6118f5816118da565b82525050565b60808201600082015161191160008501826115bf565b50602082015161192460208501826115bf565b506040820151611937604085018261157e565b50606082015161194a60608501826118ec565b50505050565b600061195c83836118fb565b60808301905092915050565b6000602082019050919050565b600061198082611858565b61198a8185611863565b935061199583611874565b8060005b838110156119c65781516119ad8882611950565b97506119b883611968565b925050600181019050611999565b5085935050505092915050565b600060208201905081810360008301526119ed8184611975565b905092915050565b600081519050919050565b600082825260208201905092915050565b6000819050602082019050919050565b60006080830160008301518482036000860152611a3e8282611545565b91505060208301518482036020860152611a588282611545565b9150506040830151611a6d604086018261157e565b506060830151611a8060608601826115bf565b508091505092915050565b6000611a978383611a21565b905092915050565b6000602082019050919050565b6000611ab7826119f5565b611ac18185611a00565b935083602082028501611ad385611a11565b8060005b85811015611b0f5784840389528151611af08582611a8b565b9450611afb83611a9f565b925060208a01995050600181019050611ad7565b50829750879550505050505092915050565b60006020820190508181036000830152611b3b8184611aac565b905092915050565b6000611b4e8261158d565b9050919050565b611b5e81611b43565b8114611b6957600080fd5b50565b600081359050611b7b81611b55565b92915050565b611b8a816115ad565b8114611b9557600080fd5b50565b600081359050611ba781611b81565b92915050565b60028110611bba57600080fd5b50565b600081359050611bcc81611bad565b92915050565b60008060008060808587031215611bec57611beb6114c7565b5b6000611bfa87828801611b6c565b9450506020611c0b87828801611b98565b9350506040611c1c878288016114f2565b9250506060611c2d87828801611bbd565b91505092959194509250565b611c42816115ad565b82525050565b60006080820190508181036000830152611c628187611462565b90508181036020830152611c768186611462565b9050611c85604083018561182e565b611c926060830184611c39565b95945050505050565b60008060408385031215611cb257611cb16114c7565b5b6000611cc0858286016114f2565b9250506020611cd1858286016114f2565b9150509250929050565b7f4e487b7100000000000000000000000000000000000000000000000000000000600052602260045260246000fd5b60006002820490506001821680611d2257607f821691505b60208210811415611d3657611d35611cdb565b5b50919050565b7f4e487b7100000000000000000000000000000000000000000000000000000000600052601160045260246000fd5b6000611d76826114d1565b9150611d81836114d1565b9250827fffffffffffffffffffffffffffffffffffffffffffffffffffffffffffffffff03821115611db657611db5611d3c565b5b828201905092915050565b7f456e74657220612076616c6964204c6963656e736554797065202830206f722060008201527f3129000000000000000000000000000000000000000000000000000000000000602082015250565b6000611e1d60228361140d565b9150611e2882611dc1565b604082019050919050565b60006020820190508181036000830152611e4c81611e10565b9050919050565b600081519050611e62816114db565b92915050565b600060208284031215611e7e57611e7d6114c7565b5b6000611e8c84828501611e53565b91505092915050565b600081905092915050565b50565b6000611eb0600083611e95565b9150611ebb82611ea0565b600082019050919050565b6000611ed182611ea3565b9150819050919050565b7f4661696c656420746f2073656e64204574686572000000000000000000000000600082015250565b6000611f1160148361140d565b9150611f1c82611edb565b602082019050919050565b60006020820190508181036000830152611f4081611f04565b905091905056fea26469706673582212205d44754d3529f146b636bda368839c0a0fafae3b489ea6b3b08c24d44d5f163164736f6c634300080a0033a2646970667358221220e519cedcde64936eaf4799ab9065b30bb86feec7f999590fb0a9193a912c1c2264736f6c634300080a0033",
  "immutableReferences": {},
  "source": "pragma solidity 0.8.10;\n// pragma solidity >=0.5.16 <0.9.0;\n// pragma experimental ABIEncoderV2;\n// farm enemy snake boss sunset wolf action humble motor donkey under cream\nimport './Producer.sol';\n\ncontract ProducerFactory {\n    Producer[] producers;\n    address[] public prodAddresses;\n    mapping (address => Producer) private addressToProdID;\n    mapping (address => bool) private producerExistsMap;\n    mapping (address => address) private ownerToContract;\n\n    // struct Track {\n    //     string name;\n    //     string CID;\n    //     uint trackID;\n    //     address trackOwner;\n    // }\n\n    event ProducerCreated(address owner);\n\n    modifier isProducer() {\n        require(producerExistsMap[msg.sender] == true);\n        _;\n    }\n\n    function createProducer(string memory _name) public returns(address){\n        require(producerExistsMap[msg.sender] == false);\n        Producer p = new Producer(_name, payable(msg.sender));\n        addressToProdID[msg.sender] = p;\n        ownerToContract[msg.sender] = address(p);\n        prodAddresses.push(address(p));\n        producers.push(p);\n        producerExistsMap[msg.sender] = true;\n        emit ProducerCreated(msg.sender);\n        return address(p);\n    }\n\n    function getProducers() public view returns(address[] memory) {\n        return prodAddresses;\n    }\n\n    function getProducer(address _prodAddr) public view returns(Producer) {\n        return addressToProdID[_prodAddr];\n    }\n\n    function producerExists(address _producer) public view returns(bool) {\n        return producerExistsMap[_producer];\n    }\n\n    function getOwnersContract(address _owner) public view returns(address) {\n        return ownerToContract[_owner];\n    }\n\n    // function getTrack(address _owner, uint _trackID) public returns(Track memory){\n    //     return addressToProdID[_owner].getTrack(_trackID);\n    // }\n\n    // function getTracks(address _owner) public returns (Track[] memory) {\n    //     return addressToProdID[_owner].getTracks();\n    // }\n\n\n    // // should use the mapping\n    // function verifyExlusiveLicense(address _owner, address _licenseHolder, uint _trackID) public returns(bool) {\n    //     return addressToProdID[_owner].hasExclusiveLicense(_licenseHolder, _trackID);\n    // }\n\n    // function verifyNonExlusiveLicense(address _owner, address _licenseHolder, uint _trackID) public returns(bool) {\n    //     return addressToProdID[_owner].hasNonExclusiveLicense(_licenseHolder, _trackID);\n    // }\n\n}",
  "sourcePath": "/Users/akhoshrozeh/Projects/consensys21/blockchain-developer-bootcamp-final-project/truffle/contracts/ProducerFactory.sol",
  "compiler": {
    "name": "solc",
    "version": "0.8.10+commit.fc410830.Emscripten.clang"
  },
  "schemaVersion": "3.4.3",
  "updatedAt": "2021-12-12T05:52:18.439Z",
  "devdoc": {
    "kind": "dev",
    "methods": {},
    "version": 1
  },
  "userdoc": {
    "kind": "user",
    "methods": {},
    "version": 1
  }
}