{
  "contractName": "ProducerFactory",
  "abi": [
    {
      "anonymous": false,
      "inputs": [
        {
          "indexed": false,
          "internalType": "address",
          "name": "owner",
          "type": "address"
        }
      ],
      "name": "ProducerCreated",
      "type": "event"
    },
    {
      "constant": false,
      "inputs": [
        {
          "internalType": "string",
          "name": "_name",
          "type": "string"
        }
      ],
      "name": "createProducer",
      "outputs": [],
      "payable": false,
      "stateMutability": "nonpayable",
      "type": "function"
    },
    {
      "constant": true,
      "inputs": [],
      "name": "getProducers",
      "outputs": [
        {
          "internalType": "contract Producer[]",
          "name": "",
          "type": "address[]"
        }
      ],
      "payable": false,
      "stateMutability": "view",
      "type": "function"
    },
    {
      "constant": true,
      "inputs": [
        {
          "internalType": "address",
          "name": "_prodAddr",
          "type": "address"
        }
      ],
      "name": "getProducer",
      "outputs": [
        {
          "internalType": "contract Producer",
          "name": "",
          "type": "address"
        }
      ],
      "payable": false,
      "stateMutability": "view",
      "type": "function"
    }
  ],
  "bytecode": "0x608060405234801561001057600080fd5b506121dc806100206000396000f3fe60806040523480156200001157600080fd5b5060043610620000465760003560e01c8063aab147b2146200004b578063d0e2539a1462000081578063e80a7eb914620000a1575b600080fd5b62000069600480360362000063919081019062000364565b620000c3565b604051620000789190620004f1565b60405180910390f35b6200009f600480360362000099919081019062000390565b6200012c565b005b620000ab62000253565b604051620000ba9190620004cd565b60405180910390f35b6000600160008373ffffffffffffffffffffffffffffffffffffffff1673ffffffffffffffffffffffffffffffffffffffff16815260200190815260200160002060009054906101000a900473ffffffffffffffffffffffffffffffffffffffff169050919050565b600081336040516200013e90620002e3565b6200014b9291906200050e565b604051809103906000f08015801562000168573d6000803e3d6000fd5b50905080600160003373ffffffffffffffffffffffffffffffffffffffff1673ffffffffffffffffffffffffffffffffffffffff16815260200190815260200160002060006101000a81548173ffffffffffffffffffffffffffffffffffffffff021916908373ffffffffffffffffffffffffffffffffffffffff16021790555060008190806001815401808255809150509060018203906000526020600020016000909192909190916101000a81548173ffffffffffffffffffffffffffffffffffffffff021916908373ffffffffffffffffffffffffffffffffffffffff160217905550505050565b60606000805480602002602001604051908101604052809291908181526020018280548015620002d957602002820191906000526020600020905b8160009054906101000a900473ffffffffffffffffffffffffffffffffffffffff1673ffffffffffffffffffffffffffffffffffffffff16815260200190600101908083116200028e575b5050505050905090565b611ac780620006d383390190565b6000813590506200030281620006b8565b92915050565b600082601f8301126200031a57600080fd5b8135620003316200032b8262000570565b62000542565b915080825260208301602083018583830111156200034e57600080fd5b6200035b83828462000662565b50505092915050565b6000602082840312156200037757600080fd5b60006200038784828501620002f1565b91505092915050565b600060208284031215620003a357600080fd5b600082013567ffffffffffffffff811115620003be57600080fd5b620003cc8482850162000308565b91505092915050565b6000620003e383836200046a565b60208301905092915050565b620003fa8162000606565b82525050565b60006200040d82620005ad565b620004198185620005d0565b935062000426836200059d565b8060005b838110156200045d578151620004418882620003d5565b97506200044e83620005c3565b9250506001810190506200042a565b5085935050505092915050565b62000475816200063a565b82525050565b62000486816200063a565b82525050565b60006200049982620005b8565b620004a58185620005e1565b9350620004b781856020860162000671565b620004c281620006a7565b840191505092915050565b60006020820190508181036000830152620004e9818462000400565b905092915050565b60006020820190506200050860008301846200047b565b92915050565b600060408201905081810360008301526200052a81856200048c565b90506200053b6020830184620003ef565b9392505050565b6000604051905081810181811067ffffffffffffffff821117156200056657600080fd5b8060405250919050565b600067ffffffffffffffff8211156200058857600080fd5b601f19601f8301169050602081019050919050565b6000819050602082019050919050565b600081519050919050565b600081519050919050565b6000602082019050919050565b600082825260208201905092915050565b600082825260208201905092915050565b6000620005ff826200061a565b9050919050565b600062000613826200061a565b9050919050565b600073ffffffffffffffffffffffffffffffffffffffff82169050919050565b600062000647826200064e565b9050919050565b60006200065b826200061a565b9050919050565b82818337600083830152505050565b60005b838110156200069157808201518184015260208101905062000674565b83811115620006a1576000848401525b50505050565b6000601f19601f8301169050919050565b620006c381620005f2565b8114620006cf57600080fd5b5056fe60806040523480156200001157600080fd5b5060405162001ac738038062001ac78339818101604052620000379190810190620001c3565b6000600281905550816000908051906020019062000057929190620000a1565b5080600160006101000a81548173ffffffffffffffffffffffffffffffffffffffff021916908373ffffffffffffffffffffffffffffffffffffffff1602179055505050620002fc565b828054600181600116156101000203166002900490600052602060002090601f016020900481019282601f10620000e457805160ff191683800117855562000115565b8280016001018555821562000115579182015b8281111562000114578251825591602001919060010190620000f7565b5b50905062000124919062000128565b5090565b6200014d91905b80821115620001495760008160009055506001016200012f565b5090565b90565b6000815190506200016181620002e2565b92915050565b600082601f8301126200017957600080fd5b8151620001906200018a826200024b565b6200021d565b91508082526020830160208301858383011115620001ad57600080fd5b620001ba838284620002ac565b50505092915050565b60008060408385031215620001d757600080fd5b600083015167ffffffffffffffff811115620001f257600080fd5b620002008582860162000167565b9250506020620002138582860162000150565b9150509250929050565b6000604051905081810181811067ffffffffffffffff821117156200024157600080fd5b8060405250919050565b600067ffffffffffffffff8211156200026357600080fd5b601f19601f8301169050602081019050919050565b600062000285826200028c565b9050919050565b600073ffffffffffffffffffffffffffffffffffffffff82169050919050565b60005b83811015620002cc578082015181840152602081019050620002af565b83811115620002dc576000848401525b50505050565b620002ed8162000278565b8114620002f957600080fd5b50565b6117bb806200030c6000396000f3fe6080604052600436106100555760003560e01c8063629058ca1461005a5780636ad6dac21461009757806384e7b1ab146100c057806387548fcf146100eb578063a2e3458614610116578063b3ccb86e14610156575b600080fd5b34801561006657600080fd5b50610081600480360361007c9190810190611128565b610186565b60405161008e9190611515565b60405180910390f35b3480156100a357600080fd5b506100be60048036036100b99190810190611095565b610357565b005b3480156100cc57600080fd5b506100d5610584565b6040516100e2919061145c565b60405180910390f35b3480156100f757600080fd5b50610100610670565b60405161010d919061147e565b60405180910390f35b34801561012257600080fd5b5061013d60048036036101389190810190611128565b610873565b60405161014d94939291906114c2565b60405180910390f35b610170600480360361016b9190810190611046565b610a00565b60405161017d91906114a0565b60405180910390f35b61018e610ed0565b60056000838152602001908152602001600020604051806080016040529081600082018054600181600116156101000203166002900480601f0160208091040260200160405190810160405280929190818152602001828054600181600116156101000203166002900480156102455780601f1061021a57610100808354040283529160200191610245565b820191906000526020600020905b81548152906001019060200180831161022857829003601f168201915b50505050508152602001600182018054600181600116156101000203166002900480601f0160208091040260200160405190810160405280929190818152602001828054600181600116156101000203166002900480156102e75780601f106102bc576101008083540402835291602001916102e7565b820191906000526020600020905b8154815290600101906020018083116102ca57829003601f168201915b50505050508152602001600282015481526020016003820160009054906101000a900473ffffffffffffffffffffffffffffffffffffffff1673ffffffffffffffffffffffffffffffffffffffff1673ffffffffffffffffffffffffffffffffffffffff16815250509050919050565b600160009054906101000a900473ffffffffffffffffffffffffffffffffffffffff1673ffffffffffffffffffffffffffffffffffffffff163373ffffffffffffffffffffffffffffffffffffffff16146103b157600080fd5b6103b9610ed0565b604051806080016040528086815260200185815260200160025481526020013373ffffffffffffffffffffffffffffffffffffffff16815250905061040060025484610de4565b61040c60025483610e5a565b80600560006002548152602001908152602001600020600082015181600001908051906020019061043e929190610f0e565b50602082015181600101908051906020019061045b929190610f0e565b506040820151816002015560608201518160030160006101000a81548173ffffffffffffffffffffffffffffffffffffffff021916908373ffffffffffffffffffffffffffffffffffffffff1602179055509050506003819080600181540180825580915050906001820390600052602060002090600402016000909192909190915060008201518160000190805190602001906104fa929190610f0e565b506020820151816001019080519060200190610517929190610f0e565b506040820151816002015560608201518160030160006101000a81548173ffffffffffffffffffffffffffffffffffffffff021916908373ffffffffffffffffffffffffffffffffffffffff16021790555050505060016002600082825401925050819055505050505050565b60606004805480602002602001604051908101604052809291908181526020016000905b8282101561066757838290600052602060002090600302016040518060600160405290816000820160009054906101000a900473ffffffffffffffffffffffffffffffffffffffff1673ffffffffffffffffffffffffffffffffffffffff1673ffffffffffffffffffffffffffffffffffffffff168152602001600182015481526020016002820160009054906101000a900460ff16600181111561064957fe5b600181111561065457fe5b81525050815260200190600101906105a8565b50505050905090565b60606003805480602002602001604051908101604052809291908181526020016000905b8282101561086a5783829060005260206000209060040201604051806080016040529081600082018054600181600116156101000203166002900480601f0160208091040260200160405190810160405280929190818152602001828054600181600116156101000203166002900480156107505780601f1061072557610100808354040283529160200191610750565b820191906000526020600020905b81548152906001019060200180831161073357829003601f168201915b50505050508152602001600182018054600181600116156101000203166002900480601f0160208091040260200160405190810160405280929190818152602001828054600181600116156101000203166002900480156107f25780601f106107c7576101008083540402835291602001916107f2565b820191906000526020600020905b8154815290600101906020018083116107d557829003601f168201915b50505050508152602001600282015481526020016003820160009054906101000a900473ffffffffffffffffffffffffffffffffffffffff1673ffffffffffffffffffffffffffffffffffffffff1673ffffffffffffffffffffffffffffffffffffffff168152505081526020019060010190610694565b50505050905090565b6003818154811061088057fe5b9060005260206000209060040201600091509050806000018054600181600116156101000203166002900480601f01602080910402602001604051908101604052809291908181526020018280546001816001161561010002031660029004801561092c5780601f106109015761010080835404028352916020019161092c565b820191906000526020600020905b81548152906001019060200180831161090f57829003601f168201915b505050505090806001018054600181600116156101000203166002900480601f0160208091040260200160405190810160405280929190818152602001828054600181600116156101000203166002900480156109ca5780601f1061099f576101008083540402835291602001916109ca565b820191906000526020600020905b8154815290600101906020018083116109ad57829003601f168201915b5050505050908060020154908060030160009054906101000a900473ffffffffffffffffffffffffffffffffffffffff16905084565b606060006001811115610a0f57fe5b826001811115610a1b57fe5b1415610b87576006600084815260200190815260200160002054341015610a4157600080fd5b8373ffffffffffffffffffffffffffffffffffffffff166108fc60066000868152602001908152602001600020549081150290604051600060405180830381858888f19350505050158015610a9a573d6000803e3d6000fd5b50600460405180606001604052808673ffffffffffffffffffffffffffffffffffffffff16815260200185815260200160006001811115610ad757fe5b8152509080600181540180825580915050906001820390600052602060002090600302016000909192909190915060008201518160000160006101000a81548173ffffffffffffffffffffffffffffffffffffffff021916908373ffffffffffffffffffffffffffffffffffffffff1602179055506020820151816001015560408201518160020160006101000a81548160ff02191690836001811115610b7a57fe5b0217905550505050610d2b565b600180811115610b9357fe5b826001811115610b9f57fe5b1415610d0a576007600084815260200190815260200160002054341015610bc557600080fd5b8373ffffffffffffffffffffffffffffffffffffffff166108fc60076000868152602001908152602001600020549081150290604051600060405180830381858888f19350505050158015610c1e573d6000803e3d6000fd5b50600460405180606001604052808673ffffffffffffffffffffffffffffffffffffffff168152602001858152602001600180811115610c5a57fe5b8152509080600181540180825580915050906001820390600052602060002090600302016000909192909190915060008201518160000160006101000a81548173ffffffffffffffffffffffffffffffffffffffff021916908373ffffffffffffffffffffffffffffffffffffffff1602179055506020820151816001015560408201518160020160006101000a81548160ff02191690836001811115610cfd57fe5b0217905550505050610d2a565b6040518060600160405280602d815260200161174c602d91399050610ddd565b5b600560008481526020019081526020016000206001018054600181600116156101000203166002900480601f016020809104026020016040519081016040528092919081815260200182805460018160011615610100020316600290048015610dd55780601f10610daa57610100808354040283529160200191610dd5565b820191906000526020600020905b815481529060010190602001808311610db857829003601f168201915b505050505090505b9392505050565b600160009054906101000a900473ffffffffffffffffffffffffffffffffffffffff1673ffffffffffffffffffffffffffffffffffffffff163373ffffffffffffffffffffffffffffffffffffffff1614610e3e57600080fd5b8060066000848152602001908152602001600020819055505050565b600160009054906101000a900473ffffffffffffffffffffffffffffffffffffffff1673ffffffffffffffffffffffffffffffffffffffff163373ffffffffffffffffffffffffffffffffffffffff1614610eb457600080fd5b8060076000848152602001908152602001600020819055505050565b6040518060800160405280606081526020016060815260200160008152602001600073ffffffffffffffffffffffffffffffffffffffff1681525090565b828054600181600116156101000203166002900490600052602060002090601f016020900481019282601f10610f4f57805160ff1916838001178555610f7d565b82800160010185558215610f7d579182015b82811115610f7c578251825591602001919060010190610f61565b5b509050610f8a9190610f8e565b5090565b610fb091905b80821115610fac576000816000905550600101610f94565b5090565b90565b600081359050610fc28161170d565b92915050565b600081359050610fd781611724565b92915050565b600082601f830112610fee57600080fd5b8135611001610ffc82611564565b611537565b9150808252602083016020830185838301111561101d57600080fd5b6110288382846116ad565b50505092915050565b60008135905061104081611734565b92915050565b60008060006060848603121561105b57600080fd5b600061106986828701610fb3565b935050602061107a86828701611031565b925050604061108b86828701610fc8565b9150509250925092565b600080600080608085870312156110ab57600080fd5b600085013567ffffffffffffffff8111156110c557600080fd5b6110d187828801610fdd565b945050602085013567ffffffffffffffff8111156110ee57600080fd5b6110fa87828801610fdd565b935050604061110b87828801611031565b925050606061111c87828801611031565b91505092959194509250565b60006020828403121561113a57600080fd5b600061114884828501611031565b91505092915050565b600061115d8383611328565b60608301905092915050565b600061117583836113d4565b905092915050565b6111868161163a565b82525050565b6111958161163a565b82525050565b60006111a6826115b0565b6111b081856115f6565b93506111bb83611590565b8060005b838110156111ec5781516111d38882611151565b97506111de836115dc565b9250506001810190506111bf565b5085935050505092915050565b6000611204826115bb565b61120e8185611607565b935083602082028501611220856115a0565b8060005b8581101561125c578484038952815161123d8582611169565b9450611248836115e9565b925060208a01995050600181019050611224565b50829750879550505050505092915050565b6112778161169b565b82525050565b6000611288826115d1565b6112928185611629565b93506112a28185602086016116bc565b6112ab816116ef565b840191505092915050565b60006112c1826115c6565b6112cb8185611618565b93506112db8185602086016116bc565b6112e4816116ef565b840191505092915050565b60006112fa826115c6565b6113048185611629565b93506113148185602086016116bc565b61131d816116ef565b840191505092915050565b60608201600082015161133e600085018261117d565b506020820151611351602085018261143e565b506040820151611364604085018261126e565b50505050565b6000608083016000830151848203600086015261138782826112b6565b915050602083015184820360208601526113a182826112b6565b91505060408301516113b6604086018261143e565b5060608301516113c9606086018261117d565b508091505092915050565b600060808301600083015184820360008601526113f182826112b6565b9150506020830151848203602086015261140b82826112b6565b9150506040830151611420604086018261143e565b506060830151611433606086018261117d565b508091505092915050565b61144781611691565b82525050565b61145681611691565b82525050565b60006020820190508181036000830152611476818461119b565b905092915050565b6000602082019050818103600083015261149881846111f9565b905092915050565b600060208201905081810360008301526114ba818461127d565b905092915050565b600060808201905081810360008301526114dc81876112ef565b905081810360208301526114f081866112ef565b90506114ff604083018561144d565b61150c606083018461118c565b95945050505050565b6000602082019050818103600083015261152f818461136a565b905092915050565b6000604051905081810181811067ffffffffffffffff8211171561155a57600080fd5b8060405250919050565b600067ffffffffffffffff82111561157b57600080fd5b601f19601f8301169050602081019050919050565b6000819050602082019050919050565b6000819050602082019050919050565b600081519050919050565b600081519050919050565b600081519050919050565b600081519050919050565b6000602082019050919050565b6000602082019050919050565b600082825260208201905092915050565b600082825260208201905092915050565b600082825260208201905092915050565b600082825260208201905092915050565b600061164582611671565b9050919050565b600061165782611671565b9050919050565b600081905061166c82611700565b919050565b600073ffffffffffffffffffffffffffffffffffffffff82169050919050565b6000819050919050565b60006116a68261165e565b9050919050565b82818337600083830152505050565b60005b838110156116da5780820151818401526020810190506116bf565b838111156116e9576000848401525b50505050565b6000601f19601f8301169050919050565b6002811061170a57fe5b50565b6117168161164c565b811461172157600080fd5b50565b6002811061173157600080fd5b50565b61173d81611691565b811461174857600080fd5b5056fe496e76616c69642070757263686173652e20436865636b2066756e6473206f72204c6963656e7365547970652ea365627a7a72315820834988db8b476de4f1f75c6e3713da0f3711542237c223cd9db1cba97726095f6c6578706572696d656e74616cf564736f6c63430005100040a365627a7a723158202efca35ff18817fabcccc40025b02a06b496281b9cf32236144162af77059f006c6578706572696d656e74616cf564736f6c63430005100040",
  "source": "pragma solidity >=0.5.16 <0.9.0;\npragma experimental ABIEncoderV2;\n\nimport './Producer.sol';\n\ncontract ProducerFactory {\n    Producer[] producers;\n    mapping (address => Producer) private addressToProdID;\n    mapping (address => bool) private isProducerMap;\n\n    struct Track {\n        string name;\n        string CID;\n        uint trackID;\n        address trackOwner;\n    }\n\n    event ProducerCreated(address owner);\n\n    modifier isProducer() {\n        require(isProducerMap[msg.sender] == true);\n        _;\n    }\n\n    function createProducer(string memory _name) public {\n        Producer p = new Producer(_name, msg.sender);\n        addressToProdID[msg.sender] = p;\n        producers.push(p);\n    }\n\n    function getProducers() public view returns(Producer[] memory) {\n        return producers;\n    }\n\n    function getProducer(address _prodAddr) public view returns(Producer) {\n        return addressToProdID[_prodAddr];\n    }\n\n    // function getTrack(address _owner, uint _trackID) public returns(Track memory){\n    //     return addressToProdID[_owner].getTrack(_trackID);\n    // }\n\n    // function getTracks(address _owner) public returns (Track[] memory) {\n    //     return addressToProdID[_owner].getTracks();\n    // }\n\n\n    // // should use the mapping\n    // function verifyExlusiveLicense(address _owner, address _licenseHolder, uint _trackID) public returns(bool) {\n    //     return addressToProdID[_owner].hasExclusiveLicense(_licenseHolder, _trackID);\n    // }\n\n    // function verifyNonExlusiveLicense(address _owner, address _licenseHolder, uint _trackID) public returns(bool) {\n    //     return addressToProdID[_owner].hasNonExclusiveLicense(_licenseHolder, _trackID);\n    // }\n\n}",
  "sourcePath": "/Users/akhoshrozeh/Projects/consensys21/blockchain-developer-bootcamp-final-project/truffle/contracts/ProducerFactory.sol",
  "compiler": {
    "name": "solc",
    "version": "0.5.16+commit.9c3226ce.Emscripten.clang"
  },
  "schemaVersion": "3.4.3",
  "updatedAt": "2021-11-12T19:09:52.504Z",
  "devdoc": {
    "methods": {}
  },
  "userdoc": {
    "methods": {}
  }
}